:020000040800F2
:10000000E009002001010008610E00083D0E000813
:100010005B0E0008690200088B1500080000000054
:100020000000000000000000000000009D1100081A
:10003000A502000800000000310F0008ED120008C2
:10004000911500081D0F000883130008091100080E
:10005000BB0600086D100008910600089D06000808
:10006000A3060008A9060008AF0600087B020008E6
:1000700081020008870200088D0200089302000830
:10008000990200089F020008310200087F1500084D
:10009000851500086F02000875020008B506000803
:1000A000891300089B130008951300088F1300089C
:1000B000A1130008A7130008AD130008490E00089B
:1000C000430E0008550E00084F0E0008911100085D
:1000D00097110008B3130008B9130008BF130008F4
:1000E00097060008B110000879150008DFF80CD059
:1000F00000F08CF800480047392E0008E009002085
:100100000648804706480047FEE7FEE7FEE7FEE7B1
:10011000FEE7FEE7FEE7FEE7FEE7FEE7F512000872
:10012000ED0000082DE9F05F0546002092469B4651
:1001300088460646814640241BE0284641464746FD
:10014000224600F053F853465A46C01A914110D344
:1001500011461846224600F03AF82D1A67EB0108BE
:100160004F4622460120002100F031F817EB00092C
:100170004E41201EA4F10104DFDC484631462A46E8
:100180004346BDE8F09F40EA01039B0703D009E026
:1001900008C9121F08C0042AFAD203E011F8013B73
:1001A00000F8013B521EF9D27047D2B201E000F8CC
:1001B000012B491EFBD270470022F6E710B513460B
:1001C0000A4604461946FFF7F0FF204610BD202AD4
:1001D00004DB203A00FA02F1002070479140C2F19E
:1001E000200320FA03F3194390407047202A04DBD0
:1001F000203A21FA02F00021704721FA02F3D040A0
:10020000C2F120029140084319467047064C074D41
:1002100006E0E06840F0010394E8070098471034D6
:10022000AC42F6D3FFF766FFC8310008E83100089A
:100230001A2000F00DBD10B5012000F0B1FEBDE8A0
:100240001040002000F0ACBE08B502490844009000
:10025000008808BD006C004008B5024A10440090B8
:10026000016008BD006C0040032000F0F1BC1D20BF
:1002700000F0EEBC1E2000F0EBBC132000F0E8BC48
:10028000142000F0E5BC152000F0E2BC162000F0C0
:10029000DFBC172000F0DCBC182000F0D9BC19200E
:1002A00000F0D6BC062000F0D3BC0000074801686F
:1002B00041F080710160064800214160016841F011
:1002C000010101600349012008707047FCED00E066
:1002D000001000E05400002000B585B014216846ED
:1002E000FFF76AFF684600F061FE019805B000BDA7
:1002F0000148406870470000001000E0F8B5002099
:10030000174E0546CDF8000005EB850006EB80048E
:100310000121206900F02CFE6089ADF80000207AF0
:100320008DF80300607B8DF802006946606800F07C
:10033000C7F9207B012801D028B108E061896068F5
:1003400000F018FA03E06189606800F011FA6D1C92
:10035000EDB2072DD8D3034901200870F8BD000085
:10036000FC30000855000020064900EB800001EB3E
:100370008000017B022901D0042070474189406838
:1003800000F0EFB9FC3000080A4A00EB800002EBF5
:100390008000027B022A0BD0012905D0002907D159
:1003A0004189406800F0E4B94189406800F0E2B951
:1003B00070470000FC300008064910B501EB401002
:1003C0000024806840F2255101F040F800B101247A
:1003D000204610BD88310008064910B501EB4010D9
:1003E0000024806840F2277101F030F800B1012448
:1003F000204610BD88310008034800880249091DC5
:10040000098801EB004070471828004038B50024E7
:1004100001214FF0C05000F093FD012000F082FD5B
:100420000420FFF711FF45F25005A84241D0FFF725
:1004300002FF012000F01EFE641C0A21E4B200202D
:10044000FD22521EFDD1401C8842F9D3FA2C1DD248
:10045000412000F0F3FD0028EED04FF4007000BF03
:1004600000F01EFE012000F015FE00F07DFE00F001
:1004700083FE0121084600F04BFE00F075FE00F0FF
:1004800023FEFA2C05D34FF2234004E04FF44070D2
:10049000E6E747F6FF7000F057FE00F065FE00202B
:1004A00000F034F800F018FE29460420FFF7D4FECF
:1004B00007E000F061FE0121084600F029FE00F08F
:1004C00053FE094900200968009103218DF80010AE
:1004D0008DF801008DF8020001208DF803006846B8
:1004E00000F0C2FC38BD00005700002010B501200C
:1004F00000F0FAFD002800D0012010BD10B5052045
:1005000000F0DAFDBDE8104000F02EBE10B5044644
:1005100001214FF0C05000F013FD012000F002FD5A
:10052000204600F001FEBDE8104000F01DBE0000B6
:100530002DE9F043002085B02D4EDFF8B880009003
:100540000190029003900546012740F2255904903E
:1005500006EB4514A068404508D02749884205D0DD
:100560002649884202D02649884204D10121606888
:1005700000F0E6FC03E00121606800F0F9FCA068EF
:1005800000F02AFF207B8DF81000607B8DF81100B1
:10059000A07B8DF812008DF8137004A800F064FCA5
:1005A00020690090A08AADF80400E08AADF806004A
:1005B000208BADF80800608BADF80C00A08BADF877
:1005C0000A006946A06800F079FF01224946A06848
:1005D00000F05BFF0121A06800F0F4FE6D1CEDB29D
:1005E000022DB5D30748077005B0BDE8F0830000C1
:1005F000883100080044004000480040004C0040A2
:100600000050004056000020044910B501EB401096
:10061000806800F0A9FFC0B210BD0000883100085A
:100620000449002201EB401040F22551806800F09F
:100630002CBF0000883100080449012201EB401062
:1006400040F22551806800F020BF0000883100088A
:100650000449002201EB401040F22771806800F04D
:1006600014BF0000883100080449012201EB40104A
:1006700040F22771806800F008BF00008831000850
:10068000024A02EB4010806800F072BF8831000817
:100690000E2000F0DDBA302000F0DABA0F2000F0B2
:1006A000D7BA102000F0D4BA112000F0D1BA12202D
:1006B00000F0CEBA1F2000F0CBBA0C2000F0C8BA70
:1006C000F0B5CA78002502F00F03D20601D58A786A
:1006D00013430A784FF00F0E12F0FF0F4FF0010294
:1006E0001CD004680F8802FA05F63740B74211D1D2
:1006F0004FEA850C0EFA0CF724EA070703FA0CF40C
:100700003C43CF78282F02D0482F02D002E0466128
:1007100000E006616D1C082DE4D304600C88FF2CFA
:100720001ED944685FF0000606F1080702FA07F5D3
:100730000F882F40AF420FD14FEA860C0EFA0CF70C
:10074000BC4303FA0CF73C43CF78282F00D1456116
:10075000CF78482F00D10561761C082EE4D3446081
:10076000F0BD0246002092680A4200D00120704786
:100770004161704701617047014911F810007047ED
:100780003A000020024A002102F8101070470000D1
:100790003A00002002484168491C416072B6704727
:1007A000180000200348416811B1491E416000D182
:1007B00062B67047180000200248806800B1804788
:1007C00072B6FEE718000020024901EB40004078B5
:1007D000704700003A000020014800787047000090
:1007E00024000020FFF78ABD70B500240A4D26467C
:1007F000A01CC0B2FFF7B8FD40B12E55204600F056
:100800000DF8641C14F0FF04F2D070BD285DFF28C1
:10081000F4D2401C2855F1E7A00200202DE9F05F3A
:100820000446394FDFF8DC8007EB44054046697821
:100830004FF0010A4FF0000B00EB840600EB0409B7
:10084000072950D2DFE801F0040E1F34373D450080
:1008500018F80400032846D385F801A000F05CFBDB
:10086000706040E018F8040008B1706804E00220ED
:10087000687000F051FB706000F032FB2349884241
:1008800031D3042021E0706800F02AFB204988421F
:1008900003D30320687007F814A099F80C0010BB6C
:1008A00018F80400032801D305206870BDE8F09F04
:1008B00017F8140001E018F80400A0B985F801B099
:1008C00011E018F8040070B90620687007F814A049
:1008D00009E017F8140030B985F801B089F80CA0C8
:1008E00000F01AFBB06099F80C004C460128DDD1ED
:1008F000B06800F0F5FA07498842D7D384F80CB005
:10090000D4E70000A00200203A00002040420F007F
:10091000F049020080841E0070B50D480B4E0D4951
:10092000D0E900450B2000F069F9FFF76FFD00F0FA
:1009300097F8308840F2E371884205D22946204674
:10094000BDE8704000F026B870BD00003200002005
:10095000DC3000085909000810B5FFF7C7FD012871
:1009600001D100F07DF8BDE81040FFF7C7BD810759
:100970000CD16421B0FBF1F201FB120141B94FF43B
:10098000C871B0FBF1F201FB120008B10020704702
:10099000012070472DE9F05F054686B20024A6F2DB
:1009A000B2708846822851D240F2B277DFF8A09028
:1009B000DFF8A0A007E03846FFF7D9FF012810D0E4
:1009C00054447F1CBFB2BE42F5D8280C401EC7B2AB
:1009D00067F31745A9460025DFF87CA0DFF87CB057
:1009E00013E04C44EDE700BF1AF8050040F2A321E4
:1009F000484304EBC0143046FFF7B9FF012802D189
:100A0000012D00D15C446D1CADB2AF42ECD84FEA71
:100A1000196040F2A3214843104904EBC010494239
:100A2000084408F0FF01C1EB4112C2EB012100EBC9
:100A30000110C8F30721C1EB011100EB8100C8F3DD
:100A40000741BDE8F05F0844FFF760BDBDE8F09FD7
:100A50000085E2018033E101E430000880510100AB
:100A60002DE9F047434DFFF7C7FCDFF80C8107463F
:100A7000B0FBF8F4A81E0188A14230D0048040F2F7
:100A8000B2764FF4B77A4FF4B67907E0B0B2FFF719
:100A90006EFF012809D0A4F26D14761C4C45F5D8E0
:100AA0002E800026DFF8D49013E0544502D3A4F53D
:100AB000B774F2E7761CF3E7B0B2FFF758FF0128EE
:100AC00001D1012E46D019F80600A04203D8241AFD
:100AD000761C1C2CF0D2761CAE70641CEC70B7FB3C
:100AE000F8F108FB11704FF46161B0FBF1F22A716B
:100AF000B0FBF1F201FB12033C22B3FBF2F36B718A
:100B0000B0FBF1F301FB1300B0FBF2F102FB1100AB
:100B1000A87128886423B0FBF3F4B0FBF3F6AA783D
:100B2000E978E4B203FB1600132C01D96430C0B29B
:100B300000EB90040723B4FBF3F603FB16440F4EBF
:100B400021440C361644800716F8016C314489B2F2
:100B500004D007E01D2CBED31D3CB9E7032A01D207
:100B6000491E89B2B1FBF3F003FB1010E871BDE838
:100B7000F08700003200002080510100E4300008BE
:100B800001210020FFF700BC00210846FFF7FCBB55
:100B900038B5184D002005F118048DF80000FFF756
:100BA0001BFC01280ED16946284600F076FB02287E
:100BB0001CD06946284600F088FB9DF800100020F4
:100BC000FFF75EFD0020FFF7F7FB01280DD10020A5
:100BD000FFF71AFD8DF800000146204600F036FBB5
:100BE00005480068002800D0804738BD0020FFF786
:100BF0002FFDE7E7700200202800002000B50B461B
:100C00000246442808D2FFF7C5FD044840F82230C8
:100C10005DF804EBFFF7C6BD00BD000070000020CA
:100C200010B50A4C00F024F802202070FFF7DAFD1E
:100C30000320207000F02EF804202070FFF76CFED7
:100C400006202070BDE81040FFF730BB14000020E4
:100C500005490870442805D2044951F820000028AD
:100C600000D00047704700001800002070000020EE
:100C700010B500244FF4A06000F028F90449204684
:100C8000FFF7BCFF641CE4B2442CF7D310BD000096
:100C9000B90700082DE9F047144F002407F1F008C8
:100CA00007F1780907F5847AC4EB041604EB4405D0
:100CB00007EB860108EB85003C2200F0E0FA09EB27
:100CC00086010AEB85003C2200F0D9FA641CE4B2EC
:100CD000022CE9D306492D20FFF790FF05492E206D
:100CE000FFF78CFFBDE8F047FFF722BC8001002032
:100CF000910B0008A10D000870B50D460446FFF7E2
:100D00008FFC074904EB440001EB8000294600F00A
:100D1000C4FA05462046FFF78FFC284670BD000048
:100D2000880200202DE9F84F89464FF000058246E1
:100D30001A4900EB4A0016002C4601EB80082F46AA
:100D40008DF8005001D03C2E02D90320BDE8F88F69
:100D50005046FFF77DFC404600F098FA01280AD182
:100D6000012708E019F80410404600F06FFA05006A
:100D700003D1641CE4B2B442F4D357B1694640468F
:100D800000F0A3FA050004D19DF800105046FFF7CB
:100D900077FC5046FFF768FC2846D7E77002002032
:100DA00038B5184D00208DF8000005F11804012019
:100DB000FFF712FB01280ED16946284600F06DFAB4
:100DC00002281BD06946284600F07FFA9DF80010E3
:100DD0000120FFF755FC0120FFF7EEFA01280CD1A6
:100DE000FFF712FC8DF800000146204600F02EFAB5
:100DF00005484068002800D0804738BD0120FFF733
:100E000027FCE8E77C0200202800002010B5012123
:100E10000846FFF7B9FA02490020087010BD00002B
:100E20002400002010B500210120FFF7ADFA02498F
:100E30000120087010BD0000240000200120FFF7F1
:100E400007BF2820FFF704BF2720FFF701BF2A2094
:100E5000FFF7FEBE2920FFF7FBBE0220FFF7F8BE1A
:100E60000020FFF7F5BE000070B50F23C4780178AD
:100E70000122F4B1144C2468457804F4E064C4F50C
:100E8000E064240AC4F10406E3408478B5401C40C1
:100E90002C4301F1E021230181F80034007800F0B7
:100EA0001F018A404009800000F1E020C0F80021C5
:100EB00070BD01F01F0082404809800000F1E02071
:100EC000C0F8802170BD00000CED00E0024908432D
:100ED00002490860704700000000FA050CED00E0D0
:100EE00010B50446FFF704FAA04201D9041B02E042
:100EF000E1430C18641CFFF7EFF90021054A0B468B
:100F0000FFF710F902460B4620460021FFF70AF9C9
:100F100010BD000040420F00FFF7EAB90920FFF7BB
:100F200097BE0000014908627047000000000E42B1
:100F30000249F0200870FFF73FFC00001800002075
:100F4000044A0029D16901D0014300E08143D16105
:100F50007047000000100240044A0029116901D0C6
:100F6000014300E08143116170470000001002401E
:100F7000044A0029916901D0014300E08143916155
:100F80007047000000100240044A0029D16801D0D7
:100F9000014300E08143D16070470000001002402F
:100FA00001490860704700004004424230B51F49C3
:100FB0004A6812F00C031E4A03D0042B01D0082B00
:100FC00021D002604A680F231A4C03EA1212A35C74
:100FD0000268DA4042604B68072505EA1323E35CA8
:100FE00022FA03F383604B6805EAD323E35CDA401B
:100FF000C2604968032303EA9131231F595CB2FBA5
:10100000F1F1016130BD4A684B6802F470124FF093
:10101000020413F4803F04EB924202D04B689B031E
:1010200001D5054B00E0024B5A43CAE700100240CD
:1010300000127A005F00002000093D0002460020F7
:1010400053090949012B0BD0022B0BD0D1F82410E6
:1010500002F01F02012393400B4200D00120704791
:101060000968F5E7096AF3E7001002400D20FFF771
:10107000EFBD00000649002281F8202081F82020E1
:10108000012802D0042802D1052081F820007047F1
:101090000010024001490860704700003C044242D1
:1010A00002490A6A02430A627047000000100240C7
:1010B0003120FFF7CDBD000002490A8882430A8033
:1010C00070470000042800400248018841F01001E8
:1010D00001807047042800400248018821F0100177
:1010E000018070470428004006490988C2B21140B7
:1010F000044A121F1288024202D009B1012070472F
:1011000000207047042800400B20FFF7A1BD00001D
:10111000044A0029118801D0014300E08143118075
:10112000704700000028004000B50246FFF7CCFFE2
:101130000449100C0880081D02805DF804EBFFF7DD
:10114000CBBF00001828004000B50246FFF7BCFFE7
:101150000449C2F303400880081D02805DF804EBD7
:10116000FFF7BABF08280040024801888906FCD56D
:1011700070470000042800400448018821F008015D
:10118000018001880907FCD5704700000428004051
:101190002B20FFF75DBD2C20FFF75ABD0520FFF780
:1011A00057BD00000CB5002126480191009102684E
:1011B00042F4803202604FF4A063026802F400320D
:1011C0000092019A521C0192009A12B9019A9A4215
:1011D000F3D10268920333D5012100911A490A68BC
:1011E00042F010020A600A6822F003020A600A68EC
:1011F00042F002020A604168416041684160416812
:1012000041F480614160416821F47C114160416892
:1012100041F4E8114160016841F0807101600168AA
:101220008901FCD5416821F003014160416841F02A
:10123000020141604168C1F381010229FAD10CBD6C
:1012400000910CBD001002400020024010B5037A4E
:101250000022447AA3420FD2436844781955017A98
:10126000491C01724178491C41704178437A994286
:1012700003D30021417000E00122104610BD00237D
:101280000370437041600372427270470146002050
:10129000097A002900D10120704710B5037A002295
:1012A00083B1436804781B5D0B700178491C0170A1
:1012B000017A491E01720178437A994203D30021D1
:1012C000017000E00222104610BD037A002223B113
:1012D00043680078185C087000E0022210467047EE
:1012E0007047CAB201460120FFF71CBD0720FFF777
:1012F000AFBC00000F4810B5016841F0010101606A
:1013000041680D4A1140416001680C4A114001607A
:10131000016821F480210160416821F4FE014160EF
:101320004FF41F018160FFF73DFF05494FF000605A
:10133000086010BD001002400000FFF8FFFFF6FE3D
:1013400008ED00E010B50C4C6068FFF7C9FD0B49D3
:10135000884210D3FFF7E0FD6060207828B10020BC
:101360002070BDE81040FFF70BBC01202070BDE8E5
:101370001040FFF709BC10BD0000002020A10700AD
:1013800070470A20FFF764BC2020FFF761BC2320D0
:10139000FFF75EBC2220FFF75BBC2120FFF758BCA3
:1013A0002420FFF755BC2520FFF752BC2620FFF76D
:1013B0004FBC2D20FFF74CBC2E20FFF749BC2F203F
:1013C000FFF746BC0029818902D041F4005101E0B9
:1013D00021F4005181817047174910B588420AD124
:1013E00001218C032046FFF7CFFD2046BDE81040C9
:1013F0000021FFF7C9BD1149884202D101214C04E7
:1014000010E00F49884202D101218C040AE00D4905
:10141000884202D10121CC0404E00B4988420AD160
:1014200001210C052046FFF797FD2046BDE810403E
:101430000021FFF791BD10BD00380140004400407D
:1014400000480040004C00400050004030B501F022
:101450001F0201240025C1F3421304FA02F2012BFA
:101460000FD0022B0FD0838A4FEA1121008813423C
:1014700004FA01F400EA040001D000B10125284675
:1014800030BD8389F0E7038AEEE710B5C1F342135C
:1014900001F01F040121A140012B07D0022B07D02E
:1014A0001430002A026805D00A4304E00C30F8E743
:1014B0001030F6E78A43026010BD000030B50446E4
:1014C000008A85B00D464CF6FF710840E98801435B
:1014D0002182A1894EF6F3100140A8882A89104381
:1014E0006A890A431043A081A08A4FF6FF41084051
:1014F000A9890143A1826846FFF758FD1948844233
:1015000001D1039800E00298A189090400EBC00111
:1015100001EB0010296801D5490000E08900B0FB0B
:10152000F1F06422B0FBF2F109010B096FF018052C
:101530006B4300EB8300A3891D044FF0320306D5F3
:1015400003EBC000B0FBF2F000F0070005E003EB96
:101550000010B0FBF2F000F00F000843208105B04E
:1015600030BD0000003801408088C0F3080070479B
:10157000C1F30801818070473220FFF769BB1B204F
:10158000FFF766BB1C20FFF763BB0420FFF760BBBF
:101590000820FFF75DBB704738B500208DF80000CC
:1015A00069460120FFF7A8FB40B90121684601F018
:1015B0001BF8012269460020FFF7B4FB064C2068A7
:1015C000FFF78EFC41F28831884204D3FFF7A4FC78
:1015D000206000F00DF838BD0800002010B5FFF7BE
:1015E0007FFE01F06FFBBDE8104001F071BD00000F
:1015F00010B5002401F0F8F8641CE4B2052CF9D30E
:10160000FFF7F2F80020FFF7B7F8012814D1002007
:10161000FFF7DAF8032804D004282DD0062808D1D3
:101620002EE0FFF7D9F810B9FFF7FCFB01E0FFF758
:10163000EDFB0020FFF7A6F8144CA068FFF750FC64
:101640001349884207D3FFF767FCA06001F036FD1D
:10165000104801F095F96068FFF742FC0E49884296
:1016600012D3FFF759FC606000F018F801280BD185
:10167000BDE8104001F04AB9022001F051FBD3E768
:10168000002001F04DFBD2E710BD00000800002053
:10169000A08601003D00002080C3C90101480078F8
:1016A000704700003C00002002E008C8121F08C17B
:1016B000002AFAD170477047002001E001C1121FD3
:1016C000002AFBD17047014600200A0A62F3070096
:1016D00061F30F20704700BA704748B1420707D046
:1016E00000F00700C0F10800884203D300207047D3
:1016F0000829FBD90120704730B5002248B9501E97
:1017000030BD8B1A0344845C13F8015D85541C7052
:10171000521CB2EB510FF4D3002030BD70B50C4613
:1017200005004FF0000610D07CB100F0FFF82078E3
:101730002978884207D008A0FFF72DFF012600F086
:10174000F5F80C498860304670BD0BA0FFF723FF09
:101750004FF0FF3070BD000076616C75654C6564BC
:10176000537461747573466C6167204368616E677A
:1017700065640A004400002067697A436865636B0A
:101780005265706F7274204572726F72202C2049FE
:101790006C6C6567616C20506172616D0A000000BD
:1017A00038B51446C0B1B9B1B4B10278D20711D07E
:1017B0000D784A1C1123AB540A78431C521C0A7042
:1017C00001210A4600910021084600F0CBFF00B13C
:1017D00001202070002038BD02A0FFF7DCFE4FF092
:1017E000FF3038BD67697A44617461506F696E7407
:1017F000324576656E74204572726F72202C2049D6
:101800006C6C6567616C20506172616D0A0000004C
:1018100038B50C4678B174B1002121700078009081
:1018200023460122084600F075FF01212046FFF7FC
:1018300063FF002038BD03A0FFF7ADFE4FF0FF307F
:1018400038BD000067697A44617461506F696E74D5
:1018500073325265706F72744461746120457272A4
:101860006F72202C20496C6C6567616C205061722E
:10187000616D0A002DE9F041054600F057F8044675
:101880001B492846FFF74AFF194E253E06F123085B
:1018900001280FD117A0FFF77EFE41462846FFF72B
:1018A000B7FF20B901224146042000F0D1FE28787C
:1018B00086F825001548B4FBF0F100FB1140002824
:1018C00014D1134FF868A04210D012A0FFF763FEA6
:1018D00041462846FFF79CFF20B9012241460420DB
:1018E00000F0B6FE287886F82500FC60BDE8F0819F
:1018F000550300206368616E6765642C2072657013
:101900006F727420646174610A000000C0270900CE
:1019100044000020496E666F3A2036303053207202
:1019200065706F727420646174610A0001484068D8
:10193000704700003C00002010B5134C94F83A00AA
:10194000012819D194F83900022816D2FFF7EEFFCA
:10195000D4F85310401AC8280ED9FFF7E7FF14F83F
:10196000393F0146D4F81A2008A0FFF714FE00F012
:101970009BFD2078401C207010BD03481E21BDE84F
:1019800010403930FEF718BCB00200205761726E6B
:10199000696E673A67697A50726F746F636F6C52E1
:1019A0006573656E6444617461202564202564203C
:1019B00025640A003EB5F8B10168009140680190C5
:1019C0009DF80400401C8DF804000520FFF77BFE05
:1019D000ADF802000921684600F0A0FD8DF808006E
:1019E0000921684601F004FB040003D5014605A067
:1019F000FFF7D1FD20463EBD09A0FFF7CCFD4FF01B
:101A0000FF303EBD4552523A2075617274207772A4
:101A1000697465206572726F72202564200A000067
:101A20004552523A2067697A50726F746F636F6CD7
:101A3000436F6D6D6F6E41636B20646174612069EB
:101A40007320656D707479200A0000003EB50D4664
:101A5000040021D0684600F0B5F912208DF804008A
:101A600060798DF805000620FFF72DFEADF8020025
:101A70008DF808500A21684600F050FD8DF80900E5
:101A80000A21684601F0B4FA040003D5014605A016
:101A9000FFF781FD20463EBD09A0FFF77CFD4FF01A
:101AA000FF303EBD4552523A207561727420777204
:101AB000697465206572726F72202564200A0000C7
:101AC00067697A50726F746F636F6C4572726F7270
:101AD000436D64204572726F72202C20496C6C65D6
:101AE00067616C20506172616D0A000010B59EB094
:101AF00004004FD0684600F065F902208DF804001C
:101B000060798DF8050026A02022D0E90010CDE9EB
:101B1000021026A1D1E90001CDE9040126A0D0E9F7
:101B20000010CDE9081027A1D1E90001CDE9060197
:101B300027A10AA8FEF727FB20222EA10DF15200B3
:101B4000FEF721FB0020CDF84A00CDF84E009DF8AD
:101B5000510040F002008DF851000020FFF7B3FD66
:101B6000ADF848006F20FFF7AEFDADF8020073211D
:101B7000684600F0D3FC8DF872007321684601F0CE
:101B800037FA040003D5014623A0FFF704FD2046E1
:101B90001EB010BD27A0FFF7FEFC4FF0FF30F7E7A7
:101BA00030303030303030340000000030303030F1
:101BB00030303032000000003033303330303030DD
:101BC0000000000030333031303130300000000090
:101BD0003966386437326238643632663432663297
:101BE0006139373538353637353066396661646383
:101BF0000000000033616532646135393561633559
:101C0000343138303930346436343232383538355E
:101C100031663534000000004552523A2075617239
:101C200074207772697465206572726F7220256402
:101C3000200A000067697A50726F746F636F6C4797
:101C40006574446576696365496E666F2045727296
:101C50006F72202C20496C6C6567616C205061723A
:101C6000616D0A002DE9F84F4FF0000690460C46D2
:101C70005FEA000A35464FF0FF390ED06CB1B8F17B
:101C8000000F0AD0504601F0F7F810F0FF0707D018
:101C90004FF0FF0BDFF8F89055E03EA0FFF77BFC1C
:101CA0004846BDE8F88F01226946504601F01AF90E
:101CB000F0B399F80100FF2805D19DF80000FF2836
:101CC00007D0552833D099F80010484601291BD079
:101CD0002DE099F80010484661B18188042926D981
:101CE000A94224D084F800B084F801B00221A9F8F8
:101CF00004101CE084F800B084F801B00221818057
:101D0000012189F8001012E080889DF800202254FB
:101D1000401C80B2A9F80400042808D96088FFF7A5
:101D2000D2FC001D85B2B9F80400A8420DD000E035
:101D300008E09DF8001089F8011099F80210491C7C
:101D400089F80210761CBE42ADDBB9F804104E468D
:101D500004291AD9A94218D1204600F0DFFBB28825
:101D6000A11811F8011C81420CD121462A460846CF
:101D7000FEF709FAA8F8005000203070B080B0706B
:101D800070708EE76FF001008BE7012089E700009B
:101D90004400002067697A50726F746F636F6C47FC
:101DA00065744F6E655061636B6574204572726F28
:101DB00072202C20496C6C6567616C2050617261E7
:101DC0006D0A000010B538B1002101604160FF21AB
:101DD00001704170002010BD02A0FFF7DCFB4FF046
:101DE000FF3010BD4552523A2067697A50726F74C5
:101DF0006F636F6C48656164496E697420686561E2
:101E00006420697320656D707479200A00000000F9
:101E10002DE9F0438BB0984617465FEA0109064664
:101E20004FF0000525D0B8F1010F2AD0781D84B2FB
:101E300023462A46394628A0FFF7ADFBFF208DF840
:101E400000008DF80100200A8DF802008DF8034093
:101E50003079401C8DF8040070798DF80500002061
:101E60008DF8060008208DF80780B8F1010F0CD01E
:101E700016E023A0FFF78FFB4FF0FF300BB0BDE85B
:101E8000F083357AE819801DD1E78DF808502A468D
:101E900006F109010DF10900FEF775F905F10900D8
:101EA0006D4627B128443A464946FEF76CF9211D94
:101EB000684600F033FB2919C870211D684601F0FF
:101EC00097F8010005D514A0FFF765FB6FF001003E
:101ED000D4E70020D2E700006C656E203D20256429
:101EE000202C20734469644C656E203D20256420BD
:101EF0002C646174615F6C656E203D2025640A006E
:101F00005B4552525D202064617461204973204E0C
:101F1000756C6C200A00000075617274207772691C
:101F20007465206572726F72202564200A000000BB
:101F30002DE9F05F0C000A9D94F800801F461646BC
:101F40004FF0FF3B03D017B10DB120B14DE028A0F9
:101F5000FFF721FB24E0324813218146FEF72CF9DC
:101F60004046DFF8BC804FF0000AA8F1570801286E
:101F700006D04FF0030902280CD0052835D11CE00B
:101F8000274A49464D32601CFFF70AFC012188F8B8
:101F9000001028E022494C31881CFFF739FC10B1B1
:101FA0005846BDE8F09F1E48293090F8230078700D
:101FB00087F800900220286017E01948721E611C03
:101FC0004038FEF7E0F84046761EC8F82D60144908
:101FD00010F8573F491C10225A5410F81F19491C79
:101FE000C17700F8389CC5F800A00020D9E70000B0
:101FF00067697A50726F746F636F6C49737375653C
:102000006450726F63657373204572726F72202C17
:1020100020496C6C6567616C20506172616D0A00CB
:10202000070300202DE9F041060031D03089FFF789
:102030004AFB8C4F30818C4C38784FF00208C0F34B
:102040008001307A04F16B05C0F38002914241D0E7
:1020500042074FF000014FEAC07020D550B194F80C
:102060006A00415594F86A00401C84F86A007FA019
:10207000FFF791FA307A80072CD594F86A10012086
:10208000485594F86A00401C84F86A007FA01FE05D
:1020900085A0FFF780FA4FF0FF30BDE8F08150B126
:1020A00094F86A00415594F86A00401C84F86A006C
:1020B0006EA0FFF770FA307A80070BD594F86A109B
:1020C00001F8058094F86A00401C84F86A0082A038
:1020D000FFF761FA3878317AC0F3C003C1F3C00268
:1020E00093421BD062F3C300387008070AD594F8F6
:1020F0006A100320485594F86A00401C84F86A006E
:102100007CA009E094F86A100420485594F86A000D
:10211000401C84F86A007FA0FFF73DFA3878317AD6
:10212000C0F30013C1F3001293421BD062F30410FA
:102130003870C8060AD594F86A100520485594F8F6
:102140006A00401C84F86A007AA009E094F86A10DA
:102150000620485594F86A00401C84F86A007DA067
:10216000FFF719FA3978307AC1F34013C0F34012FF
:1021700093421BD062F34511397080060AD594F85A
:102180006A100720485594F86A00401C84F86A00D9
:1021900079A009E094F86A100820485594F86A007C
:1021A000401C84F86A007BA0FFF7F5F97878717A13
:1021B000C0F3C003C1F3C00293421BD062F3C3005B
:1021C000787008070AD594F86A100B20485594F8DF
:1021D0006A00401C84F86A0076A009E094F86A104E
:1021E0000C20485594F86A00401C84F86A0078A0D6
:1021F000FFF7D1F97878727AC0F30013C2F30011B7
:102200008B421BD061F304107870D0060AD594F885
:102210006A100920485594F86A00401C84F86A0046
:1022200073A009E094F86A100A20485594F86A00EF
:10223000401C84F86A0075A0FFF7ADF914F86A1F16
:102240000D2048552078401C2070707A00F007015E
:1022500084F83C1074A0FFF79EF904F86A8C002003
:102260001BE700004A000020B00200204F6E426FC2
:10227000617264696E673A20536F66744150206FD3
:102280007220576562206D6F64650A004F6E426F61
:10229000617264696E673A204169724C696E6B20A5
:1022A0006D6F64650A00000067697A50726F746F21
:1022B000636F6C4D6F64756C6553746174757320D6
:1022C0004572726F72202C20496C6C6567616C20BE
:1022D000506172616D0A00004F6E426F61726469F5
:1022E0006E673A2053746174696F6E206D6F646518
:1022F0000A00000057694669207374617475733A67
:1023000020696E2062696E64696E67206D6F646516
:102310000A00000057694669207374617475733A46
:10232000206F75742062696E64696E67206D6F64DA
:10233000650A000057694669207374617475733AC1
:1023400020636F6E6E656374656420726F7574656B
:10235000720A000057694669207374617475733A94
:1023600020646973636F6E6E656374656420726F59
:10237000757465720A0000005769466920737461BC
:102380007475733A20636F6E6E6563746564206D57
:10239000326D0A0057694669207374617475733A27
:1023A00020646973636F6E6E6563746564206D325B
:1023B0006D0A000057694669207374617475733A39
:1023C0002061707020636F6E6E6563740A00000098
:1023D00057694669207374617475733A206E6F2073
:1023E00061707020636F6E6E6563740A0000000098
:1023F00057694669207374617475733A20696E2059
:1024000074657374206D6F64650A000057694669CE
:10241000207374617475733A206F757420746573DA
:1024200074206D6F64650A0052535349206973200C
:102430002564200A0000000010B510B3144982681A
:10244000134C41F8272FC2684A60028A0A81807CB7
:10245000803C8872B4F8A7006B34FFF734F9A0878A
:10246000606CFFF738F96064A27C04F113000E2160
:102470001154A07C401CA074042004F86B0C0020B4
:1024800010BD04A0FFF787F84FF0FF3010BD00002B
:10249000300300204552523A204E54502069732098
:1024A000656D707479200A0010B50D4C94F83A00EF
:1024B000002813D00BA0FFF76EF8B4F8511004F108
:1024C0003B0000F095FDB4F85110814202D00DA000
:1024D000FFF761F8FFF72AFAC4F8530010BD0000B7
:1024E000B00200205761726E696E673A2074696DA0
:1024F000656F75742C20726573656E6420646174F9
:1025000061200A004552523A20726573656E64205C
:1025100064617461206572726F720A0010B5030005
:102520004FF0000003D011B10222491E05E0002047
:1025300010BD9C5C521C2044C0B28A42F9D310BD2D
:1025400070B50C46050016D01E210E48FDF734FE6E
:102550000C4822462946801CFDF715FE094D012036
:10256000393DA5F8514085F83A003B35FFF7DEF9D3
:10257000A861002070BD04A0FFF70DF84FF0FF30F8
:1025800070BD0000E90200204552523A2064617497
:102590006120697320656D707479200A0000000065
:1025A00010B50A4958B109790079491C814204D112
:1025B00006481E21801EFDF7FFFD002010BD04A06F
:1025C000FEF7E9FF4FF0FF3010BD0000EB020020E6
:1025D0004552523A206461746120697320656D70C0
:1025E0007479200A0000000070B50C464FF0FF35EA
:1025F00060B10A460146064800F0B3FCA04204D090
:1026000004A000BFFEF7C7FF284670BD08A0F9E789
:10261000A40300204552523A204661696C6564204B
:10262000746F2072625772697465200A000000009E
:102630004552523A2067697A50757444617461203A
:1026400062756620697320656D707479200A0000D8
:10265000FEB516460C0005462CD06846FFF7B2FBC7
:1026600005208DF80400194850F8313F8DF80530E9
:102670005B1C03608DF808500720FFF724F8ADF8C5
:102680000200324621460DF10900FDF77CFD0B21C9
:102690006846FFF743FF8DF80A000B21684600F0FB
:1026A000A7FC04000CD5014609A0FEF774FF6FF0EB
:1026B0000100FEBD0DA0FEF76EFF4FF0FF30FEBD26
:1026C0000B216846FFF73CFF2046FEBDB00200200C
:1026D0004552523A20756172742077726974652090
:1026E0006572726F72202564200A000067697A5251
:1026F00065706F727444617461204572726F7220EC
:102700002C20496C6C6567616C20506172616D0AA8
:102710000000000070B50E46049D04464BB1114602
:102720003046FEF7DAFF06F0070128B1012808D08D
:1027300016E04FF0FF3070BD185D8D4028431855EE
:102740000EE0EAB2C1F10806F240FF20F040284056
:102750001D1988406E7816436E701A5D02431A5533
:10276000002070BD2DE9F0438DB01546149F8946B9
:10277000064600244FF0FF38DBB1D7B13A46194680
:102780006846FDF700FD012F05D939466846FEF77A
:10279000B3FF401C0DD029464846FEF79EFF0200BD
:1027A00068464FF0FF0309F0070106D0012A0BD05D
:1027B00017E040460DB0BDE8F083845DC5F1080028
:1027C000CC40C3401C400CE08219805D5478C1F1BC
:1027D0000802AD1AC5F10805EB401C40C840944002
:1027E00004432046E6E7000002484168491C416076
:1027F000704700003C0000202DE9FF410C46060018
:102800004FF0000502D00CB1244F42E04FF0FF30F2
:1028100004B0BDE8F08170194078122837D2DFE8A3
:1028200000F0363636363636361D1F363636362208
:1028300025323609DFF86480217808F1010818A0F4
:1028400088F80010FEF7A7FE98F80000012802D0D3
:10285000FEF7DCFA1BE0FEF7E5FA18E0012000E0E5
:102860000020387013E0217815A00EE02079A279BD
:102870006179A3688DE80F00E378A278218813A01E
:10288000FEF789FE03E021781BA0FEF784FE6D1C95
:10289000EDB23078A842BED80020B9E73C00002055
:1028A0004576743A204556454E545F4C65645374E2
:1028B00061747573466C6167202564200A0000000E
:1028C000525353492025640A0000000057494649E5
:1028D0005F4E5450203A205B25642D25642D2564DD
:1028E00020253032643A253032643A253032645D36
:1028F0005B25645D200A00006D6F64756C6554791A
:102900007065203A205B25645D200A000EB568469C
:10291000FFF758FA114917208DF8040051F8310FCC
:102920008DF80500401C08600520FEF7CCFEADF8D0
:10293000020009216846FFF7F1FD8DF80800092122
:10294000684600F055FB010002D505A0FEF723FE06
:1029500009216846FFF7F4FD0EBD0000B00200201B
:102960004552525B4E54505D3A2075617274207727
:1029700072697465206572726F72202564200A0086
:102980002DE9F0474FF000058EB05FEA000A2E46B1
:10299000ADF80450A9462F4602950ED0FEF7CCFFA5
:1029A000834C01AA611C04F1F400FFF75BF904F108
:1029B000B30850B1801C70D0AEE07EA0FEF7EBFDF6
:1029C0004FF0FF300EB0BDE8F08784A0FEF7E3FDC6
:1029D000FEF7ACFF0146BDF8042085A0FEF7DBFD45
:1029E00006E06019417887A0FEF7D5FD6D1CADB2F9
:1029F000BDF804008542F4D384A0FEF7CCFD6079D5
:102A0000651C0F284ED00ADC0E2816D2DFE800F035
:102A1000151B151F1515463A15154615463E18285F
:102A200059D006DC112877D014284FD0162804D1AD
:102A300034E0222857D02A2830D002212846FFF738
:102A400005F873A066E02846FFF750F864E0EA79DD
:102A5000A97975A0FEF79FFD02A80090BDF80400BB
:102A6000E119C21B03AB48460931093AFFF760FA86
:102A7000002851D1EB7903A92846029AFFF7C8F93B
:102A80006DA047E02846FEF795FF45E02846FEF793
:102A900091FF2846FFF7C6FA3EE047E02846FFF7D9
:102AA0007FFD39E02846FEF785FF66A0FEF773FD3F
:102AB000FEF73CFF05464FF4167700BFFEF736FFE2
:102AC000401BB842FAD900F0D3F925E02846FFF7B9
:102AD00067FD61A01EE02846FFF762FD2846FFF76C
:102AE000ABFC65A016E02846FFF75AFD412205F130
:102AF00008014046FDF747FB2D4894F8902091309F
:102B00000F21115494F89000401C84F89000052087
:102B100020705FA0FEF73FFD254D20785735062831
:102B20002BD2DFE800F02A0D17222F3A601C01217A
:102B3000FEF78CFF5DA0FEF72EFD6FF0010041E770
:102B40001B4926700122A4312846FFF755FE1321A8
:102B5000284607E016490122A6312670A1F13C0063
:102B6000044616E0FDF728FB07E011492670D4F86B
:102B70002D2017312846FFF73FFE5046FEF77AFE1C
:102B800000201FE70A492670A731A1F12A000C2274
:102B90000446FFF731FE132108E005482670903007
:102BA000412241460446FFF727FE41212046D9E74E
:102BB000B002002047697A7769747348616E646C6B
:102BC00065204572726F72202C20496C6C656761BC
:102BD0006C20506172616D0A00000000476574202E
:102BE0004F6E65205061636B6574210A0000000020
:102BF00057694669324D43555B2534643A25346440
:102C00005D3A200025303278200000000A000000E4
:102C10004552523A20636D6420636F64652065728B
:102C2000726F72210A000000666C616720257820AF
:102C30002578200A0000000041636B446174612024
:102C40003A200A007265706F72743A4D43552072D3
:102C500065626F6F74210A0041636B2050524F44CC
:102C6000554354494F4E5F4D4F4445207375636340
:102C7000657373200A00000041636B204745545F71
:102C80005554542073756363657373200A00000004
:102C900041636B204745545F4D6F64756C652073CD
:102CA000756363657373200A000000004552523A51
:102CB00020636865636B2073756D206572726F7237
:102CC000210A00000B4810B52C21016000F1100111
:102CD000C16000F0FEF850B107A000BFFEF75BFC3A
:102CE0000448F421BDE81040F438FDF765BA07A0A8
:102CF000F4E70000A403002072624372656174650A
:102D0000204661696C64200A000000007262437210
:102D1000656174652053756363657373200A0000F1
:102D2000F0B506460025364C092787B0062E60D23E
:102D3000DFE806F0030D0D35555A6846FFF742F8F7
:102D40000B2030E001462FA0FEF725FC44E003A84D
:102D5000FFF738F88DF8107054F8310F8DF8110026
:102D6000401C20608DF814600620FEF7ACFCADF826
:102D70000E000A2103A8FFF7D1FB8DF815000A21E8
:102D800003A800F035F9050003D501461DA0FEF7A4
:102D900002FC0A210DF10C00FFF7D2FB2CE0684683
:102DA000FFF710F813208DF8040054F8310F8DF858
:102DB0000500401C20600520FEF785FCADF80200F0
:102DC00009216846FFF7AAFB8DF80800092168462B
:102DD00000F00EF90500B5D409216846DCE7684625
:102DE000FEF7F0FF1520DEE76846FEF7EBFF29202F
:102DF000D9E70BA0FEF7CFFB07B02846F0BD0000D7
:102E0000B00200204552523A2075617274207772E8
:102E1000697465206572726F72202564200A000053
:102E20004552523A204366674D6F64652065727261
:102E30006F72210A00000000FDF7F2FE122207A1C6
:102E40000020FDF76FFFFEF7C9FBFEF799FA00BF00
:102E5000FEF778FAFEF7A0FBFAE7000053797374E7
:102E6000656D5F52756E6E696E672E2E2E000000C6
:102E7000012080F31388FEE700B5010006D04A6800
:102E80008868824205D14FF0000000BD4FF0FF304E
:102E900000BD02D2A0EB020000BD084600F013F80E
:102EA0004A688968511A401A00BD00B5010007D070
:102EB00000F009F803460846FFF7DEFF181A00BDC8
:102EC0004FF0FF3000BD08B1006870474FF0FF3091
:102ED000704720B1C16841608160002070474FF0A9
:102EE000FF3070472DE9F041040015460F464FF0C2
:102EF000FF3020D0002F1ED06068A1688842204695
:102F000009D2FFF7B9FFA84203D82046FFF7B4FF64
:102F10000546616807E0FFF7D6FF6168E2688A1A34
:102F2000801AA84209D92A463846FDF72CF960686C
:102F3000284460602846BDE8F0812046FFF7C3FFC3
:102F40006168E2688A1A861A32463846FDF71BF92C
:102F5000E0686060AA1BB9192046FFF7C3FF304440
:102F6000E9E72DE9F04115460F46040008D03FB1CE
:102F7000FFF79BFFA84206D86FF00100BDE8F08183
:102F80004FF0FF30FAE76168A068814229D82046F7
:102F9000FFF799FF0146A068E268821A8E1AB542CF
:102FA00012D82A463946FDF7EEF8A0682844A060FA
:102FB0002046FFF788FF0146E068A268014491427D
:102FC00000D1A0602846D9E732463946FDF7DBF844
:102FD000E068A060AA1BB9192046FFF7C2FF304481
:102FE000CCE72A463946FDF7CEF8A0682844E8E742
:102FF000F8B5050024A00E4600684FF000040090CC
:1030000005D00B2221A10020FDF78CFE1BE04FF024
:10301000FF30F8BD2F1901213846FEF762F9394615
:1030200001220020FDF77EFE022C0BD3285DFF2835
:1030300008D101216846FEF754F9012269460020B3
:10304000FDF770FE641CB442E4D3022212A10020FA
:10305000FDF768FE11483246416811A0FEF79BFA61
:1030600000240DE0295D13A0FEF795FA022C06D38B
:10307000285DFF2803D155210EA0FEF78CFA641CB1
:10308000B442EFD33046F8BD550000000A57494618
:10309000492054783A2000000A0000003C0000203B
:1030A0004D435532576946695B2534643A2534648B
:1030B0005D3A2000253032782000000010B5FDF781
:1030C0008BFB024900B10120087010BD3D000020BB
:1030D00001480021417070473C000020E3070606CC
:1030E000101E1E041F1C1F1E1F1E1F1F1E1F1E1F23
:1030F00000030306010406020500030500000000AA
:10310000000C01401000000801030000080000004E
:1031100001000000000C014010000200010300004B
:103120000800000002000000000C014048000004FC
:103130000203000008000000030000000008014036
:103140001800000201030000040000000400000059
:103150000008014004000004020300000400000015
:1031600005000000000801401800040001030000F1
:1031700004000000060000000008014004000800F0
:1031800002030000040000000000000000400000F6
:10319000003801402503030000C2010000000000C8
:1031A000000000000C000000010000000000020010
:1031B000004400402602030000C20100000000009D
:1031C000000000000C000000E831000800000020B2
:1031D00070000000A8160008583200087000002097
:1031E00070090000B8160008000000000000000090
:1031F00000000000000000000000000000000000CF
:10320000440000000000000000000000000000007A
:103210000000000000000000FF00000000000000AF
:10322000000000000000000000000000000000009E
:10323000000000000000000000000000000000008E
:10324000000000020406080000000001020304015F
:0832500002030406070809004F
:04000005080000ED02
:00000001FF
