:020000040800F2
:10000000E009002001010008A5110008691100089D
:100010009B11000891020008E51A0008000000008A
:10002000000000000000000000000000CD150008E6
:10003000F502000800000000A91200086917000876
:10004000EF1A0008911200081B1800081915000883
:100050005F08000855140008190800082D0800085A
:1000600037080008410800084B080008AF020008E4
:10007000B9020008C3020008CD020008D702000838
:10008000E1020008EB02000831020008D11A000862
:10009000DB1A00089B020008A502000855080008AA
:1000A0002518000843180008391800082F18000800
:1000B0004D18000857180008611800087D11000845
:1000C000731100089111000887110008B915000884
:1000D000C31500086B180008751800087F18000881
:1000E00023080008B1140008C71A0008DFF80CD074
:1000F00000F08CF80048004745390008E00900206E
:100100000648804706480047FEE7FEE7FEE7FEE7B1
:10011000FEE7FEE7FEE7FEE7FEE7FEE775170008ED
:10012000ED0000082DE9F05F0546002092469B4651
:1001300088460646814640241BE0284641464746FD
:10014000224600F053F853465A46C01A914110D344
:1001500011461846224600F03AF82D1A67EB0108BE
:100160004F4622460120002100F031F817EB00092C
:100170004E41201EA4F10104DFDC484631462A46E8
:100180004346BDE8F09F40EA01039B0703D009E026
:1001900008C9121F08C0042AFAD203E011F8013B73
:1001A00000F8013B521EF9D27047D2B201E000F8CC
:1001B000012B491EFBD270470022F6E710B513460B
:1001C0000A4604461946FFF7F0FF204610BD202AD4
:1001D00004DB203A00FA02F1002070479140C2F19E
:1001E000200320FA03F3194390407047202A04DBD0
:1001F000203A21FA02F00021704721FA02F3D040A0
:10020000C2F120029140084319467047064C074D41
:1002100006E0E06840F0010394E8070098471034D6
:10022000AC42F6D3FFF766FF203D0008403D0008D2
:1002300010B51A2000F08EFE10BD10B501F0C8FCFC
:1002400001F0EAFA10BD10B5012001F075F80020A8
:1002500001F072F810BD000008B5014600200090C2
:10026000034800900098084400900098008808BD5A
:10027000006C004008B500220092044A0092009AE7
:1002800002440092009A116008BD0000006C00401A
:1002900010B5032000F05EFE10BD10B51D2000F06B
:1002A00059FE10BD10B51E2000F054FE10BD10B553
:1002B000132000F04FFE10BD10B5142000F04AFED0
:1002C00010BD10B5152000F045FE10BD10B516206C
:1002D00000F040FE10BD10B5172000F03BFE10BD31
:1002E00010B5182000F036FE10BD10B5192000F032
:1002F00031FE10BD10B5062000F02CFE10BD000030
:100300000848006840F080700649086000200649EF
:1003100048600846006840F0010008600120034979
:1003200008707047FCED00E0001000E05000002075
:1003300000B585B014216846FFF73EFF684601F01E
:1003400001F8019805B000BD014840687047000001
:10035000001000E038B50020009000242A4D00BFB6
:100360004CE004EB840105EB81010869012100F0F8
:10037000C3FF04EB840005EB80004089ADF800006A
:1003800004EB840005EB8000007A8DF8030004EB99
:10039000840005EB8000407B8DF8020004EB8401B3
:1003A00005EB81014868694600F05EFA04EB8400C1
:1003B00005EB8000007B01280CD104EB840205EBE7
:1003C0008202518904EB840205EB8202506800F03E
:1003D000E1FA11E004EB840005EB8000007B58B9E2
:1003E00004EB840205EB8202518904EB840205EBE5
:1003F0008202506800F0CCFA601CC4B2072CB0DB5B
:1004000001200249087038BD543C0008510000200A
:1004100070B504460C4D002604EB840005EB80000B
:10042000007B022801D0042070BD04EB840205EBA0
:100430008202518904EB840205EB8202506800F0CD
:100440009EFA06463046EFE7543C000870B5044675
:100450000E46134D04EB840005EB8000007B022860
:1004600000D170BD012E0CD104EB840205EB820299
:10047000518904EB840205EB8202506800F08AFA8D
:100480000CE05EB904EB840205EB8202518904EBB7
:10049000840205EB8202506800F07AFA00BFE0E7C0
:1004A000543C000870B504460025064901EB441190
:1004B000886840F2255101F041FA00B10125284633
:1004C00070BD0000E03C000870B5044600250649F8
:1004D00001EB4411886840F2277101F02FFA00B156
:1004E0000125284670BD0000E03C000800220021E4
:1004F00000BF05E0FF2200BF521E002AFCD1491CAC
:100500008142F7D3704700000020034908880004A7
:10051000091D0988084470471828004010B50024B8
:1005200001214FF0C05000F0C7FE012000F0B6FEE0
:100530000420FFF791FE45F25001884245D0FFF7B5
:1005400082FE012000F08CFF00BF601CC4B20A20B4
:10055000FFF7CCFFFA2C00DB04E0412000F05CFF49
:100560000028F2D000BFFA2C04DB4FF4407000F0FA
:1005700097FF03E04FF4007000F092FF012000F0BD
:1005800089FF00F0FDFF01F005F80121084600F0A9
:10059000C9FF00F0F5FF00F099FFFA2C04DB4FF2E1
:1005A000234000F0DDFF03E047F6FF7000F0D8FFC6
:1005B00000F0E6FF002000F03BF800F091FF45F26C
:1005C00050010420FFF756FE07E000F0E3FF012191
:1005D000084600F0A7FF00F0D3FF00F011F810BDAF
:1005E00010B5012000F086FF08B1012010BD0020E9
:1005F000FCE710B5052000F061FF00F0C1FF10BD61
:100600001CB500200190094800680190009003206B
:100610008DF8000000208DF801008DF80200012007
:100620008DF80300684600F0C3FD1CBD5300002098
:1006300010B5044601214FF0C05000F03DFE0120EE
:1006400000F02CFE204600F07DFF00F099FF10BD69
:1006500030B585B000200190029003900490009086
:1006600000243E4D00BF71E005EB441080683C491A
:10067000884211D005EB441080683A4988420BD07B
:1006800005EB441080683849884205D005EB4410DA
:1006900080683649884206D105EB4411486801213B
:1006A00000F00AFE05E005EB44114868012100F066
:1006B00023FE05EB4411886801F0F2F805EB4410C5
:1006C000007B8DF8000005EB4410407B8DF80100A5
:1006D00005EB4410807B8DF8020001208DF80300AB
:1006E000684600F065FD05EB44100069019005EBDC
:1006F0004410808AADF8080005EB4410C08AADF8BC
:100700000A0005EB4410008BADF80C0005EB44101B
:10071000408BADF8100005EB4410808BADF80E0057
:1007200005EB4411886801A901F058F905EB441163
:100730000122886840F2255101F02AF905EB4411A5
:100740008868012101F0A0F8601CC4B2022C8BDB88
:1007500001200749087005B030BD0000E03C0008EA
:100760000044004000480040004C00400050004061
:100770005200002010B50446034901EB441188687B
:1007800001F098F9C0B210BDE03C000810B5044675
:10079000044901EB44110022886840F2255101F020
:1007A000F7F810BDE03C000810B50446044901EB21
:1007B00044110122886840F2255101F0E9F810BD8A
:1007C000E03C000810B50446044901EB4411002246
:1007D000886840F2277101F0DBF810BDE03C0008AA
:1007E00010B50446044901EB44110122886840F227
:1007F000277101F0CDF810BDE03C000870B504464B
:100800000D46044901EB44118868294601F057F967
:1008100070BD0000E03C000810B50E2000F09AFB0F
:1008200010BD10B5302000F095FB10BD10B50F20A5
:1008300000F090FB10BD10B5102000F08BFB10BD38
:1008400010B5112000F086FB10BD10B5122000F08D
:1008500081FB10BD10B51F2000F07CFB10BD10B552
:100860000C2000F077FB10BD2DE9F0410246002579
:100870000026002000230024002791F803C00CF07C
:100880000F0591F803C00CF0100CBCF1000F03D061
:1008900091F802C04CEA050591F800C0BCF1000FC8
:1008A00031D0146800202BE04FF0010C0CFA00F35B
:1008B000B1F800C00CEA03069E4220D183004FF03D
:1008C0000F0C0CFA03F7BC4305FA03FC4CEA0404D2
:1008D00091F803C0BCF1280F06D14FF0010C0CFABF
:1008E00000FCC2F814C00AE091F803C0BCF1480F44
:1008F00005D14FF0010C0CFA00FCC2F810C0401CEE
:100900000828D1D31460B1F800C0BCF1FF0F34DD6A
:10091000546800202EE000F1080C4FF0010808FA9E
:100920000CF3B1F800C00CEA03069E4221D183000B
:100930004FF00F0C0CFA03F7BC4305FA03FC4CEA2A
:10094000040491F803C0BCF1280F05D100F1080C94
:1009500008FA0CF8C2F8148091F803C0BCF1480FF3
:1009600007D100F1080C4FF0010808FA0CF8C2F8A2
:100970001080401C0828CED35460BDE8F0810246A8
:10098000002093680B400BB1012000E0002070476D
:1009900041617047016170470146024810F811003B
:1009A00070470000360000200021024A02F81010B3
:1009B000704700003600002003480068401C0249D0
:1009C000086072B6704700001800002006480068F2
:1009D00020B105480068401E0349086002480068CD
:1009E00000B962B670470000180000200448006893
:1009F00010B103480068804772B600BFFEE70000F0
:100A00001C0000200146024800EB4100407870477E
:100A100036000020014800787047000021000020C7
:100A200010B5FFF797FC10BD70B5002400260D4DE2
:100A300000BF13E0A01CC6B23046FFF7E9FC30B996
:100A4000285DFF2805DA285D401C285501E00020BC
:100A50002855204600F008F8601CC4B2012CE9DBE0
:100A600070BD00009C02002070B50446484D494E00
:100A700006EB44004078072874D2DFE800F0041148
:100A80002C474F566000285D032808DB012006EB49
:100A90004401487000F0F8FB291D41F8240062E091
:100AA000285D40B9022006EB4401487000F0ECFBE1
:100AB000291D41F82400291D51F8240000F0BAFB3B
:100AC0003549884206D3042006EB440148700120D2
:100AD00006F8140047E0291D51F8240000F0AAFB95
:100AE0002E49884206D3032006EB440148700120BA
:100AF00006F8140005F10C00005D30B9285D0328EC
:100B000003DB052006EB440148702CE016F81400C6
:100B100018B9002006EB4401487024E0285D18B99C
:100B2000002006EB440148701DE0285D30B9062026
:100B300006EB44014870012006F8140013E016F893
:100B4000140068B9002006EB44014870012105F14A
:100B50000C00015500F098FB05F1080141F8240054
:100B600001E0FFE700BF00BF05F10C00005D0128B8
:100B70000CD105F1080151F8240000F05BFB084995
:100B8000884203D3002105F10C00015570BD00001F
:100B90009C0200203600002040420F00F049020075
:100BA00080841E00F0B503460C4615460022002640
:100BB0000021642093FBF0F0C6B2642093FBF0F7B1
:100BC00000FB1730C1B2132E02DD01F16400C1B287
:100BD0000846CF1701EB977701EBA707BAB20720BA
:100BE00092FBF0F700FB172082B25719601EDFF866
:100BF00030C01CF80000384482B2CF1701EB977761
:100C0000BF10A1EB87071FB9032C01DA501E82B277
:100C1000072092FBF0F700FB1720C0B2F0BD0000E8
:100C2000403C00081CB50B4C0B4903C9CDE9000141
:100C30000A490B2000F060F9FFF770FC00F0A0F803
:100C4000208840F2E371884203DADDE9000100F018
:100C50002FF81CBD2C0000204C3C0008610C000843
:100C600010B5FFF7BDFC012801D100F089F8FFF7AE
:100C7000C0FC10BD0146CA1701EB92729210A1EBA5
:100C8000820292B9642091FBF0F200FB121050B97D
:100C90004FF4C87091FBF0F200FB121008B901206C
:100CA00070470020FCE70120FAE70020F8E7000089
:100CB00073B500250024BDF8000040F2B2718842EF
:100CC00005DBBDF8000040F63301884200DD7CBD45
:100CD00040F2B2750BE02846FFF7CCFF012802D1A5
:100CE0002348044401E023480444681C85B2BDF84D
:100CF0000000A842EFDC9DF80200401EC0B28DF853
:100D00000200002512E01C48405D40F2A321484348
:100D100004EBC014BDF80000FFF7ACFF012803D1BD
:100D2000012D01D115480444681C85B29DF80200CC
:100D3000A842E8DC9DF80300401E40F2A32148438E
:100D400004EBC0149DF80400C0EB4011C1EB00207F
:100D500004EB00149DF80500C0EB001004EB8004C8
:100D60009DF8060004442046FFF762FC00BFAEE792
:100D70000085E2018033E101343C0008805101002C
:100D80002DE9F041364DFFF7BFFB07460024002652
:100D90003448B7FBF0F434480088A04238D03249D8
:100DA0000C8040F2B2760FE0B0B2FFF763FF01288B
:100DB00007D1B4F5B77F02D3A4F5B77403E0761C6E
:100DC00005E0A4F26D14761CB4F5B67FECD800BF34
:100DD0002E80002615E0B0B2FFF74CFF012806D1A7
:100DE000012E04D11D2C01D31D3C09E00BE01F484E
:100DF000805DA04203D81D48805D241A00E002E017
:100E0000761C1C2CE7D200BF701CA870601CE87018
:100E10001448B7FBF0F100FB11744FF46160B4FBB0
:100E2000F0F028714FF46160B4FBF0F100FB114069
:100E30003C21B0FBF1F068714FF46160B4FBF0F15C
:100E400000FB11403C21B0FBF1F201FB1200A87144
:100E5000EA78A9782888FFF7A5FEE871BDE8F08157
:100E60002C0000208051010034000020343C000898
:100E700010B501210020FFF7E9FA10BD10B50021DF
:100E80000846FFF7E3FA10BD38B5184C184D00209E
:100E90000090FFF719FB012812D16946204600F0A7
:100EA00035FC022803D10020FFF78CFC08E06946DE
:100EB000204600F043FC9DF800100020FFF79EFC48
:100EC0000020FFF7EFFA01280ED10020FFF752FCB7
:100ED00000909DF80010284600F0F2FB05480068DD
:100EE00010B104480068804738BD00006C02002043
:100EF000840200202400002000B502460B46442A4C
:100F000006DAFFF759FD034840F82230FFF75EFD8F
:100F100000BD00006C00002010B50A4C00F02CF859
:100F200002202070FFF77CFD0320207000F036F8CF
:100F300004202070FFF776FE06202070FFF7E0F90E
:100F400010BD00001400002010B54FF4A06000F0A8
:100F500067F910BD70B50446002505480470442C9F
:100F600004DA044850F8245005B1A84770BD0000C9
:100F7000200000206C00002010B50024FFF7E4FFE3
:100F800000BF05E004492046FFF7B6FF601CC4B26D
:100F9000442CF7DB10BD0000ED09000810B500245B
:100FA00000BF1BE0C4EB0412134B03EB820104EB04
:100FB0004402124B03EB82003C2200F09AFBC4EB8C
:100FC00004120F4B03EB820104EB44020D4B03EBC5
:100FD00082003C2200F08DFB601CC4B2022CE1DBDD
:100FE00009492D20FFF788FF08492E20FFF784FFCD
:100FF000FFF72EFB10BD00007C0100206C020020DA
:10100000F401002084020020890E0008C9100008A5
:1010100070B504460D4600262046FFF7B7FB04EBEB
:101020004401064A02EB8100294600F06FFB0646A8
:101030002046FFF7B9FB304670BD00008402002057
:101040002DE9F84F0746884614460025002607EB91
:1010500047001C4901EB8009AA46002000900CB112
:101060003C2C03D903252846BDE8F88F3846FFF706
:10107000A9FB484600F044FB012800D18246002627
:1010800009E018F80610484600F01AFB054605B1BD
:1010900003E0701CC6B2A642F3DB00BFBAF1010F39
:1010A0000AD16946484600F049FB054625B99DF836
:1010B00000103846FFF7A2FB3846FFF791FB2846A1
:1010C000D2E700006C02002038B5184C184D002003
:1010D00000900120FFF7F8F9012812D16946204657
:1010E00000F014FB022803D10120FFF76BFB08E09E
:1010F0006946204600F022FB9DF800100120FFF712
:101100007DFB0120FFF7CEF901280DD1FFF732FB5F
:1011100000909DF80010284600F0D2FA05480068BB
:1011200010B104480068804738BD000078020020F4
:10113000900200202800002010B501210846FFF78A
:1011400085F900200149087010BD00002100002031
:1011500010B500210120FFF779F90120014908703D
:1011600010BD00002100002010B50120FFF7F2FEA5
:1011700010BD10B52820FFF7EDFE10BD10B52720DB
:10118000FFF7E8FE10BD10B52A20FFF7E3FE10BD03
:1011900010B52920FFF7DEFE10BD10B50220FFF7C5
:1011A000D9FE10BD10B50020FFF7D4FE10BD000021
:1011B00070B5002100230F22C47804B3154C2468B5
:1011C00004F4E064C4F5E064210AC1F10403CA40F8
:1011D000447804FA03F184781440214309010E4C49
:1011E0000678A155047804F01F050124AC40057869
:1011F0006D11AD0005F1E025C5F8004109E0047866
:1012000004F01F050124AC40044D0678761145F822
:10121000264070BD0CED00E000E400E080E100E05D
:1012200002490143024A1160704700000000FA05BC
:101230000CED00E02DE9704F834600F025F8824662
:1012400000BF00BFDA4502D9AAEB0B0A04E0CBF1DC
:10125000FF30504400F1010AFFF76AF80025044608
:10126000084A002320462946FEF75CFF8046424696
:101270000B4650460021FEF755FF06463046BDE8B6
:10128000708F000040420F0010B5FFF75DF810BDF1
:1012900010B50920FFF75EFE10BD0000014908628D
:1012A0007047000000000E42F02002490870FFF76E
:1012B0009DFB00002000002029B1064AD2690243AC
:1012C000044BDA6104E0034AD2698243014BDA61DC
:1012D000704700000010024029B1064A126902431B
:1012E000044B1A6104E0034A12698243014B1A61FC
:1012F000704700000010024029B1064A926902437B
:10130000044B9A6104E0034A92698243014B9A615B
:10131000704700000010024029B1064AD26802431B
:10132000044BDA6004E0034AD2688243014BDA607E
:10133000704700000010024001490860704700003B
:101340004004424230B500210022002400232D4DEC
:101350006D6805F00C0121B1042905D0082923D1BD
:1013600005E0294D056022E0274D05601FE0254D71
:101370006D6805F47012234D6D6805F48034022504
:1013800005EB92421CB9214D554305600BE01D4D04
:101390006D6805F400351DB11C4D5543056002E034
:1013A000194D5543056002E0174D056000BF00BFB1
:1013B000144D6D6805F0F0010909154D6B5C056869
:1013C000DD4045600F4D6D6805F4E061090A104D80
:1013D0006B5C4568DD4085600A4D6D6805F46051C1
:1013E000C90A0B4D6B5C4568DD40C560054D6D68F5
:1013F00005F44041890B074D6B5CC568B5FBF3F5FF
:10140000056130BD0010024000127A0000093D0065
:10141000570000206700002010B50146002200237D
:1014200000204A11012A02D1094C236806E0022A51
:1014300002D1074C236A01E0054C636A01F01F02E8
:10144000012494401C400CB1012000E0002010BD9C
:101450000010024010B50D20FFF77CFD10BD00000C
:1014600000210B4A11700A4A203A82F82010012804
:1014700002D0042808D103E00121054A117004E0DC
:101480000521034A117000E000BF00BF7047000053
:101490002010024001490860704700003C044242AD
:1014A0000249096A0143014A116270470010024073
:1014B00010B53120FFF74EFD10BD0000024909882C
:1014C0008143014A11807047042800400348008886
:1014D00040F01000014908807047000004280040D7
:1014E000034800884FF6EF710840014908807047B3
:1014F0000428004001460020064A12880A40D0B263
:10150000044A121F12880A4012B108B1012000E0FB
:10151000002070470428004010B50B20FFF71AFD8B
:1015200010BD000029B1064A12880243044B1A80FC
:1015300004E0034A12888243014B1A80704700007E
:101540000028004000B50246FFF7C0FF100C034919
:101550000880091D0A80FFF7C3FF00BD182800405E
:1015600000B50246FFF7B2FFC2F30340034908800B
:10157000091D0A80FFF7B4FF00BD000008280040E5
:1015800000BF0348008800F020000028F9D0704711
:1015900004280040074800884FF6F77108400549C5
:1015A000088000BF0348008800F008000028F9D038
:1015B000704700000428004010B52B20FFF7CAFC3C
:1015C00010BD10B52C20FFF7C5FC10BD10B50520CF
:1015D000FFF7C0FC10BD10B500F002F810BD000010
:1015E0000CB50020019000903348006840F4803032
:1015F0003149086000BF3048006800F400300090B6
:101600000198401C0190009818B90198B0F5A06F9E
:10161000F1D12948006800F4003010B10120009099
:1016200001E0002000900098012843D12348006881
:1016300040F01000214908600846006820F00300CF
:1016400008600846006840F0020008601A484068D8
:10165000194948600846406848600846406840F4B8
:10166000806048600846406820F47C104860084666
:10167000406840F4E81048600846006840F0807018
:10168000086000BF0C48006800F000700028F9D026
:101690000948406820F00300074948600846406850
:1016A00040F00200486000BF0348406800F00C00B2
:1016B0000828F9D10CBD00000010024000200240B3
:1016C00010B502460020137A547AA3420FDA536809
:1016D00054781955137A5B1C137253785B1C537042
:1016E0005378547AA34203DB0023537000E00120B7
:1016F00010BD002303704370416003724272704753
:10170000014600200A7A02B90120704710B502464E
:101710000020137A83B1536814781B5D0B70137823
:101720005B1C1370137A5B1E13721378547AA342F6
:1017300003DB0023137000E0022010BD10B5024649
:101740000020137A23B1536814781B5D0B7000E0FE
:10175000022010BD704770B504460D46EAB221461E
:101760000120FFF76DFC70BD10B50720FFF7F2FBFD
:1017700010BD000010B51348006840F00100114989
:10178000086008464068104908400E49486008460D
:1017900000680E4908400B4908600846006820F4BC
:1017A000802008600846406820F4FE0048604FF43E
:1017B0001F008860FFF70FFF4FF0006004490860CA
:1017C00010BD0000001002400000FFF8FFFFF6FE11
:1017D00008ED00E010B50D480068FFF72BFD0C493F
:1017E000884211D3FFF750FD084908600948007886
:1017F00028B9012007490870FFF740FB04E00020EA
:1018000004490870FFF734FB10BD00000000002001
:1018100020A1070004000020704710B50A20FFF740
:1018200099FB10BD10B52020FFF794FB10BD10B53B
:101830002320FFF78FFB10BD10B52220FFF78AFB96
:1018400010BD10B52120FFF785FB10BD10B5242079
:10185000FFF780FB10BD10B52520FFF77BFB10BD07
:1018600010B52620FFF776FB10BD10B52D20FFF731
:1018700071FB10BD10B52E20FFF76CFB10BD10B52D
:101880002F20FFF767FB10BD21B1828942F400527F
:10189000828104E082894DF6FF731A40828170478D
:1018A00010B504462048844209D101218803FFF77E
:1018B00033FD00214FF48040FFF72EFD32E01B483E
:1018C000844209D101214804FFF706FD00214FF4AD
:1018D0000030FFF701FD25E01548844209D10121C0
:1018E0008804FFF7F9FC00214FF48020FFF7F4FC97
:1018F00018E01048844209D10121C804FFF7ECFC2C
:1019000000214FF40020FFF7E7FC0BE00A48844277
:1019100008D101210805FFF7DFFC00214FF48010FA
:10192000FFF7DAFC10BD0000003801400044004021
:1019300000480040004C00400050004070B5024696
:10194000002400230025002040F66A16B14200D191
:1019500000BFC1F3421501F01F03012606FA03F38D
:10196000012D02D19689334006E0022D02D1168A5C
:10197000334001E0968A33400C12012606FA04F443
:101980001688344013B10CB1012000E0002070BD76
:10199000F0B50346002400260025002040F66A1713
:1019A000B94200D100BF1846C1F3421401F01F062E
:1019B000012707FA06F5012C01D10C3004E0022CB6
:1019C00001D1103000E014301AB107682F430760CE
:1019D00002E00768AF430760F0BD00002DE9F04763
:1019E00086B005460E460024A24600BFA146002749
:1019F000B08900B100BF2F462C8A4CF6FF7004401E
:101A0000F08804432C82AC894EF6F3100440B08871
:101A100031890843718908430443AC81AC8A4FF68D
:101A2000FF400440B0890443AC8201A8FFF78AFC60
:101A30001F48874202D1DDF810A001E0DDF80CA0BC
:101A4000A88900F4004040B10AEBCA0000EB0A107C
:101A500031684900B0FBF1F807E00AEBCA0000EB7F
:101A60000A1031688900B0FBF1F86420B8FBF0F08F
:101A700004012009642101FB1089A88900F40040B9
:101A800040B1322000EBC900B0FBF1F000F00700DC
:101A9000044308E0322000EB09106421B0FBF1F0B0
:101AA00000F00F0004432C8106B0BDE8F087000071
:101AB0000038014001468888C0F308007047C1F330
:101AC00008028280704710B53220FFF743FA10BD3C
:101AD00010B51B20FFF73EFA10BD10B51C20FFF714
:101AE00039FA10BD10B50420FFF734FA10BD10B557
:101AF0000820FFF72FFA10BD7047000010B5084806
:101B00000068FFF797FB0749884208D3FFF7BCFB43
:101B10000349086002F07AF8034801F0E9FB10BDC0
:101B200010000020A08601003D00002010B500201C
:101B3000FEF732FF01281DD10020FEF763FF0328C6
:101B400004D0042805D006280FD108E000F013F8CF
:101B50000CE0022001F0B2FDFFF7FAFA06E00020E7
:101B600001F0ACFDFFF7E8FA00E000BF00BF002085
:101B7000FEF71AFF10BD10B5FEF74CFF10B9FFF7C6
:101B8000E7FA01E0FFF7D8FA10BD000008B5002021
:101B9000009069460120FFF73BFA40B901216846F1
:101BA00001F034F9012269460020FFF749FA07489D
:101BB0000068FFF73FFB41F28831884205D3FFF709
:101BC00063FB0249086000F00BF808BD0800002024
:101BD00010B5FFF7BFFD01F041FD02F025F810BD83
:101BE00010B5002400BF03E001F054FA601CC4B239
:101BF000052CF9DBFEF718FFFFF798FFFFF77EFFD4
:101C000000F002F810BD000010B509480068FFF7A9
:101C100011FB0849884209D3FFF736FB04490860E5
:101C200000F00AF8012801D101F020FB10BD0000EE
:101C30000C00002080C3C9010148007870470000F3
:101C40003C00002002E008C8121F08C1002AFAD197
:101C500070477047002001E001C1121F002AFBD12C
:101C6000704701B581B000200090694601AA507804
:101C7000087010784870BDF800000CBD01460806D9
:101C800001F47F4240EA022001F47F0240EA122080
:101C900040EA11607047024612B102F0070028B90D
:101CA000082901D8002070470120FCE702F0070056
:101CB000C0F10800884201D30020F4E70120F2E7D8
:101CC00030B502460B460021002400250AB9481E03
:101CD00030BD002108E0545C581A401E155C555474
:101CE000581A401E1454491CB1EB530FF3D3002073
:101CF000EEE700002DE9F04104460D4600260027DE
:101D000004B135B90CA0FFF7F7FE4FF0FF30BDE886
:101D1000F08100F005F9074628782178884203D041
:101D20000FA0FFF7E9FE0126012E03D100F0F8F81D
:101D3000124908603046EAE767697A436865636B71
:101D40005265706F7274204572726F72202C204938
:101D50006C6C6567616C20506172616D0A000000F7
:101D600076616C75654C6564537461747573466C0B
:101D70006167204368616E6765640A004000002067
:101D8000F8B505460C4616460DB104B12EB910A0A3
:101D9000FFF7B2FE4FF0FF30F8BD287800F00100E9
:101DA00098B111212278601C81542078401C207049
:101DB00001206B1C024600210090084601F008F942
:101DC00008B1012000E0002030700020E4E70000AE
:101DD00067697A44617461506F696E7432457665E3
:101DE0006E74204572726F72202C20496C6C65678E
:101DF000616C20506172616D0A00000038B50546C3
:101E00000C4605B12CB90BA0FFF776FE4FF0FF3062
:101E100038BD002020702878234601220021009040
:101E2000084601F095F801212046FFF749FF002000
:101E3000EEE7000067697A44617461506F696E74FF
:101E400073325265706F72744461746120457272AE
:101E50006F72202C20496C6C6567616C2050617238
:101E6000616D0A0070B5044600F05AF805461D4938
:101E70002046FFF73FFF012813D11BA0FFF73CFED0
:101E80001849891E2046FFF7B9FF28B901221549D4
:101E9000891E042000F0F4FF1248A538217880F84C
:101EA000A5101748B5FBF0F100FB1150C8B9154853
:101EB0000068A84215D014A0FFF71EFE0949891E2C
:101EC0002046FFF79BFF28B901220649891E0420FE
:101ED00000F0D6FF0348A538217880F8A5100948FE
:101EE000056070BD510300206368616E6765642CF6
:101EF000207265706F727420646174610A00000062
:101F0000C027090044000020496E666F3A20363031
:101F10003053207265706F727420646174610A00BE
:101F200001480068704700003800002010B51748CD
:101F300090F83A00012827D1144890F83900022877
:101F40001DDAFFF7EDFF1149D1F85310401AC828E8
:101F50001AD9FFF7E5FF04460C4890F83930D0F85D
:101F6000532021460AA0FFF7C7FD00F0A7FE07484F
:101F700090F83900401C054981F8390004E01E2121
:101F800002483930FEF718F910BD0000AC020020FD
:101F90005761726E696E673A67697A50726F746FD3
:101FA000636F6C526573656E64446174612025646F
:101FB0002025642025640A003EB50446002524B986
:101FC00013A0FFF799FD681E3EBD20680090606871
:101FD00001909DF80400401CC0B28DF8040005205B
:101FE000FFF73FFEADF802000921684600F0A4FEAD
:101FF0008DF808000921684601F0A0FD0546002D76
:1020000003DA29460DA0FFF777FD2846DCE700003C
:102010004552523A2067697A50726F746F636F6CE1
:10202000436F6D6D6F6E41636B20646174612069F5
:102030007320656D707479200A0000004552523A91
:102040002075617274207772697465206572726F91
:1020500072202564200A0000FEB504460E460025C5
:1020600024B914A0FFF748FD681EFEBD684600F0C5
:10207000D7F912208DF8040060798DF8050006204C
:10208000FFF7EFFDADF802008DF808600A21684601
:1020900000F052FE8DF809000A21684601F04EFD5D
:1020A0000546002D03DA29460DA0FFF725FD284639
:1020B000DBE7000067697A50726F746F636F6C457D
:1020C00072726F72436D64204572726F72202C20A1
:1020D000496C6C6567616C20506172616D0A00002B
:1020E0004552523A20756172742077726974652086
:1020F0006572726F72202564200A000030B59DB0B1
:10210000044600252CB92BA0FFF7F6FC681E1DB075
:1021100030BD684600F084F902208DF80400607933
:102120008DF805002FA103C9CDE9020130A103C933
:10213000CDE9040131A103C9CDE9080132A103C9E8
:10214000CDE90601202233A10AA8FEF71CF82022BF
:1021500039A10DF15200FEF716F80020CDF84A0023
:10216000CDF84E009DF851008DF851009DF85100BA
:1021700040F002018DF851100020FFF772FDADF81C
:1021800048006F20FFF76DFDADF80200732168462F
:1021900000F0D2FD8DF872007321684601F0CEFC8C
:1021A0000546002D03DA29462CA0FFF7A5FC28469A
:1021B000ADE7000067697A50726F746F636F6C47A8
:1021C0006574446576696365496E666F2045727211
:1021D0006F72202C20496C6C6567616C20506172B5
:1021E000616D0A0030303030303030340000000093
:1021F0003030303030303032000000003033303397
:102200003030303000000000303330313031303089
:10221000000000003966386437326238643632664E
:1022200034326632613937353835363735306639CC
:1022300066616463000000003361653264613539B2
:1022400035616335343138303930346436343232C4
:102250003835383531663534000000004552523A81
:102260002075617274207772697465206572726F6F
:1022700072202564200A00002DE9FE4F80460E469C
:1022800017464FF0000B0020029081468246002541
:1022900034460090B8F1000F01D006B137B950A014
:1022A000FFF72AFC4FF0FF30BDE8FE8F404601F0FB
:1022B00069FB00F0FF0ABAF1000F02D14FF0FF30C6
:1022C000F2E74FF000095DE0012201A9404601F06C
:1022D00096FB8346BBF1000F52D04D480078FF2893
:1022E0001FD19DF80400FF281BD14A48007848B947
:1022F000FF20207060700220474908800120454976
:10230000087034E044480088042830DD42480088E2
:10231000A8422CD0FF202070607002203E49088027
:1023200025E03B480078FF2803D19DF8040055289C
:102330001DD038480078012819D19DF8040036498D
:102340000988605434480088401C33490880084696
:10235000008804280BDD0094009C6088FFF781FC56
:10236000001D85B22C480088A84200D10CE09DF8E1
:1023700004002749087029480078401C2749087044
:1023800009F10109D1459FDB00BF234800880428DB
:1023900023DD21480088A8421FD11F48018820461C
:1023A00000F0CAFC02901C480088401E215C029884
:1023B00081420FD12A4621463046FDF7E4FE3D809A
:1023C0000020144908701449088014490870104905
:1023D000087069E76FF0010066E7012064E700001C
:1023E00067697A50726F746F636F6C4765744F6E74
:1023F000655061636B6574204572726F72202C208A
:10240000496C6C6567616C20506172616D0A0000F7
:102410004C000020480000204A0000204D00002011
:1024200010B504462CB907A0FFF766FB4FF0FF304C
:1024300010BD002020606060FF20207060700020D0
:10244000F6E700004552523A2067697A50726F747D
:102450006F636F6C48656164496E6974206865617B
:102460006420697320656D707479200A0000000093
:102470002DE9F04F8DB006468B4617469946002051
:102480000C9082468046002501ACBBF1000F06D1BE
:1024900031A0FFF731FB681E0DB0BDE8F08FB9F138
:1024A000010F06D196F8088008F10600384485B27D
:1024B00001E0781D85B22B46424639462CA0FFF735
:1024C0001BFBFF2004F8010B04F8010B281204F891
:1024D000010B04F8015B3079401C04F8010B7079A2
:1024E00004F8010B002004F8010B04F8019B4FF0E5
:1024F000080AB9F1010F0DD104F8018B0AF1010AA4
:1025000001A901EB0A00424606F10901FDF73BFE75
:10251000C244444437B101A901EB0A003A46594686
:10252000FDF731FE291D01A800F006FC0146E81C5C
:1025300001AA1154291D01A801F000FB0C900C9870
:10254000002806DA14A00C99FFF7D6FA6FF0010004
:10255000A2E70020A0E700005B4552525D20206406
:10256000617461204973204E756C6C200A00000074
:102570006C656E203D202564202C20734469644CDA
:10258000656E203D202564202C646174615F6C655C
:102590006E203D2025640A0075617274207772698F
:1025A0007465206572726F72202564200A00000035
:1025B0002DE9F04780460C4617461D46089E94F8C4
:1025C00000900CB105B136B92EA0FFF795FA4FF087
:1025D000FF30BDE8F087B8F1000F51D11321354825
:1025E000FDF7EAFDB9F1010F06D0B9F1020F11D0E4
:1025F000B9F1050F42D121E02E4A4D322D49601C20
:10260000FFF7BEFB01202B49573908700025002039
:10261000306034E027494C31881CFFF7EFFB48B9A4
:102620002448573890F8A3006870032028700220CF
:10263000306002E04FF0FF30CBE720E07A1E611CF3
:102640001C484038FDF79FFD781E1A495739C1F8DC
:102650002D0010211748573890F8572058308154D2
:10266000583890F85700401C1249573981F85700E4
:102670000320087000250020306000E000BF00BF8C
:102680000020A6E767697A50726F746F636F6C49B8
:10269000737375656450726F6365737320457272EE
:1026A0006F72202C20496C6C6567616C20506172E0
:1026B000616D0A000303002070B5044625462CB95D
:1026C0000FA0FFF719FA4FF0FF3070BD412205F15E
:1026D00008010F48FDF757FD0F210D48B33890F85A
:1026E000902091308154913890F89000401C084916
:1026F000B33981F89000052008700020E5E700005C
:102700004E545020697320656D707479200A000062
:102710005F03002010B504462CB9CAA0FFF7ECF9FE
:102720004FF0FF3010BD2089FFF79BFA2081D14880
:102730000078C0F38000217AC1F38001884256D02E
:10274000207AC0F38000002829D0207A00F0010010
:1027500078B10021C84890F86A206B3081546B38FA
:1027600090F86A00401CC44981F86A00C3A0FFF7D2
:10277000C3F9207AC0F34000002838D00121BE48B8
:1027800090F86A206B3081546B3890F86A00401CD6
:10279000B94981F86A00C1A0FFF7AEF927E0207AB5
:1027A00000F0010078B10021B34890F86A206B3046
:1027B00081546B3890F86A00401CAF4981F86A0078
:1027C000AEA0FFF799F9207AC0F3400078B102215A
:1027D000A94890F86A206B3081546B3890F86A00F1
:1027E000401CA54981F86A00B3A0FFF785F9A1480C
:1027F0000078C0F3C000217AC1F3C00188422CD018
:10280000207AC1089B48007861F3C3009949087099
:10281000207AC0F3C00080B10321974890F86A2065
:102820006B3081546B3890F86A00401C924981F8F3
:102830006A00A8A0FFF760F90FE004218E4890F825
:102840006A206B3081546B3890F86A00401C8A49CA
:1028500081F86A00A7A0FFF74FF986480078C0F317
:102860000010217AC1F3001188422CD0207A01098E
:102870008048007861F304107E490870207AC0F324
:10288000001080B105217C4890F86A206B3081549B
:102890006B3890F86A00401C774981F86A009DA067
:1028A000FFF72AF90FE00621734890F86A206B3091
:1028B00081546B3890F86A00401C6F4981F86A00B7
:1028C0009CA0FFF719F96B480078C0F34010217AFB
:1028D000C1F3401188422CD0207A41096548007824
:1028E00061F3451063490870207AC0F3401080B14D
:1028F0000721614890F86A206B3081546B3890F85A
:102900006A00401C5C4981F86A0093A0FFF7F4F864
:102910000FE00821584890F86A206B3081546B38DA
:1029200090F86A00401C544981F86A0091A0FFF7B2
:10293000E3F850484078C0F3C001607AC0F3C000AB
:1029400081422CD0607AC1084A48407861F3C300C4
:1029500048494870607AC0F3C00080B10B214648F6
:1029600090F86A206B3081546B3890F86A00401CF4
:10297000414981F86A0087A0FFF7BEF80FE00C21FB
:102980003D4890F86A206B3081546B3890F86A00AB
:10299000401C394981F86A0085A0FFF7ADF8354839
:1029A0004078C0F30011607AC0F3001081422CD04F
:1029B000607A01092F48407861F304102D4948706E
:1029C000607AC0F3001080B109212B4890F86A208A
:1029D0006B3081546B3890F86A00401C264981F8AE
:1029E0006A007BA0FFF788F80FE00A21224890F8E0
:1029F0006A206B3081546B3890F86A00401C1E4985
:102A000081F86A0079A0FFF777F80D211A4890F84D
:102A10006A206B3081546B3890F86A00401C16496C
:102A200081F86A00607A00F0070081F8A600084685
:102A300090F8A61074A0FFF75FF802200E49087006
:102A400000206FE667697A50726F746F636F6C4D28
:102A50006F64756C65537461747573204572726F21
:102A600072202C20496C6C6567616C20506172612A
:102A70006D0A00004E000020AC0200204F6E426F35
:102A8000617264696E673A20536F66744150206FBB
:102A90007220576562206D6F64650A004F6E426F49
:102AA000617264696E673A204169724C696E6B208D
:102AB0006D6F64650A0000004F6E426F6172646959
:102AC0006E673A2053746174696F6E206D6F646530
:102AD0000A00000057694669207374617475733A7F
:102AE00020696E2062696E64696E67206D6F64652F
:102AF0000A00000057694669207374617475733A5F
:102B0000206F75742062696E64696E67206D6F64F2
:102B1000650A000057694669207374617475733AD9
:102B200020636F6E6E656374656420726F75746583
:102B3000720A000057694669207374617475733AAC
:102B400020646973636F6E6E656374656420726F71
:102B5000757465720A0000005769466920737461D4
:102B60007475733A20636F6E6E6563746564206D6F
:102B7000326D0A0057694669207374617475733A3F
:102B800020646973636F6E6E6563746564206D3273
:102B90006D0A000057694669207374617475733A51
:102BA0002061707020636F6E6E6563740A000000B0
:102BB00057694669207374617475733A206E6F208B
:102BC00061707020636F6E6E6563740A00000000B0
:102BD00057694669207374617475733A20696E2071
:102BE00074657374206D6F64650A000057694669E7
:102BF000207374617475733A206F757420746573F3
:102C000074206D6F64650A00525353492069732024
:102C10002564200A0000000070B5044625462CB942
:102C200019A0FEF769FF4FF0FF3070BD1B48A9687F
:102C30000160E9684160298A0181A97C8172A0F163
:102C4000A701B1F8A700FFF70CF81449A739A1F8BC
:102C5000A700D1F8AF00FFF711F81049A739C1F864
:102C6000AF000E210D48A73890F87D207E308154AA
:102C70007E3890F87D00401C0849A73981F87D0016
:102C8000042008700020D0E74552523A204E54509C
:102C900020697320656D707479200A005303002049
:102CA00010B5FFF73DF9044600BFFFF739F9001BE7
:102CB000B0F5167FF9D900F05FFE10BD10B5002405
:102CC0000E4890F83A0000B910BD0DA0FEF714FFB1
:102CD0000A48B0F851103B3000F030FF0446074876
:102CE000B0F85100A04202D00DA0FEF705FFFFF79B
:102CF00017F90249C1F8530000BFE5E7AC02002014
:102D00005761726E696E673A2074696D656F75748C
:102D10002C20726573656E642064617461200A0002
:102D20004552523A20726573656E64206461746125
:102D3000206572726F720A0010B5024600240023EB
:102D400002B109B9002010BD022303E0D05C204489
:102D5000C4B25B1C481E9842F8D82046F3E7000036
:102D600070B504460D462CB90FA0FEF7C5FE4FF016
:102D7000FF3070BD1E211248FDF71EFA2A4621467B
:102D80000F48801CFDF7FFF90D483938A0F8515065
:102D9000012180F83A10FFF7C3F809493939C1F821
:102DA00053000020E5E700004552523A2064617468
:102DB0006120697320656D707479200A000000003D
:102DC000E502002070B50446094D2CB909A0FEF7B4
:102DD00093FE4FF0FF3070BD2879401C2179884266
:102DE00004D11E210248801EFDF7E6F90020F2E71B
:102DF000E70200204552523A2064617461206973F1
:102E000020656D707479200A0000000070B50446DA
:102E10000D46002624B90AA0FEF76EFE701E70BD96
:102E20002A4621460E4800F03BFE0646AE4205D03B
:102E30000CA0FEF761FE4FF0FF30F0E73046EEE702
:102E40004552523A2067697A507574446174612022
:102E500062756620697320656D707479200A0000C0
:102E6000A00300204552523A204661696C656420F7
:102E7000746F2072625772697465200A0000000046
:102E8000FEB505460E461746002426B91EA0FEF7DD
:102E900033FE601EFEBD6846FFF7C2FA05208DF8BE
:102EA0000400234890F83110D0F83100401C204A2B
:102EB000C2F83100C8B28DF805008DF8085007201F
:102EC000FEF7CFFEADF802003A4631460DF109009B
:102ED000FDF759F90B216846FFF72EFF8DF80A0020
:102EE0000B21684600F02AFE0446002C06DA214633
:102EF00010A0FEF701FE6FF00100CBE70B21684642
:102F0000FFF72EFF2046C5E767697A5265706F723A
:102F10007444617461204572726F72202C20496C78
:102F20006C6567616C20506172616D0A0000000081
:102F3000AC0200204552523A2075617274207772BB
:102F4000697465206572726F72202564200A000022
:102F50002DE9F04704460D461746089E4FF000093C
:102F6000CA46C8461BB94FF0FF30BDE8F087394666
:102F70002846FEF790FE8046B8F1000F07D1185D95
:102F800005F0070106FA01F1084318551EE0B8F1F3
:102F9000010F1BD1F0B205F00701C1F1080140FAA1
:102FA00001F905F00700C0F10801FF20084100EA1F
:102FB000060A601C185C40EA0900611C5854185D40
:102FC00005F007010AFA01F1084318550020CCE783
:102FD0002DE9F04F8FB005460C4616469946189FCE
:102FE0004FF0000AD34600200E908046B9F1000F42
:102FF00000D027B94FF0FF300FB0BDE8F08F3A4650
:10300000494601A8FDF7BFF8012F09D9394601A8A3
:10301000FEF756FEB0F1FF3F02D14FF0FF30EBE775
:1030200031462046FEF737FE8246BAF1000F0CD13A
:1030300001A8405D04F007010841C6F10802FF2124
:103040001141084040EA080821E0BAF1010F1ED101
:1030500001A9681C085C04F00701C1F10801711A9C
:10306000C1F10802FF21114100EA010B01A8405DF6
:1030700004F0070108410E9004F00700C0F10801B8
:103080000BFA01F040EA08080E9848EA00084046AA
:10309000B2E7000002480068401C01490860704720
:1030A000380000202DE9F04F87B006460D469346C4
:1030B0004FF000082F46A9462C46002005900690A8
:1030C000AA4606B125B94FF0FF3007B0BDE8F08F32
:1030D0004FF000086FE0701C10F80800122864D24E
:1030E000DFE800F01B1C1D63631E1F202463636365
:1030F000632832572E09387831490870084601781C
:1031000030A0FEF7F9FC2E480078012802D1FEF726
:103110001FF801E0FEF710F848E047E046E045E020
:1031200044E043E001202F4908703FE000202D4992
:1031300008703BE099F800102BA0FEF7DDFC35E0AD
:103140002CA0FEF7D9FC31E0A17962792379A0683F
:10315000CDE90032CDE90210E378A27821882AA0D7
:10316000FEF7CAFC2088ADF81400A0788DF8160090
:10317000E0788DF8170020798DF8180060798DF8C7
:103180001900A0798DF81A00DDE90501FDF790FD21
:103190000CE028A0FEF7B0FC2BA0FEF7ADFC9AF8DF
:1031A00000102DA0FEF7A8FC00E000BF00BF08F152
:1031B000010000F0FF08307840458CDC002084E7F7
:1031C0003D0000204576743A204556454E545F4CEC
:1031D0006564537461747573466C6167202564205F
:1031E0000A0000003C000020525353492025640A85
:1031F000000000005452414E53504152454E545F1E
:1032000044415441200A0000574946495F4E5450FA
:10321000203A205B25642D25642D2564202530323D
:10322000643A253032643A253032645D5B25645D52
:10323000200A00004D4F44554C4520494E464F2032
:103240002E2E2E0A00000000574946204D4F4455AF
:103250004C45202E2E2E0A006D6F64756C655479D6
:103260007065203A205B25645D200A003EB500248D
:103270006846FFF7D5F817208DF80400134890F83A
:103280003110D0F83100401C104AC2F83100C8B2E9
:103290008DF805000520FEF7E4FCADF802000921D9
:1032A0006846FFF749FD8DF808000921684600F0DF
:1032B00045FC0446002C03DA214605A0FEF71CFC61
:1032C00009216846FFF74CFD3EBD0000AC0200201E
:1032D0004552525B4E54505D3A20756172742077AE
:1032E00072697465206572726F72202564200A000D
:1032F0002DE9F0478EB006460027002500200290F9
:10330000019000248146804636B98EA0FEF7F4FB7A
:10331000601E0EB0BDE8F087FEF708FE02AA9349D2
:103320009348FEF7A9FF0746002F70D191A0FEF742
:10333000E3FBFEF7F5FD8246BDF80820514692A05A
:10334000FEF7DAFB002506E08848415D93A0FEF712
:10335000D3FB681C85B2BDF808008542F4DB91A060
:10336000FEF7CAFB814C20790F2851D00ADC0E28C9
:1033700074D2DFE800F07316731A737344397373F1
:103380004573463D182854D006DC112849D014282E
:1033900048D0162862D135E0222854D02A285DD1A1
:1033A00031E02046FEF7AAFE60E0E279A1797EA036
:1033B000FEF7A2FB01A8009008F10900BDF8083053
:1033C0001A1A6A48083000EB080103AB4846FFF7B9
:1033D000EFF840B9E37903A92046019AFFF748F8CE
:1033E00075A0FEF789FB41E02046FEF7E5FD3DE0D4
:1033F0002046FEF7E1FD2046FFF78CF936E000BFDE
:1034000000BF00BF00BF2046FFF7DCFC2EE02EE02F
:103410002046FEF7D1FD6BA0FEF76EFBFFF740FCE8
:1034200024E023E02046FFF7CDFC6BA0FEF764FB11
:103430001CE02046FFF7C6FC2046FFF7EDFB6EA020
:10344000FEF75AFB12E02046FFF7BCFC2046FFF7D0
:1034500033F96FA0FEF750FB08E0FFE7022120469A
:10346000FEF7FAFD71A0FEF747FB00BF0DE017F174
:10347000020F0AD13D4C01212046FEF7EDFD71A05F
:10348000FEF73AFB6FF0010043E73848401E007832
:10349000062850D2DFE800F04F0313232F3F00200F
:1034A0003249491E08700122A431A1F14D00FFF7F5
:1034B000F9FD13212D485630FCF77EFE3CE000203C
:1034C0002A49491E08700122A631A1F13C00FFF7EC
:1034D000E9FD132125486930FCF76EFE2CE0002041
:1034E0002249491E08700846D0F82D201731573060
:1034F000FFF7D8FD20E000201C49491E08700C226F
:10350000A731A1F12A00FFF7CDFD132117487C3028
:10351000FCF752FE10E000201449491E08704122B9
:10352000B331A1F12300FFF7BDFD41210F488F30DA
:10353000FCF742FE00E000BF00BF3046FEF792FC01
:103540000020E6E647697A7769747348616E646CB7
:1035500065204572726F72202C20496C6C65676122
:103560006C20506172616D0A00000000AD02002005
:10357000A0030020476574204F6E65205061636B87
:103580006574210A0000000057694669324D4355B1
:103590005B2534643A2534645D3A20002530327866
:1035A000200000000A000000666C6167202578207A
:1035B0002578200A0000000041636B44617461209B
:1035C0003A200A007265706F72743A4D435520724A
:1035D00065626F6F74210A0041636B2050524F4443
:1035E000554354494F4E5F4D4F44452073756363B7
:1035F000657373200A00000041636B204745545FE8
:103600005554542073756363657373200A0000007A
:1036100041636B204745545F4D6F64756C65207343
:10362000756363657373200A000000004552523AC7
:1036300020636D6420636F6465206572726F722110
:103640000A0000004552523A20636865636B20739C
:10365000756D206572726F72210A000010B52C2002
:10366000094908600948C860084600F0BDF918B962
:1036700007A0FEF741FA02E00AA0FEF73DFAF421A6
:103680000D48FCF799FD10BDA0030020B0030020F9
:103690007262437265617465205375636365737309
:1036A000200A000072624372656174652046616998
:1036B0006C64200A00000000AC02002030B587B026
:1036C00005460024062D7CD2DFE805F003305F902C
:1036D000BDEA01A8FEF7A4FE0B208DF808008B4878
:1036E00090F83110D0F83100401C884AC2F83100FF
:1036F000C8B28DF809000520FEF7B3FAADF8060050
:10370000092101A8FFF718FB8DF80C00092101A879
:1037100000F014FA0446002C03DA21467CA0FEF7E0
:10372000EBF9092101A8FFF71BFBEAE004A8FEF76B
:1037300077FE09208DF81400744890F83110D0F805
:103740003100401C714AC2F83100C8B28DF8150032
:103750008DF818500620FEF784FAADF812000A2101
:1037600004A8FFF7E9FA8DF819000A2104A800F06F
:10377000E5F90446002C03DA214665A0FEF7BCF902
:103780000A2104A8FFF7ECFABBE004A8FEF748FE04
:1037900009208DF814005D4890F83110D0F8310000
:1037A000401C5A4AC2F83100C8B28DF815008DF895
:1037B00018500620FEF755FAADF812000A2104A8A9
:1037C00000E09AE0FFF7B8FA8DF819000A2104A882
:1037D00000F0B4F90446002C03DA21464CA0FEF7B1
:1037E0008BF90A2104A8FFF7BBFA8AE001A8FEF7CB
:1037F00017FE13208DF80800444890F83110D0F8D7
:103800003100401C414AC2F83100C8B28DF80900AD
:103810000520FEF726FAADF80600092101A8FFF7FA
:103820008BFA8DF80C00092101A800F087F90446F5
:10383000002C03DA214636A0FEF75EF9092101A823
:10384000FFF78EFA5DE001A8FEF7EAFD15208DF87E
:1038500008002E4890F83110D0F83100401C2B4A57
:10386000C2F83100C8B28DF809000520FEF7F9F959
:10387000ADF80600092101A8FFF75EFA8DF80C00EB
:10388000092101A800F05AF90446002C03DA214668
:103890001FA0FEF731F9092101A8FFF761FA30E016
:1038A00001A8FEF7BDFD29208DF80800174890F803
:1038B0003110D0F83100401C144AC2F83100C8B2AF
:1038C0008DF809000520FEF7CCF9ADF806000921B6
:1038D00001A8FFF731FA8DF80C00092101A800F0CA
:1038E0002DF90446002C03DA214609A0FEF704F95D
:1038F000092101A8FFF734FA03E00CA0FEF7FCF859
:1039000000BF00BF204607B030BD0000AC02002061
:103910004552523A2075617274207772697465203D
:103920006572726F72202564200A00004552523A77
:10393000204366674D6F6465206572726F72210A5D
:1039400000000000FDF7E8FA122206A10020FDF7B2
:1039500077FBFCF772FC03E0FDF73CFFFEF716F97E
:10396000FAE7000053797374656D5F52756E6E6986
:103970006E672E2E2E000000012080F3138800BFFA
:1039800000BFFEE700B5024612B94FF0FF3000BDA0
:1039900050689168884201D10020F8E7506891682A
:1039A000884203D290685168401AF0E7104600F050
:1039B00014F851689368C91A401AE8E730B504460C
:1039C00014B94FF0FF3030BD204600F006F8054630
:1039D0002046FFF7D7FF281AF5E7014611B94FF047
:1039E000FF3070470868FCE7014611B94FF0FF301F
:1039F0007047C8684860C86888600020F8E72DE90B
:103A0000F04104460F461646002514B9681EBDE86D
:103A1000F08117B94FF0FF30F9E76068A16888427C
:103A200014D22046FFF7AEFFB04201D9304602E083
:103A30002046FFF7A7FF054661682A463846FCF78F
:103A4000A2FB6068284460602846E0E72046FFF754
:103A5000C4FF6168E268891A401AB0420AD9354643
:103A600061682A463846FCF78EFB6068284460602F
:103A70002846CCE72046FFF7B0FF6168E268891A64
:103A8000451A61682A463846FCF77DFBE0686060AD
:103A9000721B79192046FFF7B2FF05442846B6E7A6
:103AA0002DE9F04104460F461546002604B11FB922
:103AB0004FF0FF30BDE8F0812046FFF77FFFA842BE
:103AC00002D86FF00100F5E76068A16888422AD843
:103AD0002046FFF782FFA168E268891A461AB542BC
:103AE00013D8A0682A463946FCF74DFBA068284445
:103AF000A0602046FFF771FFE1680844A168884292
:103B000001D1E068A0602846D4E7A0683246394673
:103B1000FCF739FBE068A060AA1BB9192046FFF743
:103B2000BFFF3044C6E7A0682A463946FCF72BFBA6
:103B3000A0682844A0602846BCE70000F8B5054608
:103B40000E4626A00068009000240DB9601EF8BD46
:103B50000B2223A10020FDF773FA002417E0281997
:103B60000121FDF7F8FD291901220020FDF768FA6F
:103B7000022C0BD3285DFF2808D101216846FDF7F0
:103B8000EAFD012269460020FDF75AFA641CB4429E
:103B9000E5D3022215A10020FDF752FAFEF7C0F985
:103BA00007463246394612A0FDF7A6FF00240DE075
:103BB000295D14A0FDF7A0FF022C06D3285DFF2885
:103BC00003D155210FA0FDF797FF641CB442EFD33A
:103BD00006A0FDF791FF3046B9E700005500000050
:103BE0000A574946492054783A2000000A0000004C
:103BF0004D435532576946695B2534643A25346430
:103C00005D3A2000253032782000000010B5FCF726
:103C100001FF18B900200349087002E001200149A2
:103C2000087010BD3D000020014800210170704760
:103C30003D0000201F1C1F1E1F1E1F1F1E1F1E1FBA
:103C4000000303060104060205000305E307060658
:103C5000101E1E0400000000000C014010000008AF
:103C6000010300000800000001000000000C0140FA
:103C70001000020001030000080000000200000024
:103C8000000C01404800000402030000080000008E
:103C900003000000000801401800000201030000BA
:103CA00004000000040000000008014004000004BB
:103CB00002030000040000000500000000080140AD
:103CC00018000400010300000400000006000000CA
:103CD0000008014004000800020300000400000086
:103CE00000000000004000000038014025030300F0
:103CF00000C2010000000000000000000C000000F5
:103D00000100000000000200004400402602030001
:103D100000C2010000000000000000000C000000D4
:103D2000403D0008000000206C000000441C00081A
:103D3000AC3D00086C00002074090000541C000811
:103D40000000000000000000000000000000000073
:103D50000000000000000000000000000000000063
:103D6000440000000000000000000000000000000F
:103D700000000000FF000000000000000000000044
:103D80000000000000000000000000000000000033
:103D90000000000000000000000000010203040118
:0C3DA000020304060708090204060800DC
:04000005080000ED02
:00000001FF
