:020000040800F2
:10000000300E00200101000833190008991600087D
:10001000291900087904000869260008000000007A
:10002000000000000000000000000000711D00083A
:10003000DD04000800000000351A0008AD1F0008AC
:10004000732600081D1A000819200008BD1C0008AE
:100050006B0D0008F91B0008250D0008390D00087C
:10006000430D00084D0D0008570D000897040008C7
:10007000A1040008AB040008B5040008BF04000890
:10008000C9040008D30400083102000855260008FE
:100090005F260008830400088D040008610D000835
:1000A0002320000841200008372000082D200008E8
:1000B0004B200008552000085F200008AD160008FE
:1000C000A3160008C1160008B71600085D1D000839
:1000D000671D0008ED230008F7230008012400082D
:1000E0002F0D0008551C00084B260008DFF80CD027
:1000F00000F08CF800480047254B0008300E002027
:100100000648804706480047FEE7FEE7FEE7FEE7B1
:10011000FEE7FEE7FEE7FEE7FEE7FEE7B91F0008A1
:10012000ED0000082DE9F05F0546002092469B4651
:1001300088460646814640241BE0284641464746FD
:10014000224600F053F853465A46C01A914110D344
:1001500011461846224600F03AF82D1A67EB0108BE
:100160004F4622460120002100F031F817EB00092C
:100170004E41201EA4F10104DFDC484631462A46E8
:100180004346BDE8F09F40EA01039B0703D009E026
:1001900008C9121F08C0042AFAD203E011F8013B73
:1001A00000F8013B521EF9D27047D2B201E000F8CC
:1001B000012B491EFBD270470022F6E710B513460B
:1001C0000A4604461946FFF7F0FF204610BD202AD4
:1001D00004DB203A00FA02F1002070479140C2F19E
:1001E000200320FA03F3194390407047202A04DBD0
:1001F000203A21FA02F00021704721FA02F3D040A0
:10020000C2F120029140084319467047064C074D41
:1002100006E0E06840F0010394E8070098471034D6
:10022000AC42F6D3FFF766FF0C5000082C500008D4
:1002300010B51A2001F00CF910BD21B1826842F00E
:100240000102826003E0826822F00102826070474E
:1002500010B504461248844208D10121401501F02E
:100260002DFC0021601501F029FC17E00D488442A7
:1002700008D10121001501F021FC0021201501F019
:100280001DFC0BE00848844208D10121C80301F09D
:1002900015FC00214FF4004001F010FC10BD0000DF
:1002A0000024014000280140003C0140014600209C
:1002B0008A6802F004020AB1012000E000207047C1
:1002C0000146C86C80B270470246002013680B409C
:1002D0000BB1012000E000207047014600208A6831
:1002E00002F008020AB1012000E00020704700007F
:1002F00030B502460020002350680F4C20400D7995
:100300000C6844EA05242043506090680B4C204060
:10031000D1E902542C434D7944EA450420439060CE
:10032000D06A20F470000C7C641EE4B2234340EADF
:100330000350D06230BD0000FFFEF0FFFDF7F1FF7B
:10034000F0B504460D4600200021092D11DDE068BE
:10035000A5F10A0606EB4607072606FA07F18843C9
:10036000A5F10A0606EB460603FA06F10843E0602B
:100370000CE0206905EB4507072606FA07F18843DC
:1003800005EB450603FA06F108432061072A0FDA58
:10039000606B561E06EB86071F2606FA07F1884398
:1003A000561E06EB860605FA06F10843606322E056
:1003B0000D2A0FDA206BD61F06EB86071F2606FADA
:1003C00007F18843D61F06EB860605FA06F10843B7
:1003D000206310E0E06AA2F10D0606EB86071F26F7
:1003E00006FA07F18843A2F10D0606EB860605FA28
:1003F00006F10843E062F0BD816841F008018160C8
:10040000704721B1826842F4A002826003E08268F2
:1004100022F4A00282607047816841F0040181608B
:10042000704710B502F024FA01F080F910BD10B544
:10043000012001F053FB002001F050FB10BD000033
:1004400008B5014600200090034800900098084439
:1004500000900098008808BD006C004008B500229C
:100460000092044A0092009A02440092009A11609D
:1004700008BD0000006C004010B5032000F0E8FF4C
:1004800010BD10B51D2000F0E3FF10BD10B51E20FB
:1004900000F0DEFF10BD10B5132000F0D9FF10BD35
:1004A00010B5142000F0D4FF10BD10B5152000F0D9
:1004B000CFFF10BD10B5162000F0CAFF10BD10B55B
:1004C000172000F0C5FF10BD10B5182000F0C0FFC8
:1004D00010BD10B5192000F0BBFF10BD10B50620EF
:1004E00000F0B6FF10BD000030B585B03A4D1421C4
:1004F0006846FFF761FE002400BF69E004EBC40119
:1005000005EB8101C86801F09DFA04EBC40105EB1D
:1005100081014868FFF79CFE04EBC40005EB8000F6
:100520000069009004EBC40005EB8000007D8DF8AD
:10053000040004EBC40005EB8000407D8DF805004D
:1005400004EBC40005EB80008069029004EBC4005A
:1005500005EB8000C069039004EBC40005EB80004C
:1005600090F820008DF8100004EBC40105EB810128
:1005700048686946FFF7BCFE04EBC40105EB810146
:1005800048680121FFF759FE04EBC40105EB810126
:100590004868FFF731FF00BF04EBC40105EB8101A0
:1005A0004868FFF79AFE0028F6D104EBC40105EB7A
:1005B00081014868FFF730FF00BF04EBC40105EB81
:1005C00081014868FFF772FE0028F6D1601CC4B2B2
:1005D000012C93DB05B030BDE84F00082DE9F04158
:1005E00004461E4D4FF6FF774FF44856012C33DA80
:1005F00004EBC40205EB820292F8213004EBC40242
:1006000005EB8202117A04EBC40205EB820250680A
:100610000122FFF795FE04EBC40105EB8101486858
:100620000121FFF7EEFE00BF701E86B216B93846F4
:10063000BDE8F08104EBC40105EB810148680221AB
:10064000FFF742FE0028EFD004EBC40105EB810167
:100650004868FFF735FE07463846E9E7E84F0008E7
:100660000848006840F0807006490860002006498C
:1006700048600846006840F0010008600120034916
:1006800008707047FCED00E0001000E0580000200A
:1006900000B585B014216846FFF78EFD684601F06D
:1006A00023FA019805B000BD01484068704700007A
:1006B000001000E038B50020009000242E4D00BF4F
:1006C00053E004EB440105EBC101496904EB44022A
:1006D00005EBC202D26841EA0200012101F0DEF915
:1006E00004EB440005EBC000008AADF8000004EB09
:1006F000440005EBC000007A8DF8030004EB4400D1
:1007000005EBC000C07C8DF8020004EB440105EB52
:10071000C1014868694600F02DFB04EB440005EB7D
:10072000C000807C01280CD104EB440205EBC2021E
:10073000118A04EB440205EBC202506800F0B0FBE2
:1007400011E004EB440005EBC000807C58B904EBD9
:10075000440205EBC202118A04EB440205EBC2021B
:10076000506800F09BFB601CC4B20C2CA9DB01207C
:100770000249087038BD0000E84D0008590000200B
:1007800070B504460C4D002604EB440005EBC00098
:10079000807C022801D0042070BD04EB440205EBEC
:1007A000C202118A04EB440205EBC202506800F059
:1007B0006CFB06463046EFE7E84D000870B504468E
:1007C0000025064901EB4411886840F2255101F0EB
:1007D00077FE00B10125284670BD0000A84F000833
:1007E00070B504460025064901EB4411886840F2C3
:1007F000277101F065FE00B10125284670BD00009B
:10080000A84F000830B587B0002400200490059060
:10081000069000900190029003903F4D00BF77E05A
:1008200005EB4411C868012101F018F905EB4410EB
:10083000008AADF8140005EB4410408AADF81000B2
:1008400005EB4410808AADF8160005EB4410C08A11
:10085000ADF8120005EB4411486804A901F074FDDD
:1008600005EB4410008BADF8000005EB4410408B05
:10087000ADF8020005EB4410808BADF8080005EBE5
:100880004410007A30B1012811D002281CD003286E
:1008900034D126E005EB44114868694601F0F0FBCD
:1008A00005EB44114868082101F036FC27E005EB10
:1008B00044114868694601F039FC05EB4411486869
:1008C000082101F085FC1AE005EB441148686946EF
:1008D00001F08CFC05EB44114868082101F0D6FCBE
:1008E0000DE005EB44114868694601F0D9FC05EBC1
:1008F00044114868082101F011FD00E000BF00BF6D
:1009000005EB44114868012101F0AEFB601CC4B244
:10091000052C85DB07B030BD084F000870B50446D4
:100920000E46174D052C00DB70BD05EB4410007A18
:1009300030B101280BD0022810D003281CD114E0BC
:1009400005EB44114868314601F0F5FC15E005EB74
:1009500044114868314601F0F0FC0EE005EB44110B
:100960004868314601F0EBFC07E005EB44114868AC
:10097000314601F0E6FC00E000BF00BF00BFD3E756
:10098000084F00080022002100BF05E0FF2200BF41
:10099000521E002AFCD1491C8142F7D37047000047
:1009A0000020034908880004091D0988084470478D
:1009B0001828004010B5002401214FF0C05001F06C
:1009C0004DF8012001F030F80420FFF739FD45F221
:1009D0005001884245D0FFF72AFD012001F012F9AD
:1009E00000BF601CC4B20A20FFF7CCFFFA2C00DB6A
:1009F00004E0412001F0E2F80028F2D000BFFA2C18
:100A000004DB4FF4407001F01DF903E04FF4007077
:100A100001F018F9012001F00FF901F083F901F05C
:100A20008BF90121084601F04FF901F07BF901F043
:100A30001FF9FA2C04DB4FF2234001F063F903E0C5
:100A400047F6FF7001F05EF901F06CF9002000F04C
:100A50003BF801F017F945F250010420FFF7FEFCC6
:100A600007E001F069F90121084601F02DF901F0D4
:100A700059F900F011F810BD10B5012001F00CF982
:100A800008B1012010BD0020FCE710B5052001F0E1
:100A9000E7F801F047F910BD1CB5002001900948A6
:100AA00000680190009003208DF8000000208DF870
:100AB00001008DF8020001208DF80300684600F067
:100AC0003DFF1CBD7100002010B5044601214FF010
:100AD000C05000F0C3FF012000F0A6FF204601F047
:100AE00003F901F01FF910BD4FF0E020006920F07C
:100AF00002004FF0E021086170474FF0E0200069EC
:100B000040F002004FF0E021086170474FF0E02014
:100B1000006940F001004FF0E021086170474FF09C
:100B2000E02148617047000030B585B00020019099
:100B3000029003900490009000243E4D00BF71E0AD
:100B400005EB441080683C49884211D005EB441005
:100B500080683A4988420BD005EB441080683849D8
:100B6000884205D005EB441080683649884206D19A
:100B700005EB44114868012100F070FF05E005EB2A
:100B800044114868012100F089FF05EB4411886891
:100B900001F048FC05EB4410007B8DF8000005EBEC
:100BA0004410407B8DF8010005EB4410807B8DF8EC
:100BB000020001208DF80300684600F0BFFE05EB3F
:100BC00044100069019005EB4410808AADF80800DC
:100BD00005EB4410C08AADF80A0005EB4410008B09
:100BE000ADF80C0005EB4410408BADF8100005EBA0
:100BF0004410808BADF80E0005EB4411886801A904
:100C000001F0AEFC05EB44110122886840F2255149
:100C100001F080FC05EB44118868012101F0F5FB2F
:100C2000601CC4B2022C8BDB01200749087005B0A0
:100C300030BD0000A84F00080044004000480040BC
:100C4000004C0040005000405A00002010B50446FF
:100C5000034901EB4411886801F0EEFCC0B210BDFD
:100C6000A84F000810B50446044901EB44110022C6
:100C7000886840F2255101F04DFC10BDA84F0008D6
:100C800010B50446044901EB44110122886840F282
:100C9000255101F03FFC10BDA84F000810B50446D7
:100CA000044901EB44110022886840F2277101F0E9
:100CB00031FC10BDA84F000810B50446044901EBF3
:100CC00044110122886840F2277101F023FC10BD15
:100CD000A84F000870B504460D46044901EB4411C5
:100CE0008868294601F0ADFC70BD0000A84F0008DF
:100CF00010B500F0F3FC10BD10B545F2555000F0F2
:100D000001FD042000F0F2FCBB2000F0F5FC00F037
:100D1000E5FC00F0DBFC01200149087010BD00007B
:100D20007000002010B50E2000F092FB10BD10B531
:100D3000302000F08DFB10BD10B50F2000F088FBB7
:100D400010BD10B5102000F083FB10BD10B51120B0
:100D500000F07EFB10BD10B5122000F079FB10BD35
:100D600010B51F2000F074FB10BD10B50C2000F072
:100D70006FFB10BD2DE9F041024600250026002042
:100D800000230024002791F803C00CF00F0591F810
:100D900003C00CF0100CBCF1000F03D091F802C09E
:100DA0004CEA050591F800C0BCF1000F31D0146881
:100DB00000202BE04FF0010C0CFA00F3B1F800C05A
:100DC0000CEA03069E4220D183004FF00F0C0CFA70
:100DD00003F7BC4305FA03FC4CEA040491F803C092
:100DE000BCF1280F06D14FF0010C0CFA00FCC2F840
:100DF00014C00AE091F803C0BCF1480F05D14FF0D0
:100E0000010C0CFA00FCC2F810C0401C0828D1D319
:100E10001460B1F800C0BCF1FF0F34DD546800204D
:100E20002EE000F1080C4FF0010808FA0CF3B1F8BD
:100E300000C00CEA03069E4221D183004FF00F0C44
:100E40000CFA03F7BC4305FA03FC4CEA040491F8DE
:100E500003C0BCF1280F05D100F1080C08FA0CF80A
:100E6000C2F8148091F803C0BCF1480F07D100F11B
:100E7000080C4FF0010808FA0CF8C2F81080401C6A
:100E80000828CED35460BDE8F08102460020936864
:100E90000B400BB1012000E000207047416170471A
:100EA0000161704710B5FFF71FFB10BD01460248F6
:100EB00010F81100704700003E0000200021024A97
:100EC00002F81010704700003E0000200348006840
:100ED000401C0249086072B67047000020000020E4
:100EE0000648006820B105480068401E03490860B4
:100EF0000248006800B962B6704700002000002078
:100F00000448006810B103480068804772B600BF0B
:100F1000FEE70000240000200146024800EB4100EB
:100F2000407870473E00002001480078704700007C
:100F30002900002010B5FFF7BDFBFFF763FC10BDD3
:100F400070B5002400260D4D00BF13E0E01DC6B2B1
:100F50003046FFF715FC30B9285DFF2805DA285D1B
:100F6000401C285501E000202855204600F008F8D4
:100F7000601CC4B2012CE9DB70BD0000F00400204D
:100F800070B50446484D494E06EB440040780728AA
:100F900074D2DFE800F004112C474F566000285D42
:100FA000032808DB012006EB4401487000F032FD05
:100FB000291D41F8240062E0285D40B9022006EBBB
:100FC0004401487000F026FD291D41F82400291D28
:100FD00051F8240000F0F4FC3549884206D304207F
:100FE00006EB44014870012006F8140047E0291D73
:100FF00051F8240000F0E4FC2E49884206D3032077
:1010000006EB44014870012006F8140005F10C00BD
:10101000005D30B9285D032803DB052006EB4401A1
:1010200048702CE016F8140018B9002006EB4401B3
:10103000487024E0285D18B9002006EB4401487090
:101040001DE0285D30B9062006EB44014870012000
:1010500006F8140013E016F8140068B9002006EB37
:1010600044014870012105F10C00015500F0D2FC4B
:1010700005F1080141F8240001E0FFE700BF00BFCF
:1010800005F10C00005D01280CD105F1080151F8B3
:10109000240000F095FC0849884203D3002105F1A3
:1010A0000C00015570BD0000F00400203E0000203F
:1010B00040420F00F049020080841E00F0B5034654
:1010C0000C461546002200260021642093FBF0F018
:1010D000C6B2642093FBF0F700FB1730C1B2132EA9
:1010E00002DD01F16400C1B20846CF1701EB97772A
:1010F00001EBA707BAB2072092FBF0F700FB17201D
:1011000082B25719601EDFF830C01CF80000384466
:1011100082B2CF1701EB9777BF10A1EB87071FB9FA
:10112000032C01DA501E82B2072092FBF0F700FB7D
:101130001720C0B2F0BD0000D44D00081CB50B4C08
:101140000B4903C9CDE900010A490B2000F05AF907
:10115000FFF730FC00F0A0F8208840F2E3718842ED
:1011600003DADDE9000100F02FF81CBD3400002097
:10117000E04D00087911000810B5FFF77DFC01284B
:1011800001D100F089F8FFF780FC10BD0146CA17B5
:1011900001EB92729210A1EB820292B9642091FB52
:1011A000F0F200FB121050B94FF4C87091FBF0F24E
:1011B00000FB121008B9012070470020FCE7012055
:1011C000FAE70020F8E7000073B500250024BDF819
:1011D000000040F2B271884205DBBDF8000040F625
:1011E0003301884200DD7CBD40F2B2750BE0284639
:1011F000FFF7CCFF012802D12348044401E0234833
:101200000444681C85B2BDF80000A842EFDC9DF8DC
:101210000200401EC0B28DF80200002512E01C48FA
:10122000405D40F2A321484304EBC014BDF8000028
:10123000FFF7ACFF012803D1012D01D1154804446B
:10124000681C85B29DF80200A842E8DC9DF8030006
:10125000401E40F2A321484304EBC0149DF8040053
:10126000C0EB4011C1EB002004EB00149DF8050019
:10127000C0EB001004EB80049DF8060004442046F7
:10128000FFF722FC00BFAEE70085E2018033E101F9
:10129000C84D0008805101002DE9F041364DFFF79F
:1012A0007FFB0746002400263448B7FBF0F434489F
:1012B0000088A04238D032490C8040F2B2760FE06C
:1012C000B0B2FFF763FF012807D1B4F5B77F02D3AF
:1012D000A4F5B77403E0761C05E0A4F26D14761C47
:1012E000B4F5B67FECD800BF2E80002615E0B0B272
:1012F000FFF74CFF012806D1012E04D11D2C01D38C
:101300001D3C09E00BE01F48805DA04203D81D484A
:10131000805D241A00E002E0761C1C2CE7D200BF9E
:10132000701CA870601CE8701448B7FBF0F100FB5B
:1013300011744FF46160B4FBF0F028714FF46160F8
:10134000B4FBF0F100FB11403C21B0FBF1F06871FF
:101350004FF46160B4FBF0F100FB11403C21B0FBA5
:10136000F1F201FB1200A871EA78A9782888FFF74A
:10137000A5FEE871BDE8F081340000208051010035
:101380003C000020C84D000810B50020FFF726F9EA
:1013900010BD000038B5184C184D00200090FFF724
:1013A0001FFA012812D16946204600F0D1FD02281B
:1013B00003D10020FFF772FC08E06946204600F0E8
:1013C000DFFD9DF800100020FFF784FC0020FFF7F0
:1013D000F5F901280ED10020FFF738FC00909DF8A8
:1013E0000010284600F08EFD0548006810B1044842
:1013F0000068804738BD0000C0040020D8040020E9
:101400002C00002000B502460B46442A06DAFFF7FE
:101410005DFD034840F82230FFF762FD00BD00008B
:10142000B000002010B5FFF767FC00F023F8FFF7CD
:1014300081FDFFF737FD00F049F8FFF77FFEFFF76A
:101440000FF910BD10B54FF4A06000F0AFFA10BD59
:1014500070B50446002505480470442C04DA04489D
:1014600050F8245005B1A84770BD000028000020A6
:10147000B000002010B50024FFF7E4FF00BF05E036
:1014800004492046FFF7BEFF601CC4B2442CF7DBC2
:1014900010BD0000010F000870B504460025094E7C
:1014A00009493068B0FBF1F5C81090FBF4F04543F2
:1014B000FFF71AFB2846FFF732FBFFF727FBFFF782
:1014C0001CFB70BD5C00002000127A0010B50024E7
:1014D00000BF18E0124A02EB042104EB4402114B56
:1014E00003EB82004FF4807200F025FD0E4A02EB00
:1014F000C41104EB44020D4B03EB8200802200F088
:101500001AFD601CC4B2022CE4DB09492D20FFF750
:1015100079FF08492E20FFF775FFFFF705FB10BD87
:10152000C0010020C0040020C0030020D804002017
:1015300095130008F915000870B504460D460026FD
:101540002046FFF78FFB04EB4401064A02EB8100C3
:10155000294600F0FDFC06462046FFF791FB304689
:1015600070BD0000D80400202DE9F84F07468846DA
:1015700014460025002607EB47001E4901EB8009B1
:10158000AA460020009014B1B4F5807F03D903254A
:101590002846BDE8F88F3846FFF780FBFFF796FC3A
:1015A000484600F0CFFC012800D18246002609E021
:1015B00018F80610484600F0A5FC054605B103E002
:1015C000701CC6B2A642F3DB00BFBAF1010F0AD10C
:1015D0006946484600F0D4FC054625B99DF8001040
:1015E0003846FFF777FBFFF77BFC3846FFF764FBD5
:1015F0002846CEE7C004002038B5184C184D00200E
:1016000000900120FFF7ECF8012812D1694620462E
:1016100000F09EFC022803D10120FFF73FFB08E009
:101620006946204600F0ACFC9DF800100120FFF751
:1016300051FB0120FFF7C2F801280DD1FFF706FB8F
:1016400000909DF80010284600F05CFC05480068FA
:1016500010B104480068804738BD0000CC04002069
:10166000E40400203000002010B500210846FFF7F8
:1016700055F900200149087010BD00002900002024
:1016800010B540F2FF310020FFF748F90120014971
:10169000087010BD2900002010B50120FFF7D8FE0A
:1016A00010BD10B52820FFF7D3FE10BD10B52720C0
:1016B000FFF7CEFE10BD10B52A20FFF7C9FE10BD02
:1016C00010B52920FFF7C4FE10BD00004CF6CC4039
:1016D0000149086070470000003000404AF6AA2027
:1016E000014908607047000000300040014948602F
:1016F00070470000003000400149886070470000DA
:101700000030004001490860704700000030004090
:1017100003480021C18081800172418001807047AF
:10172000A600002010B500F013F810BD10B5064952
:101730000720FFF767FE4FF4FA70FFF7ADFE4FF496
:10174000FA700249088010BD251700081C0000200F
:1017500070B52F4D2F4C20882988884207DD2088BE
:10176000401E208021880120FFF7D8F80AE0208859
:101770002988884206DA2088401C208021880120A0
:10178000FFF7CCF860886988884207DD6088401ED2
:10179000608061880220FFF7C1F80AE060886988EC
:1017A000884206DA6088401C608061880220FFF76A
:1017B000B5F8A088A988884207DDA088401EA080CF
:1017C000A1880320FFF7AAF80AE0A088A988884228
:1017D00006DAA088401CA080A1880320FFF79EF8AD
:1017E000E088E988884207DDE088401EE080E188E3
:1017F0000420FFF793F80AE0E088E988884206DAD7
:10180000E088401CE080E1880420FFF787F870BD85
:10181000A60000209C0000202DE9F0410F4F104E43
:101820004FF6FF740025388850B13088318800FBAE
:1018300001F54FF47A70B5FBF0F5C835ACB201E0B4
:101840004FF4FA7407480088844204D005480480A5
:101850002046FFF721FEBDE8F0810000A600002031
:101860009C0000201C00002005480021C1808180D0
:101870000121017200214180CC21018070470000CC
:10188000A600002005480021C1808180012101724D
:101890000021418040F2FF3101807047A600002006
:1018A0000A480B490B4A1278032A0DD10A8803888B
:1018B0009A4209D1028840F2FF339A4201D10022B4
:1018C00001E040F2FF32028070470000A6000020D5
:1018D0009C0000201A00002010B50F480078401C22
:1018E0000D49087008460078042801DB00200870C4
:1018F0000948007820B1012805D0022809D105E067
:10190000FFF706FF06E0FFF7AFFF03E0FFF7BAFFC0
:1019100000E000BF00BF10BD1A00002010B5FFF7A7
:10192000BFFFFFF779FF10BD10B50220FFF790FD54
:1019300010BD10B50020FFF78BFD10BD70B5002164
:1019400000230F22C47804B3154C246804F4E06427
:10195000C4F5E064210AC1F10403CA40447804FAE2
:1019600003F184781440214309010E4C0678A155F7
:10197000047804F01F050124AC4005786D11AD001A
:1019800005F1E025C5F8004109E0047804F01F05E1
:101990000124AC40044D0678761145F8264070BD10
:1019A0000CED00E000E400E080E100E002490143CA
:1019B000024A1160704700000000FA050CED00E0DB
:1019C0002DE9704F834600F025F8824600BF00BF26
:1019D000DA4502D9AAEB0B0A04E0CBF1FF30504400
:1019E00000F1010AFEF754FE00250446084A0023D0
:1019F00020462946FEF796FB804642460B46504657
:101A00000021FEF78FFB06463046BDE8708F0000D0
:101A100040420F0010B5FEF747FE10BD10B509207B
:101A2000FFF716FD10BD0000014908627047000075
:101A300000000E42F02002490870FFF761FA000032
:101A40002800002001460020034A506820F440404E
:101A500008435060704700000010024029B1064A58
:101A6000D2690243044BDA6104E0034AD26982433B
:101A7000014BDA61704700000010024029B1064AAC
:101A800012690243044B1A6104E0034A126982435B
:101A9000014B1A61704700000010024029B1064A4C
:101AA00092690243044B9A6104E0034A92698243BB
:101AB000014B9A61704700000010024029B1064AAC
:101AC000D2680243044BDA6004E0034AD2688243DE
:101AD000014BDA60704700000010024001490860C5
:101AE000704700004004424230B50021002200242B
:101AF00000232D4D6D6805F00C0121B1042905D09E
:101B0000082923D105E0294D056022E0274D056015
:101B10001FE0254D6D6805F47012234D6D6805F4C6
:101B20008034022505EB92421CB9214D55430560D6
:101B30000BE01D4D6D6805F400351DB11C4D55437E
:101B4000056002E0194D5543056002E0174D056040
:101B500000BF00BF144D6D6805F0F0010909154D77
:101B60006B5C0568DD4045600F4D6D6805F4E06114
:101B7000090A104D6B5C4568DD4085600A4D6D6853
:101B800005F46051C90A0B4D6B5C4568DD40C560CA
:101B9000054D6D6805F44041890B074D6B5CC568C8
:101BA000B5FBF3F5056130BD0010024000127A006C
:101BB00000093D00750000208500002010B5014699
:101BC0000022002300204A11012A02D1094C236877
:101BD00006E0022A02D1074C236A01E0054C636A41
:101BE00001F01F02012494401C400CB1012000E0D0
:101BF000002010BD0010024010B50D20FFF728FC9A
:101C000010BD000000210B4A11700A4A203A82F8E8
:101C10002010012802D0042808D103E00121054A40
:101C2000117004E00521034A117000E000BF00BFFD
:101C30007047000020100240014908607047000012
:101C40003C0442420249096A0143014A1162704759
:101C50000010024010B53120FFF7FAFB10BD000064
:101C6000024909888143014A1180704704280040D5
:101C70000348008840F010000149088070470000C8
:101C800004280040034800884FF6EF7108400149DE
:101C9000088070470428004001460020064A128848
:101CA0000A40D0B2044A121F12880A4012B108B189
:101CB000012000E0002070470428004010B50B20F0
:101CC000FFF7C6FB10BD000029B1064A1288024387
:101CD000044B1A8004E0034A12888243014B1A80A5
:101CE000704700000028004000B50246FFF7C0FF23
:101CF000100C03490880091D0A80FFF7C3FF00BDCF
:101D00001828004000B50246FFF7B2FFC2F30340B7
:101D100003490880091D0A80FFF7B4FF00BD0000D9
:101D20000828004000BF0348008800F02000002879
:101D3000F9D0704704280040074800884FF6F77133
:101D400008400549088000BF0348008800F00800EB
:101D50000028F9D0704700000428004010B52B205F
:101D6000FFF776FB10BD10B52C20FFF771FB10BDFF
:101D700010B50520FFF76CFB10BD10B500F002F8A0
:101D800010BD00000CB500200190009033480068A1
:101D900040F480303149086000BF3048006800F4EA
:101DA000003000900198401C0190009818B90198EB
:101DB000B0F5A06FF1D12948006800F4003010B1EF
:101DC0000120009001E0002000900098012843D1FC
:101DD0002348006840F01000214908600846006868
:101DE00020F0030008600846006840F00200086028
:101DF0001A484068194948600846406848600846E3
:101E0000406840F4806048600846406820F47C10D8
:101E100048600846406840F4E8104860084600689A
:101E200040F08070086000BF0C48006800F000704F
:101E30000028F9D00948406820F0030007494860AD
:101E40000846406840F00200486000BF0348406810
:101E500000F00C000828F9D10CBD00000010024071
:101E60000020024000200149087070471000002047
:101E700001480078704700001000002010B500F005
:101E800001F810BD70B51B4C0025FFF77DFA054623
:101E9000B5F5807F1BDCFFF7BDFD174908601748CB
:101EA0000078FF2804DA15480078401C13490870B0
:101EB0001248007801280DD111480078012800D17E
:101EC00000E00020207000200D49087002E0002092
:101ED0000A4908700A48007850B907480068FFF7B7
:101EE0006FFD4CF25031884202D90120044908703C
:101EF00070BD000010000020140000201100002020
:101F00001800002010B50246002013895489A3420E
:101F10000FDA53685488195513895B1C1381538851
:101F20005B1C538053885489A34203DB00235380F6
:101F300000E0012010BD0023038043804160038145
:101F400042817047014600200A8902B9012070478A
:101F500010B502460020138983B1536814881B5DB5
:101F60000B7013885B1C138013895B1E138113880D
:101F70005489A34203DB0023138000E0022010BD3C
:101F800010B502460020138923B1536814881B5DE5
:101F90000B7000E0022010BD704770B504460D467E
:101FA000EAB221460120FFF7DFFA70BD10B5072025
:101FB000FFF74EFA10BD000010B51348006840F05E
:101FC00001001149086008464068104908400E4960
:101FD0004860084600680E4908400B4908600846FA
:101FE000006820F4802008600846406820F4FE0065
:101FF00048604FF41F008860FFF7BFFE4FF000609D
:102000000449086010BD0000001002400000FFF805
:10201000FFFFF6FE08ED00E010B50A20FFF718FA02
:1020200010BD10B52020FFF713FA10BD10B5232006
:10203000FFF70EFA10BD10B52220FFF709FA10BD08
:1020400010B52120FFF704FA10BD10B52420FFF7CA
:10205000FFF910BD10B52520FFF7FAF910BD10B536
:102060002620FFF7F5F910BD21B1028842F00102E8
:10207000028004E002884FF6FE731A400280704727
:1020800070B5002400220023058C4FF6FE76354003
:102090000584028C8388048B4FF68F752C40B51E07
:1020A0002C400D882C43751E2A400D892A434D88EB
:1020B0002A43144DA8420BD0134DA84208D0134D0B
:1020C000A84205D0124DA84202D0124DA84213D109
:1020D0004FF6F7752A404D892A434FF6FB752A4083
:1020E0008D882A434FF6FF652B404FF6FF552B4056
:1020F0008D892B43CD892B4383800483CD888586AE
:10210000028470BD002C01400034014000400140B9
:1021100000440140004801400A460021018B4FF66F
:10212000F7731940114301837047000070B5002414
:1021300000220023058C4FF6EF7635400584028C93
:102140008388048B48F6FF752C404FF6FF452C40E2
:102150000D884FF6FF7606EA05252C434FF6DF750E
:102160002A400D8906EA05152A434D8806EA051519
:102170002A43154DA84202D0144DA8421DD14FF656
:102180007F752A404D894FF6FF7606EA05152A43EA
:102190004FF6BF752A408D8806EA05152A434FF68B
:1021A000FF352B404FF2FF752B408D8906EA8505E0
:1021B0002B43CD8906EA85052B4383800483CD8894
:1021C0000587028470BD0000002C014000340140EE
:1021D0000A460021018B4FF2FF7319404FF6FF733F
:1021E00003EA0223194301837047000070B50024FD
:1021F00000220023058C4FF6FF6635400584028CD3
:102200008388848B4FF68F752C404FF6FC752C40DD
:102210000D882C434FF6FF552A400D894FF6FF7667
:1022200006EA05252A434D8806EA05252A43154D69
:10223000A84202D0144DA8421DD14FF2FF752A408A
:102240004D894FF6FF7606EA05252A434FF6FF35FE
:102250002A408D8806EA05252A434EF6FF752B4055
:102260004DF6FF752B408D8906EA05152B43CD8968
:1022700006EA05152B4383808483CD8885870284F5
:1022800070BD0000002C0140003401400A460021CE
:10229000818B4FF6F773194011438183704700001B
:1022A00070B5002200230024058C4EF6FF763540E1
:1022B0000584038C8488828B48F6FF752A404FF68C
:1022C000FF452A400D884FF6FF7606EA05252A438A
:1022D0004DF6FF752B400D8906EA05352B434D88D9
:1022E00006EA05352B430B4DA84202D00A4DA84201
:1022F00008D14BF6FF752C408D894FF6FF7606EA24
:1023000085152C4384808283CD88A0F840500384B7
:1023100070BD0000002C0140003401400A4600213D
:10232000818B4FF2FF7319404FF6FF7303EA0223CC
:102330001943818370478186704701877047818781
:102340007047A0F840107047002202881D4B984249
:102350000ED01D4B98420BD0B0F1804F08D01B4BD4
:10236000984205D01A4B984202D01A4B984204D199
:102370004FF68F731A404B881A43174B984207D079
:10238000164B984204D04FF6FF431A40CB881A43AD
:1023900002808B8883850B8803850A4B98420BD07B
:1023A000094B984208D00E4B984205D00D4B9842ED
:1023B00002D00D4B984201D10B7A03860123838210
:1023C00070470000002C0140003401400004004030
:1023D00000080040000C00400010004000140040C5
:1023E00000400140004401400048014010B52D204C
:1023F000FFF72EF810BD10B52E20FFF729F810BDFD
:1024000010B52F20FFF724F810BD21B1828942F4C6
:102410000052828104E082894DF6FF731A40828166
:102420007047000010B504462048844209D10121BC
:102430008803FFF743FB00214FF48040FFF73EFB8A
:1024400032E01B48844209D101214804FFF716FB02
:1024500000214FF40030FFF711FB25E015488442BE
:1024600009D101218804FFF709FB00214FF48020E6
:10247000FFF704FB18E01048844209D10121C80489
:10248000FFF7FCFA00214FF40020FFF7F7FA0BE00A
:102490000A48844208D101210805FFF7EFFA00211C
:1024A0004FF48010FFF7EAFA10BD00000038014039
:1024B0000044004000480040004C004000500040F4
:1024C00070B50246002400230025002040F66A165D
:1024D000B14200D100BFC1F3421501F01F03012634
:1024E00006FA03F3012D02D19689334006E0022D4E
:1024F00002D1168A334001E0968A33400C1201263D
:1025000006FA04F41688344013B10CB1012000E03F
:10251000002070BDF0B503460024002600250020F1
:1025200040F66A17B94200D100BF1846C1F3421401
:1025300001F01F06012707FA06F5012C01D10C3026
:1025400004E0022C01D1103000E014301AB1076809
:102550002F43076002E00768AF430760F0BD00004B
:102560002DE9F04786B005460E460024A24600BF7E
:10257000A1460027B08900B100BF2F462C8A4CF637
:10258000FF700440F08804432C82AC894EF6F310AF
:102590000440B08831890843718908430443AC8101
:1025A000AC8A4FF6FF400440B0890443AC8201A8D6
:1025B000FFF79AFA1F48874202D1DDF810A001E028
:1025C000DDF80CA0A88900F4004040B10AEBCA0075
:1025D00000EB0A1031684900B0FBF1F807E00AEBA4
:1025E000CA0000EB0A1031688900B0FBF1F86420E2
:1025F000B8FBF0F004012009642101FB1089A889CF
:1026000000F4004040B1322000EBC900B0FBF1F013
:1026100000F00700044308E0322000EB09106421B9
:10262000B0FBF1F000F00F0004432C8106B0BDE8D0
:10263000F08700000038014001468888C0F3080098
:102640007047C1F308028280704710B53220FEF750
:10265000FFFE10BD10B51B20FEF7FAFE10BD10B531
:102660001C20FEF7F5FE10BD10B50420FEF7F0FEAD
:1026700010BD10B50820FEF7EBFE10BD10B50748E1
:102680000068FFF79DF90649884206D3FFF7C2F9B3
:1026900002490860034801F01BFF10BD080000203C
:1026A000400D0300450000200148007870470000FD
:1026B0004400002010B51F4C0020FEF7F7FB012856
:1026C00037D10020FEF728FC032804D004280AD0C4
:1026D000062826D116E018A000F05AF9207A08B989
:1026E00000F054F821E018A000F052F9022002F0A6
:1026F000D5F801202072FEF717FC2070FFF78AF949
:10270000606012E014A000F043F9002002F0C6F867
:1027100003202072FEF708FC2070FFF77BF9606051
:1027200003E012A000F034F900BF00BF0020FEF764
:10273000C5FB10BD900000200A4B657920507265E2
:1027400073732E0A000000000A4B657920526570F1
:102750006561742E0A0000000A4B657920446F758C
:10276000626C6520436C69636B2E0A000A4B6579C5
:1027700020416374696F6E204973204E6F7420533B
:102780007570706F72742E0A0000000010B5FEF7AD
:10279000CBFB10B9FEF774FF01E0FEF765FF10BD3B
:1027A0002DE9F04104460D460026144F14480088D8
:1027B000401C13490880052094FBF0F009888842EA
:1027C00018DC00200E4908800E480088401C0D4986
:1027D0000880FFF7DBFF0B480088A8420ADB0020D7
:1027E000084908800126387810B9FEF73DFF01E05E
:1027F000FEF746FF3046BDE8F08100009000002063
:102800000C0000200E00002010B5FFF731FB01285E
:1028100006D104A000F0BCF8FFF724FBFFF75CF83A
:1028200010BD00000A53686F636B205072657373AC
:102830002E0A000008B50020009069460120FEF72E
:102840007BFE18B90121684601F0D0FB07480068FB
:10285000FFF7B6F841F28831884205D3FFF7DAF87E
:102860000249086000F03CF808BD000000000020AC
:1028700010B506A000F08CF80EA000F089F8FFF764
:102880008BFB01F0DBFF02F099FA10BD0A2D2D2D14
:102890002D2D2D205769666920556172742044657D
:1028A000627567205374617274696E67202D2D2DD7
:1028B0002D2D2D000A2D2D2D2D2D2D2D2D2D2D2D98
:1028C0002D2D2D2D2D2D2D2D2D2D2D2D2D2D2D2D38
:1028D0002D2D2D2D2D2D2D2D2D2D2D0A00000000FF
:1028E00010B5002400BF03E001F0C4FC601CC4B2BA
:1028F000052CF9DBFEF724FBFFF7DCFE00F01CF8EB
:10290000FFF782FF10BD000010B5FFF7CDFE0128D4
:102910000CD107480068FFF753F80649884205D3F1
:10292000FFF778F80249086001F090FD10BD000043
:10293000040000208096980010B5144C207A30B125
:10294000012809D0022808D0032819D10FE002F08D
:1029500027FAFFF7D9FF14E000BF06214FF4FA7001
:10296000FFF71EFF012801D10020207209E00A2193
:10297000C820FFF715FF012801D10020207200E0D8
:1029800000BF00BFFFF77AFE10BD000090000020DE
:102990000FB4054B10B503A9044A029800F018F8CB
:1029A00010BC5DF814FB0000672E00088C000020AE
:1029B00002E008C8121F08C1002AFAD17047704708
:1029C000002001E001C1121F002AFBD17047000066
:1029D0002DE9FF4F8DB00F460546002606E025285D
:1029E0000BD0DDE90F1290476D1C761C287800286B
:1029F000F5D111B03046BDE8F08F0024A246A146C3
:102A00000122EC4900E0044315F8013F203B02FAA3
:102A100003F00842F7D128782A2810D06FF02F024F
:102A20002878A0F13001092914D80AEB8A0102EBB9
:102A3000410144F0020400EB010A6D1CF0E701CFF4
:102A40005FEA000A03D544F40054CAF1000A44F0D6
:102A500002046D1C28782E2817D115F8010F44F0B8
:102A600004042A280ED06FF02F022878A0F130013C
:102A700009290AD809EB890102EB410100EB0109A0
:102A80006D1CF2E757F8049B6D1C28786C280FD05A
:102A900006DC4C2817D068280DD06A2814D104E031
:102AA000742810D07A280FD10DE044F400140AE005
:102AB00044F4801401E044F440146978814202D166
:102AC00004F580146D1C6D1C2A786E2A1FD00CDC56
:102AD000632A31D004DC002A8BD0582A11D1A3E01C
:102AE000642A68D0692A0CD165E0732A2ED004DCF0
:102AF0006F2A73D0702A04D19BE0752A6FD0782A90
:102B00006ED01046DDE90F129047761C50E1C4F3F9
:102B10000250022806D0032809D0042801CF09D08A
:102B2000066045E101CFF117C0E9006140E101CF46
:102B300006803DE106703BE117F8040B8DF80000BC
:102B400000208DF80100EB46012003E057F804BB9C
:102B50004FF0FF3061074FF0000102D40DE008F1A3
:102B60000101884649450FDA8045F8DB1BF808105B
:102B70000029F4D108E008F1010188468142FADB1E
:102B80001BF808100029F6D1DDE90F23AAEB080095
:102B90008146214600F036F9304400EB080604E097
:102BA000DDE90F121BF8010B9047B8F10108F7D2CD
:102BB00021464846F7E00A21C4F302534FF0000BC8
:102BC0000891022B04D001CFC117032B09D00AE0D2
:102BD000FF1D27F00707F7E8020108E032E01FE0D9
:102BE00020E000B2C117042B01D140B2C117031E6F
:102BF00071F1000307DA4FF0000CD0EB0C006CEB26
:102C000001012D2302E0230504D52B238DF8243068
:102C1000012303E0E30701D02023F7E7984658E0BB
:102C20000A2110E010210EE010204FF0000B089058
:102C30000CE010214FF0000B44F004044FF00809A1
:102C4000089103E008214FF0000B0891C4F30253F0
:102C5000022B04D001CF0021032B06D006E0FF1D7C
:102C600027F00707F7E8020103E080B2042B00D148
:102C7000C0B24FF0000823072BD5702A07D0DDF82B
:102C800020C08CF0100C5CEA0B0C05D00EE0402349
:102C90008DF82430012308E050EA010306D03023E8
:102CA0008DF824308DF8252002239846DDF820C0C9
:102CB0008CF0080C5CEA0B0C0BD150EA010301D13B
:102CC000630706D530238DF824304FF00108A9F1B1
:102CD0000109582A04D038A20B9208AA0A920BE0E4
:102CE0003AA2F9E75B46089AFDF71CFA0B9B9B5C3E
:102CF0000A9A521E0A92137050EA0102F2D10A98FF
:102D0000ADEB000000F1200B600702D524F4803405
:102D100001E04FF00109D94502DDA9EB0B0000E00D
:102D2000002000EB0B0141440890AAEB010AE003EC
:102D300006D4DDE90F232146504600F063F806442F
:102D40004FF0000908E009A911F80900DDE90F12A8
:102D5000904709F10109761CC145F4DBE0030CD56D
:102D6000DDE90F232146504600F04CF8064404E00C
:102D7000DDE90F1230209047761C0899481E089014
:102D80000029F5DC08E00A980A990078491C0A91A4
:102D9000DDE90F129047761CBBF10001ABF1010B8E
:102DA000F1DC21465046DDE90F2300F019F8064416
:102DB0006D1C1BE6092801003031323334353637BB
:102DC0003839616263646566000000003031323377
:102DD0003435363738394142434445460000000017
:102DE0002DE9F041044600251E461746880404D408
:102DF00005E039462020B0476D1C641EF9D52846F1
:102E0000BDE8F0812DE9F041044600251E469046BC
:102E1000C80301D5302700E02027880404D505E049
:102E200041463846B0476D1C641EF9D52846BDE8BA
:102E3000F08101B581B000200090694601AA507868
:102E4000087010784870BDF800000CBD01460806F7
:102E500001F47F4240EA022001F47F0240EA12209E
:102E600040EA1160704713B50C4601226946002004
:102E7000FEF77AFB00981CBD024612B102F0070073
:102E800028B9082901D8002070470120FCE702F08A
:102E90000700C0F10800884201D30020F4E70120B8
:102EA000F2E730B502460B460021002400250AB99E
:102EB000481E30BD002108E0545C581A401E155CC5
:102EC0005554581A401E1454491CB1EB530FF3D3F8
:102ED0000020EEE72DE9F04104460D4600260027CC
:102EE00004B135B90CA0FFF753FD4FF0FF30BDE83A
:102EF000F08100F005F9074628782178884203D050
:102F00000FA0FFF745FD0126012E03D100F0F8F8D0
:102F1000124908603046EAE767697A436865636B7F
:102F20005265706F7274204572726F72202C204946
:102F30006C6C6567616C20506172616D0A00000005
:102F400076616C75654C6564537461747573466C19
:102F50006167204368616E6765640A00480000206D
:102F6000F8B505460C4616460DB104B12EB910A0B1
:102F7000FFF70EFD4FF0FF30F8BD287800F001009C
:102F800098B111212278601C81542078401C207057
:102F900001206B1C024600210090084601F008F950
:102FA00008B1012000E0002030700020E4E70000BC
:102FB00067697A44617461506F696E7432457665F1
:102FC0006E74204572726F72202C20496C6C65679C
:102FD000616C20506172616D0A00000038B50546D1
:102FE0000C4605B12CB90BA0FFF7D2FC4FF0FF3017
:102FF00038BD00202070287823460122002100904F
:10300000084601F095F801212046FFF74AFF00200D
:10301000EEE7000067697A44617461506F696E740D
:1030200073325265706F72744461746120457272BC
:103030006F72202C20496C6C6567616C2050617246
:10304000616D0A0070B5044600F05AF805461D4946
:103050002046FFF73FFF012813D11BA0FFF798FC84
:103060001849891E2046FFF7B9FF28B901221549E2
:10307000891E042000F0F4FF1248A538217880F85A
:10308000A5101748B5FBF0F100FB1150C8B9154861
:103090000068A84215D014A0FFF77AFC0949891EE0
:1030A0002046FFF79BFF28B901220649891E04200C
:1030B00000F0D6FF0348A538217880F8A51009480C
:1030C000056070BDA50500206368616E6765642CAE
:1030D000207265706F727420646174610A00000070
:1030E000C02709004C000020496E666F3A20363038
:1030F0003053207265706F727420646174610A00CD
:1031000001480068704700004000002010B51748D3
:1031100090F83A00012827D1144890F83900022885
:103120001DDAFFF7EDFF1149D1F85310401AC828F6
:103130001AD9FFF7E5FF04460C4890F83930D0F86B
:10314000532021460AA0FFF723FC00F0A7FE074802
:1031500090F83900401C054981F8390004E01E212F
:1031600002483930FDF728F810BD000000050020A6
:103170005761726E696E673A67697A50726F746FE1
:10318000636F6C526573656E64446174612025647D
:103190002025642025640A003EB50446002524B994
:1031A00013A0FFF7F5FB681E3EBD20680090606825
:1031B00001909DF80400401CC0B28DF80400052069
:1031C000FFF737FEADF802000921684600F0A4FEC3
:1031D0008DF808000921684601F094FD0546002D90
:1031E00003DA29460DA0FFF7D3FB2846DCE70000F1
:1031F0004552523A2067697A50726F746F636F6CF0
:10320000436F6D6D6F6E41636B2064617461206903
:103210007320656D707479200A0000004552523A9F
:103220002075617274207772697465206572726F9F
:1032300072202564200A0000FEB504460E460025D3
:1032400024B914A0FFF7A4FB681EFEBD684600F079
:10325000D7F912208DF8040060798DF8050006205A
:10326000FFF7E7FDADF802008DF808600A21684617
:1032700000F052FE8DF809000A21684601F042FD77
:103280000546002D03DA29460DA0FFF781FB2846ED
:10329000DBE7000067697A50726F746F636F6C458B
:1032A00072726F72436D64204572726F72202C20AF
:1032B000496C6C6567616C20506172616D0A000039
:1032C0004552523A20756172742077726974652094
:1032D0006572726F72202564200A000030B59DB0BF
:1032E000044600252CB92BA0FFF752FB681E1DB029
:1032F00030BD684600F084F902208DF80400607942
:103300008DF805002FA103C9CDE9020130A103C941
:10331000CDE9040131A103C9CDE9080132A103C9F6
:10332000CDE90601202233A10AA8FCF72CFF2022B8
:1033300039A10DF15200FCF726FF0020CDF84A001C
:10334000CDF84E009DF851008DF851009DF85100C8
:1033500040F002018DF851100020FFF76AFDADF832
:1033600048006F20FFF765FDADF802007321684645
:1033700000F0D2FD8DF872007321684601F0C2FCA6
:103380000546002D03DA29462CA0FFF701FB28464D
:10339000ADE7000067697A50726F746F636F6C47B6
:1033A0006574446576696365496E666F204572721F
:1033B0006F72202C20496C6C6567616C20506172C3
:1033C000616D0A00303030303030303400000000A1
:1033D00030303030303030320000000030333033A5
:1033E0003030303000000000303330313031303098
:1033F000000000003966386437326238643632665D
:1034000034326632613937353835363735306639DA
:1034100066616463000000003361653264613539C0
:1034200035616335343138303930346436343232D2
:103430003835383531663534000000004552523A8F
:103440002075617274207772697465206572726F7D
:1034500072202564200A00002DE9FE4F80460E46AA
:1034600017464FF0000B002002908146824600254F
:1034700034460090B8F1000F01D006B137B950A022
:10348000FFF786FA4FF0FF30BDE8FE8F404601F0AF
:103490005DFB00F0FF0ABAF1000F02D14FF0FF30E0
:1034A000F2E74FF000095DE0012201A9404601F07A
:1034B0008AFB8346BBF1000F52D04D480078FF28AD
:1034C0001FD19DF80400FF281BD14A48007848B955
:1034D000FF20207060700220474908800120454984
:1034E000087034E044480088042830DD42480088F1
:1034F000A8422CD0FF202070607002203E49088036
:1035000025E03B480078FF2803D19DF804005528AA
:103510001DD038480078012819D19DF8040036499B
:103520000988605434480088401C334908800846A4
:10353000008804280BDD0094009C6088FFF779FC6C
:10354000001D85B22C480088A84200D10CE09DF8EF
:1035500004002749087029480078401C2749087052
:1035600009F10109D1459FDB00BF234800880428E9
:1035700023DD21480088A8421FD11F48018820462A
:1035800000F0CAFC02901C480088401E215C029892
:1035900081420FD12A4621463046FCF7F4FD3D809A
:1035A0000020144908701449088014490870104913
:1035B000087069E76FF0010066E7012064E700002A
:1035C00067697A50726F746F636F6C4765744F6E82
:1035D000655061636B6574204572726F72202C2098
:1035E000496C6C6567616C20506172616D0A000006
:1035F0005400002050000020520000205500002000
:1036000010B504462CB907A0FFF7C2F94FF0FF3000
:1036100010BD002020606060FF20207060700020DE
:10362000F6E700004552523A2067697A50726F748B
:103630006F636F6C48656164496E69742068656189
:103640006420697320656D707479200A00000000A1
:103650002DE9F04F8DB006468B461746994600205F
:103660000C9082468046002501ACBBF1000F06D1CC
:1036700031A0FFF78DF9681E0DB0BDE8F08FB9F1EC
:10368000010F06D196F8088008F10600384485B28B
:1036900001E0781D85B22B46424639462CA0FFF743
:1036A00077F9FF2004F8010B04F8010B281204F845
:1036B000010B04F8015B3079401C04F8010B7079B0
:1036C00004F8010B002004F8010B04F8019B4FF0F3
:1036D000080AB9F1010F0DD104F8018B0AF1010AB2
:1036E00001A901EB0A00424606F10901FCF74BFD76
:1036F000C244444437B101A901EB0A003A46594695
:10370000FCF741FD291D01A800F006FC0146E81C5C
:1037100001AA1154291D01A801F0F4FA0C900C988B
:10372000002806DA14A00C99FFF732F96FF00100B7
:10373000A2E70020A0E700005B4552525D20206414
:10374000617461204973204E756C6C200A00000082
:103750006C656E203D202564202C20734469644CE8
:10376000656E203D202564202C646174615F6C656A
:103770006E203D2025640A0075617274207772699D
:103780007465206572726F72202564200A00000043
:103790002DE9F04780460C4617461D46089E94F8D2
:1037A00000900CB105B136B92EA0FFF7F1F84FF03B
:1037B000FF30BDE8F087B8F1000F51D11321354833
:1037C000FCF7FAFCB9F1010F06D0B9F1020F11D0E4
:1037D000B9F1050F42D121E02E4A4D322D49601C2E
:1037E000FFF7BEFB01202B49573908700025002048
:1037F000306034E027494C31881CFFF7EFFB48B9B3
:103800002448573890F8A3006870032028700220DD
:10381000306002E04FF0FF30CBE720E07A1E611C01
:103820001C484038FCF7AFFC781E1A495739C1F8DC
:103830002D0010211748573890F8572058308154E0
:10384000583890F85700401C1249573981F85700F2
:103850000320087000250020306000E000BF00BF9A
:103860000020A6E767697A50726F746F636F6C49C6
:10387000737375656450726F6365737320457272FC
:103880006F72202C20496C6C6567616C20506172EE
:10389000616D0A005705002070B5044625462CB915
:1038A0000FA0FFF775F84FF0FF3070BD412205F112
:1038B00008010F48FCF767FC0F210D48B33890F85A
:1038C000902091308154913890F89000401C084924
:1038D000B33981F89000052008700020E5E700006A
:1038E0004E545020697320656D707479200A000071
:1038F000B305002010B504462CB9CAA0FFF748F85C
:103900004FF0FF3010BD2089FFF793FA2081D14896
:103910000078C0F38000217AC1F38001884256D03C
:10392000207AC0F38000002829D0207A00F001001E
:1039300078B10021C84890F86A206B3081546B3808
:1039400090F86A00401CC44981F86A00C3A0FFF7E0
:103950001FF8207AC0F34000002838D00121BE486B
:1039600090F86A206B3081546B3890F86A00401CE4
:10397000B94981F86A00C1A0FFF70AF827E0207A68
:1039800000F0010078B10021B34890F86A206B3054
:1039900081546B3890F86A00401CAF4981F86A0086
:1039A000AEA0FEF7F5FF207AC0F3400078B1022107
:1039B000A94890F86A206B3081546B3890F86A00FF
:1039C000401CA54981F86A00B3A0FEF7E1FFA148B9
:1039D0000078C0F3C000217AC1F3C00188422CD026
:1039E000207AC1089B48007861F3C30099490870A8
:1039F000207AC0F3C00080B10321974890F86A2074
:103A00006B3081546B3890F86A00401C924981F801
:103A10006A00A8A0FEF7BCFF0FE004218E4890F8D2
:103A20006A206B3081546B3890F86A00401C8A49D8
:103A300081F86A00A7A0FEF7ABFF86480078C0F3C4
:103A40000010217AC1F3001188422CD0207A01099C
:103A50008048007861F304107E490870207AC0F332
:103A6000001080B105217C4890F86A206B308154A9
:103A70006B3890F86A00401C774981F86A009DA075
:103A8000FEF786FF0FE00621734890F86A206B303E
:103A900081546B3890F86A00401C6F4981F86A00C5
:103AA0009CA0FEF775FF6B480078C0F34010217AA8
:103AB000C1F3401188422CD0207A41096548007832
:103AC00061F3451063490870207AC0F3401080B15B
:103AD0000721614890F86A206B3081546B3890F868
:103AE0006A00401C5C4981F86A0093A0FEF750FF11
:103AF0000FE00821584890F86A206B3081546B38E9
:103B000090F86A00401C544981F86A0091A0FEF7C1
:103B10003FFF50484078C0F3C001607AC0F3C00056
:103B200081422CD0607AC1084A48407861F3C300D2
:103B300048494870607AC0F3C00080B10B21464804
:103B400090F86A206B3081546B3890F86A00401C02
:103B5000414981F86A0087A0FEF71AFF0FE00C21A7
:103B60003D4890F86A206B3081546B3890F86A00B9
:103B7000401C394981F86A0085A0FEF709FF3548E5
:103B80004078C0F30011607AC0F3001081422CD05D
:103B9000607A01092F48407861F304102D4948707C
:103BA000607AC0F3001080B109212B4890F86A2098
:103BB0006B3081546B3890F86A00401C264981F8BC
:103BC0006A007BA0FEF7E4FE0FE00A21224890F88D
:103BD0006A206B3081546B3890F86A00401C1E4993
:103BE00081F86A0079A0FEF7D3FE0D211A4890F8FB
:103BF0006A206B3081546B3890F86A00401C16497B
:103C000081F86A00607A00F0070081F8A600084693
:103C100090F8A61074A0FEF7BBFE02200E490870B3
:103C200000206FE667697A50726F746F636F6C4D36
:103C30006F64756C65537461747573204572726F2F
:103C400072202C20496C6C6567616C205061726138
:103C50006D0A000056000020000500204F6E426FE4
:103C6000617264696E673A20536F66744150206FC9
:103C70007220576562206D6F64650A004F6E426F57
:103C8000617264696E673A204169724C696E6B209B
:103C90006D6F64650A0000004F6E426F6172646967
:103CA0006E673A2053746174696F6E206D6F64653E
:103CB0000A00000057694669207374617475733A8D
:103CC00020696E2062696E64696E67206D6F64653D
:103CD0000A00000057694669207374617475733A6D
:103CE000206F75742062696E64696E67206D6F6401
:103CF000650A000057694669207374617475733AE8
:103D000020636F6E6E656374656420726F75746591
:103D1000720A000057694669207374617475733ABA
:103D200020646973636F6E6E656374656420726F7F
:103D3000757465720A0000005769466920737461E2
:103D40007475733A20636F6E6E6563746564206D7D
:103D5000326D0A0057694669207374617475733A4D
:103D600020646973636F6E6E6563746564206D3281
:103D70006D0A000057694669207374617475733A5F
:103D80002061707020636F6E6E6563740A000000BE
:103D900057694669207374617475733A206E6F2099
:103DA00061707020636F6E6E6563740A00000000BE
:103DB00057694669207374617475733A20696E207F
:103DC00074657374206D6F64650A000057694669F5
:103DD000207374617475733A206F75742074657301
:103DE00074206D6F64650A00525353492069732033
:103DF0002564200A0000000070B5044625462CB951
:103E000019A0FEF7C5FD4FF0FF3070BD1B48A96833
:103E10000160E9684160298A0181A97C8172A0F171
:103E2000A701B1F8A700FFF704F81449A739A1F8D2
:103E3000A700D1F8AF00FFF709F81049A739C1F87A
:103E4000AF000E210D48A73890F87D207E308154B8
:103E50007E3890F87D00401C0849A73981F87D0024
:103E6000042008700020D0E74552523A204E5450AA
:103E700020697320656D707479200A00A705002001
:103E800010B5FFF73DF9044600BFFFF739F9001BF5
:103E9000B0F5167FF9D900F053FE10BD10B500241F
:103EA0000E4890F83A0000B910BD0DA0FEF770FD65
:103EB0000A48B0F851103B3000F024FF0446074890
:103EC000B0F85100A04202D00DA0FEF761FDFFF74F
:103ED00017F90249C1F8530000BFE5E700050020CB
:103EE0005761726E696E673A2074696D656F75749B
:103EF0002C20726573656E642064617461200A0011
:103F00004552523A20726573656E64206461746133
:103F1000206572726F720A0010B5024600240023F9
:103F200002B109B9002010BD022303E0D05C204497
:103F3000C4B25B1C481E9842F8D82046F3E7000044
:103F400070B504460D462CB90FA0FEF721FD4FF0C9
:103F5000FF3070BD1E211248FCF72EF92A4621467B
:103F60000F48801CFCF70FF90D483938A0F8515064
:103F7000012180F83A10FFF7C3F809493939C1F82F
:103F800053000020E5E700004552523A2064617476
:103F90006120697320656D707479200A000000004B
:103FA0003905002070B50446094D2CB909A0FEF76B
:103FB000EFFC4FF0FF3070BD2879401C217988421A
:103FC00004D11E210248801EFCF7F6F80020F2E71B
:103FD0003B0500204552523A2064617461206973A8
:103FE00020656D707479200A0000000070B50446E9
:103FF0000D46002624B90AA0FEF7CAFC701E70BD4B
:104000002A4621460E4800F02FFE0646AE4205D055
:104010000CA0FEF7BDFC4FF0FF30F0E73046EEE7B6
:104020004552523A2067697A507574446174612030
:1040300062756620697320656D707479200A0000CE
:10404000F40500204552523A204661696C656420AF
:10405000746F2072625772697465200A0000000054
:10406000FEB505460E461746002426B91EA0FEF7EB
:104070008FFC601EFEBD6846FFF7C2FA05208DF872
:104080000400234890F83110D0F83100401C204A39
:10409000C2F83100C8B28DF805008DF8085007202D
:1040A000FEF7C7FEADF802003A4631460DF10900B1
:1040B000FCF769F80B216846FFF72EFF8DF80A0020
:1040C0000B21684600F01EFE0446002C06DA21464D
:1040D00010A0FEF75DFC6FF00100CBE70B216846F6
:1040E000FFF72EFF2046C5E767697A5265706F7249
:1040F0007444617461204572726F72202C20496C87
:104100006C6567616C20506172616D0A000000008F
:10411000000500204552523A207561727420777272
:10412000697465206572726F72202564200A000030
:104130002DE9F04704460D461746089E4FF000094A
:10414000CA46C8461BB94FF0FF30BDE8F087394674
:104150002846FEF791FE8046B8F1000F07D1185DA2
:1041600005F0070106FA01F1084318551EE0B8F101
:10417000010F1BD1F0B205F00701C1F1080140FAAF
:1041800001F905F00700C0F10801FF20084100EA2D
:10419000060A601C185C40EA0900611C5854185D4E
:1041A00005F007010AFA01F1084318550020CCE791
:1041B0002DE9F04F8FB005460C4616469946189FDC
:1041C0004FF0000AD34600200E908046B9F1000F50
:1041D00000D027B94FF0FF300FB0BDE8F08F3A465E
:1041E000494601A8FBF7CFFF012F09D9394601A89D
:1041F000FEF757FEB0F1FF3F02D14FF0FF30EBE783
:1042000031462046FEF738FE8246BAF1000F0CD147
:1042100001A8405D04F007010841C6F10802FF2132
:104220001141084040EA080821E0BAF1010F1ED10F
:1042300001A9681C085C04F00701C1F10801711AAA
:10424000C1F10802FF21114100EA010B01A8405D04
:1042500004F0070108410E9004F00700C0F10801C6
:104260000BFA01F040EA08080E9848EA00084046B8
:10427000B2E7000002480068401C0149086070472E
:10428000400000202DE9F04F87B006460D469346CA
:104290004FF000082F46A9462C46002005900690B6
:1042A000AA4606B125B94FF0FF3007B0BDE8F08F40
:1042B0004FF000086FE0701C10F80800122864D25C
:1042C000DFE800F01B1C1D63631E1F202463636373
:1042D000632832572E09387831490870084601782A
:1042E00030A0FEF755FB2E480078012802D1FDF7DB
:1042F000C7F901E0FDF7B8F948E047E046E045E0DE
:1043000044E043E001202F4908703FE000202D49A0
:1043100008703BE099F800102BA0FEF739FB35E060
:104320002CA0FEF735FB31E0A17962792379A068F2
:10433000CDE90032CDE90210E378A27821882AA0E5
:10434000FEF726FB2088ADF81400A0788DF8160043
:10435000E0788DF8170020798DF8180060798DF8D5
:104360001900A0798DF81A00DDE90501FCF72CFF92
:104370000CE028A0FEF70CFB2BA0FEF709FB9AF837
:1043800000102DA0FEF704FB00E000BF00BF08F105
:10439000010000F0FF08307840458CDC002084E705
:1043A000450000204576743A204556454E545F4CF2
:1043B0006564537461747573466C6167202564206D
:1043C0000A00000044000020525353492025640A8B
:1043D000000000005452414E53504152454E545F2C
:1043E00044415441200A0000574946495F4E545009
:1043F000203A205B25642D25642D2564202530324C
:10440000643A253032643A253032645D5B25645D60
:10441000200A00004D4F44554C4520494E464F2040
:104420002E2E2E0A00000000574946204D4F4455BD
:104430004C45202E2E2E0A006D6F64756C655479E4
:104440007065203A205B25645D200A003EB500249B
:104450006846FFF7D5F817208DF80400134890F848
:104460003110D0F83100401C104AC2F83100C8B2F7
:104470008DF805000520FEF7DCFCADF802000921EF
:104480006846FFF749FD8DF808000921684600F0ED
:1044900039FC0446002C03DA214605A0FEF778FA21
:1044A00009216846FFF74CFD3EBD000000050020D5
:1044B0004552525B4E54505D3A20756172742077BC
:1044C00072697465206572726F72202564200A001B
:1044D0002DE9F0478EB00646002700250020029007
:1044E000019000248146804636B98EA0FEF750FA2E
:1044F000601E0EB0BDE8F087FEF708FE02AA9349E1
:104500009348FEF7A9FF0746002F70D191A0FEF750
:104510003FFAFEF7F5FD8246BDF80820514692A00D
:10452000FEF736FA002506E08848415D93A0FEF7C5
:104530002FFA681C85B2BDF808008542F4DB91A013
:10454000FEF726FA814C20790F2851D00ADC0E287C
:1045500074D2DFE800F07316731A737344397373FF
:104560004573463D182854D006DC112849D014283C
:1045700048D0162862D135E0222854D02A285DD1AF
:1045800031E02046FEF7AAFE60E0E279A1797EA044
:10459000FEF7FEF901A8009008F10900BDF8083007
:1045A0001A1A6A48083000EB080103AB4846FFF7C7
:1045B000EFF840B9E37903A92046019AFFF748F8DC
:1045C00075A0FEF7E5F941E02046FEF7E5FD3DE088
:1045D0002046FEF7E1FD2046FFF78CF936E000BFEC
:1045E00000BF00BF00BF2046FFF7DCFC2EE02EE03E
:1045F0002046FEF7D1FD6BA0FEF7CAF9FFF740FC9D
:1046000024E023E02046FFF7CDFC6BA0FEF7C0F9C5
:104610001CE02046FFF7C6FC2046FFF7EDFB6EA02E
:10462000FEF7B6F912E02046FFF7BCFC2046FFF784
:1046300033F96FA0FEF7ACF908E0FFE7022120464E
:10464000FEF7FAFD71A0FEF7A3F900BF0DE017F128
:10465000020F0AD13D4C01212046FEF7EDFD71A06D
:10466000FEF796F96FF0010043E73848401E0078E6
:10467000062850D2DFE800F04F0313232F3F00201D
:104680003249491E08700122A431A1F14D00FFF703
:10469000F9FD13212D485630FBF78EFD3CE000203C
:1046A0002A49491E08700122A631A1F13C00FFF7FA
:1046B000E9FD132125486930FBF77EFD2CE0002041
:1046C0002249491E08700846D0F82D20173157306E
:1046D000FFF7D8FD20E000201C49491E08700C227D
:1046E000A731A1F12A00FFF7CDFD132117487C3037
:1046F000FBF762FD10E000201449491E08704122BA
:10470000B331A1F12300FFF7BDFD41210F488F30E8
:10471000FBF752FD00E000BF00BF3046FEF792FC01
:104720000020E6E647697A7769747348616E646CC5
:1047300065204572726F72202C20496C6C65676130
:104740006C20506172616D0A0000000001050020BC
:10475000F4050020476574204F6E65205061636B3F
:104760006574210A0000000057694669324D4355BF
:104770005B2534643A2534645D3A20002530327874
:10478000200000000A000000666C61672025782088
:104790002578200A0000000041636B4461746120A9
:1047A0003A200A007265706F72743A4D4355207258
:1047B00065626F6F74210A0041636B2050524F4451
:1047C000554354494F4E5F4D4F44452073756363C5
:1047D000657373200A00000041636B204745545FF6
:1047E0005554542073756363657373200A00000089
:1047F00041636B204745545F4D6F64756C65207352
:10480000756363657373200A000000004552523AD5
:1048100020636D6420636F6465206572726F72211E
:104820000A0000004552523A20636865636B2073AA
:10483000756D206572726F72210A000010B52C2010
:10484000094908600948C860084600F0B1F918B97C
:1048500007A0FEF79DF802E00AA0FEF799F8F42100
:104860000D48FBF7A9FC10BDF4050020040600204C
:104870007262437265617465205375636365737317
:10488000200A0000726243726561746520466169A6
:104890006C64200A000000000005002030B587B0DD
:1048A00005460024062D7CD2DFE805F003305F903A
:1048B000BDEA01A8FEF7A4FE0B208DF808008B4886
:1048C00090F83110D0F83100401C884AC2F831000D
:1048D000C8B28DF809000520FEF7ABFAADF8060066
:1048E000092101A8FFF718FB8DF80C00092101A888
:1048F00000F008FA0446002C03DA21467CA0FEF7FB
:1049000047F8092101A8FFF71BFBEAE004A8FEF71E
:1049100077FE09208DF81400744890F83110D0F813
:104920003100401C714AC2F83100C8B28DF8150040
:104930008DF818500620FEF77CFAADF812000A2117
:1049400004A8FFF7E9FA8DF819000A2104A800F07D
:10495000D9F90446002C03DA214665A0FEF718F8C1
:104960000A2104A8FFF7ECFABBE004A8FEF748FE12
:1049700009208DF814005D4890F83110D0F831000E
:10498000401C5A4AC2F83100C8B28DF815008DF8A3
:1049900018500620FEF74DFAADF812000A2104A8BF
:1049A00000E09AE0FFF7B8FA8DF819000A2104A890
:1049B00000F0A8F90446002C03DA21464CA0FDF7CC
:1049C000E7FF0A2104A8FFF7BBFA8AE001A8FEF777
:1049D00017FE13208DF80800444890F83110D0F8E5
:1049E0003100401C414AC2F83100C8B28DF80900BC
:1049F0000520FEF71EFAADF80600092101A8FFF711
:104A00008BFA8DF80C00092101A800F07BF904460F
:104A1000002C03DA214636A0FDF7BAFF092101A8D0
:104A2000FFF78EFA5DE001A8FEF7EAFD15208DF88C
:104A300008002E4890F83110D0F83100401C2B4A65
:104A4000C2F83100C8B28DF809000520FEF7F1F96F
:104A5000ADF80600092101A8FFF75EFA8DF80C00F9
:104A6000092101A800F04EF90446002C03DA214682
:104A70001FA0FDF78DFF092101A8FFF761FA30E0C3
:104A800001A8FEF7BDFD29208DF80800174890F811
:104A90003110D0F83100401C144AC2F83100C8B2BD
:104AA0008DF809000520FEF7C4F9ADF806000921CC
:104AB00001A8FFF731FA8DF80C00092101A800F0D8
:104AC00021F90446002C03DA214609A0FDF760FF16
:104AD000092101A8FFF734FA03E00CA0FDF758FF05
:104AE00000BF00BF204607B030BD00000005002019
:104AF0004552523A2075617274207772697465204C
:104B00006572726F72202564200A00004552523A85
:104B1000204366674D6F6465206572726F72210A6B
:104B200000000000FCF77EFCFBF77BFC07E0FCF7D5
:104B3000DFF8FDF77FFEFDF7A1F9FCF7EFFEF6E7E2
:104B4000012080F3138800BF00BFFEE700B50246D6
:104B500012B94FF0FF3000BD50689168884201D112
:104B60000020F8E750689168884203D29068516845
:104B7000401AF0E7104600F014F851689368C91A1B
:104B8000401AE8E730B5044614B94FF0FF3030BDA5
:104B9000204600F006F805462046FFF7D7FF281A02
:104BA000F5E7014611B94FF0FF3070470868FCE7A0
:104BB000014611B94FF0FF307047C8684860C868B7
:104BC00088600020F8E72DE9F04104460F461646BC
:104BD000002514B9681EBDE8F08117B94FF0FF3009
:104BE000F9E76068A168884214D22046FFF7AEFF5B
:104BF000B04201D9304602E02046FFF7A7FF054644
:104C000061682A463846FBF7BEFA6068284460604F
:104C10002846E0E72046FFF7C4FF6168E268891A8A
:104C2000401AB0420AD9354661682A463846FBF731
:104C3000AAFA6068284460602846CCE72046FFF75F
:104C4000B0FF6168E268891A451A61682A463846E9
:104C5000FBF799FAE0686060721B79192046FFF74C
:104C6000B2FF05442846B6E72DE9F04104460F4659
:104C70001546002604B11FB94FF0FF30BDE8F081A2
:104C80002046FFF77FFFA84202D86FF00100F5E74A
:104C90006068A16888422AD82046FFF782FFA16891
:104CA000E268891A461AB54213D8A0682A463946DE
:104CB000FBF769FAA0682844A0602046FFF771FF5F
:104CC000E1680844A168884201D1E068A0602846F4
:104CD000D4E7A06832463946FBF755FAE068A06091
:104CE000AA1BB9192046FFF7BFFF3044C6E7A068EA
:104CF0002A463946FBF747FAA0682844A0602846B0
:104D0000BCE70000F8B505460E461CA00068009000
:104D100000240DB9601EF8BD00240DE02819012102
:104D2000FDF73BF9022C06D3285DFF2803D10121B2
:104D30006846FDF732F9641CB442EFD3FEF7E0F9A0
:104D40000746324639460EA0FDF722FE00240DE04C
:104D5000295D10A0FDF71CFE022C06D3285DFF285C
:104D600003D155210BA0FDF713FE641CB442EFD311
:104D70000AA0FDF70DFE3046CDE70000550000000B
:104D80004D435532576946695B2534643A2534648E
:104D90005D3A200025303278200000000A00000033
:104DA00010B5FCF7C1F818B900200349087002E0FB
:104DB00001200149087010BD450000200148002174
:104DC00001707047450000201F1C1F1E1F1E1F1F63
:104DD0001E1F1E1F00030306010406020500030533
:104DE000E3070606101E1E0400000000000C014030
:104DF000100000000000000000080103080000008F
:104E0000020000000008014018000000010000003E
:104E1000010003030400000003000000000801403B
:104E2000180000000100000002000303040000005D
:104E3000040000000008014018000000010000000C
:104E400040000303040000000500000000080140CA
:104E500018000000010000008000030304000000AF
:104E600001000000000C01401800000001000000DB
:104E7000010003030800000006000000000C0140D0
:104E80000000000000020000020003000800000013
:104E900007000000000C0140480000000000000076
:104EA00000040203080000000800000000080140A0
:104EB00018000000000000000002010304000000D0
:104EC000090000000008014004000000000000008C
:104ED00000040203040000000A0000000008014072
:104EE000180000000000000004000103040000009E
:104EF0000B0000000008014004000000000000005A
:104F0000080002030400000000000000000400404C
:104F10000200000002000000FF030000000000008B
:104F200070000100020000000100000000000040CD
:104F30000000000001000000FF030000000000006E
:104F400070000100020000000200000000000040AC
:104F50000100000001000000FF030000000000004D
:104F60007000010002000000030000000004004087
:104F70000000000002000000FF030000000000002D
:104F80007000010002000000040000000004004066
:104F90000100000002000000FF030000000000000C
:104FA000700001000200000000000000004000004E
:104FB000003801402501030000C20100000000008C
:104FC000000000000C0000000100000000000200D2
:104FD000004400402602030080250000000000007D
:104FE000000000000C000000000000000024014050
:104FF0000900000000800000000000000000000028
:1050000000000E0000000000010700002C50000806
:105010000000002090000000B0290008BC500008EB
:1050200090000020A00D0000C02900080000000032
:105030000000000000000000000000000000000070
:10504000000000000100000000000000000000005F
:10505000000000004400000000000000000000000C
:105060000000000000000000FF0000000000000041
:105070000000000000000000000000000000000030
:10508000000000000000000000A24A040000000030
:1050900000000000010203040607080900000000E8
:1050A00000000000000102030401020304060708D7
:0C50B000090204060800000000000000D7
:04000005080000ED02
:00000001FF
