:020000040800F2
:10000000900E0020010100085B1A00085D16000830
:10001000511A000879040008B52700080000000004
:10002000000000000000000000000000991E000811
:10003000DD040008000000005D1B0008F920000836
:10004000BF270008451B000865210008E51D0008C2
:100050006B0D0008211D0008250D0008390D000852
:10006000430D00084D0D0008570D000897040008C7
:10007000A1040008AB040008B5040008BF04000890
:10008000C9040008D304000831020008A1270008B1
:10009000AB270008830400088D040008610D0008E8
:1000A0006F2100088D2100088321000879210008B4
:1000B00097210008A1210008AB2100087116000853
:1000C00067160008851600087B160008851E0008C4
:1000D0008F1E000839250008432500084D2500081B
:1000E0002F0D00087D1D000897270008DFF80CD0B1
:1000F00000F08CF800480047CD4E0008900E00201C
:100100000648804706480047FEE7FEE7FEE7FEE7B1
:10011000FEE7FEE7FEE7FEE7FEE7FEE70521000853
:10012000ED0000082DE9F05F0546002092469B4651
:1001300088460646814640241BE0284641464746FD
:10014000224600F053F853465A46C01A914110D344
:1001500011461846224600F03AF82D1A67EB0108BE
:100160004F4622460120002100F031F817EB00092C
:100170004E41201EA4F10104DFDC484631462A46E8
:100180004346BDE8F09F40EA01039B0703D009E026
:1001900008C9121F08C0042AFAD203E011F8013B73
:1001A00000F8013B521EF9D27047D2B201E000F8CC
:1001B000012B491EFBD270470022F6E710B513460B
:1001C0000A4604461946FFF7F0FF204610BD202AD4
:1001D00004DB203A00FA02F1002070479140C2F19E
:1001E000200320FA03F3194390407047202A04DBD0
:1001F000203A21FA02F00021704721FA02F3D040A0
:10020000C2F120029140084319467047064C074D41
:1002100006E0E06840F0010394E8070098471034D6
:10022000AC42F6D3FFF766FF0054000820540008E4
:1002300010B51A2001F006F910BD21B1826842F014
:100240000102826003E0826822F00102826070474E
:1002500010B504461248844208D10121401501F02E
:10026000C1FC0021601501F0BDFC17E00D4884427F
:1002700008D10121001501F0B5FC0021201501F085
:10028000B1FC0BE00848844208D10121C80301F009
:10029000A9FC00214FF4004001F0A4FC10BD0000B7
:1002A0000024014000280140003C0140014600209C
:1002B0008A6802F004020AB1012000E000207047C1
:1002C0000146C86C80B270470246002013680B409C
:1002D0000BB1012000E000207047014600208A6831
:1002E00002F008020AB1012000E00020704700007F
:1002F00030B502460020002350680F4C20400D7995
:100300000C6844EA05242043506090680B4C204060
:10031000D1E902542C434D7944EA450420439060CE
:10032000D06A20F470000C7C641EE4B2234340EADF
:100330000350D06230BD0000FFFEF0FFFDF7F1FF7B
:10034000F0B504460D4600200021092D11DDE068BE
:10035000A5F10A0606EB4607072606FA07F18843C9
:10036000A5F10A0606EB460603FA06F10843E0602B
:100370000CE0206905EB4507072606FA07F18843DC
:1003800005EB450603FA06F108432061072A0FDA58
:10039000606B561E06EB86071F2606FA07F1884398
:1003A000561E06EB860605FA06F10843606322E056
:1003B0000D2A0FDA206BD61F06EB86071F2606FADA
:1003C00007F18843D61F06EB860605FA06F10843B7
:1003D000206310E0E06AA2F10D0606EB86071F26F7
:1003E00006FA07F18843A2F10D0606EB860605FA28
:1003F00006F10843E062F0BD816841F008018160C8
:10040000704721B1826842F4A002826003E08268F2
:1004100022F4A00282607047816841F0040181608B
:10042000704710B502F07EFA01F06CF910BD10B5FE
:10043000012001F0E7FB002001F0E4FB10BD00000B
:1004400008B5014600200090034800900098084439
:1004500000900098008808BD006C004008B500229C
:100460000092044A0092009A02440092009A11609D
:1004700008BD0000006C004010B5032000F0E2FF52
:1004800010BD10B51D2000F0DDFF10BD10B51E2001
:1004900000F0D8FF10BD10B5132000F0D3FF10BD41
:1004A00010B5142000F0CEFF10BD10B5152000F0DF
:1004B000C9FF10BD10B5162000F0C4FF10BD10B567
:1004C000172000F0BFFF10BD10B5182000F0BAFFD4
:1004D00010BD10B5192000F0B5FF10BD10B50620F5
:1004E00000F0B0FF10BD000030B585B03A4D1421CA
:1004F0006846FFF761FE002400BF69E004EBC40119
:1005000005EB8101C86801F031FB04EBC40105EB88
:1005100081014868FFF79CFE04EBC40005EB8000F6
:100520000069009004EBC40005EB8000007D8DF8AD
:10053000040004EBC40005EB8000407D8DF805004D
:1005400004EBC40005EB80008069029004EBC4005A
:1005500005EB8000C069039004EBC40005EB80004C
:1005600090F820008DF8100004EBC40105EB810128
:1005700048686946FFF7BCFE04EBC40105EB810146
:1005800048680121FFF759FE04EBC40105EB810126
:100590004868FFF731FF00BF04EBC40105EB8101A0
:1005A0004868FFF79AFE0028F6D104EBC40105EB7A
:1005B00081014868FFF730FF00BF04EBC40105EB81
:1005C00081014868FFF772FE0028F6D1601CC4B2B2
:1005D000012C93DB05B030BDDC5300082DE9F04160
:1005E00004461E4D4FF6FF774FF44856012C33DA80
:1005F00004EBC40205EB820292F8213004EBC40242
:1006000005EB8202117A04EBC40205EB820250680A
:100610000122FFF795FE04EBC40105EB8101486858
:100620000121FFF7EEFE00BF701E86B216B93846F4
:10063000BDE8F08104EBC40105EB810148680221AB
:10064000FFF742FE0028EFD004EBC40105EB810167
:100650004868FFF735FE07463846E9E7DC530008EF
:100660000848006840F0807006490860002006498C
:1006700048600846006840F0010008600120034916
:1006800008707047FCED00E0001000E070000020F2
:1006900000B585B014216846FFF78EFD684601F06D
:1006A000B7FA019805B000BD0148406870470000E6
:1006B000001000E038B50020009000242E4D00BF4F
:1006C00053E004EB440105EBC101496904EB44022A
:1006D00005EBC202D26841EA0200012101F072FA80
:1006E00004EB440005EBC000008AADF8000004EB09
:1006F000440005EBC000007A8DF8030004EB4400D1
:1007000005EBC000C07C8DF8020004EB440105EB52
:10071000C1014868694600F02DFB04EB440005EB7D
:10072000C000807C01280CD104EB440205EBC2021E
:10073000118A04EB440205EBC202506800F0B0FBE2
:1007400011E004EB440005EBC000807C58B904EBD9
:10075000440205EBC202118A04EB440205EBC2021B
:10076000506800F09BFB601CC4B20C2CA9DB01207C
:100770000249087038BD0000DC51000871000020FB
:1007800070B504460C4D002604EB440005EBC00098
:10079000807C022801D0042070BD04EB440205EBEC
:1007A000C202118A04EB440205EBC202506800F059
:1007B0006CFB06463046EFE7DC51000870B5044696
:1007C0000025064901EB4411886840F2255101F0EB
:1007D0001DFF00B10125284670BD00009C53000894
:1007E00070B504460025064901EB4411886840F2C3
:1007F000277101F00BFF00B10125284670BD0000F4
:100800009C53000830B587B0002400200490059068
:10081000069000900190029003903F4D00BF77E05A
:1008200005EB4411C868012101F0ACF905EB441057
:10083000008AADF8140005EB4410408AADF81000B2
:1008400005EB4410808AADF8160005EB4410C08A11
:10085000ADF8120005EB4411486804A901F01AFE36
:1008600005EB4410008BADF8000005EB4410408B05
:10087000ADF8020005EB4410808BADF8080005EBE5
:100880004410007A30B1012811D002281CD003286E
:1008900034D126E005EB44114868694601F096FC26
:1008A00005EB44114868082101F0DCFC27E005EB6A
:1008B00044114868694601F0DFFC05EB44114868C3
:1008C000082101F02BFD1AE005EB44114868694648
:1008D00001F032FD05EB44114868082101F07CFD70
:1008E0000DE005EB44114868694601F07FFD05EB1A
:1008F00044114868082101F0B7FD00E000BF00BFC7
:1009000005EB44114868012101F054FC601CC4B29D
:10091000052C85DB07B030BDFC52000870B50446DD
:100920000E46174D052C00DB70BD05EB4410007A18
:1009300030B101280BD0022810D003281CD114E0BC
:1009400005EB44114868314601F09BFD15E005EBCD
:1009500044114868314601F096FD0EE005EB441164
:100960004868314601F091FD07E005EB4411486805
:10097000314601F08CFD00E000BF00BF00BFD3E7AF
:10098000FC5200080022002100BF05E0FF2200BF4A
:10099000521E002AFCD1491C8142F7D37047000047
:1009A0000020034908880004091D0988084470478D
:1009B0001828004010B5002401214FF0C05001F06C
:1009C000E1F8012001F0C4F80420FFF739FD45F2F9
:1009D0005001884245D0FFF72AFD012001F0A6F919
:1009E00000BF601CC4B20A20FFF7CCFFFA2C00DB6A
:1009F00004E0412001F076F90028F2D000BFFA2C83
:100A000004DB4FF4407001F0B1F903E04FF40070E3
:100A100001F0ACF9012001F0A3F901F017FA01F09F
:100A20001FFA0121084601F0E3F901F00FFA01F085
:100A3000B3F9FA2C04DB4FF2234001F0F7F903E09D
:100A400047F6FF7001F0F2F901F000FA002000F023
:100A50003BF801F0ABF945F250010420FFF7FEFC32
:100A600007E001F0FDF90121084601F0C1F901F0AC
:100A7000EDF900F011F810BD10B5012001F0A0F95A
:100A800008B1012010BD0020FCE710B5052001F0E1
:100A90007BF901F0DBF910BD1CB50020019009487D
:100AA00000680190009003208DF8000000208DF870
:100AB00001008DF8020001208DF80300684600F067
:100AC000D1FF1CBD8900002010B5044601214FF064
:100AD000C05001F057F8012001F03AF8204601F02B
:100AE00097F901F0B3F910BD4FF0E020006920F054
:100AF00002004FF0E021086170474FF0E0200069EC
:100B000040F002004FF0E021086170474FF0E02014
:100B1000006940F001004FF0E021086170474FF09C
:100B2000E02148617047000030B585B00020019099
:100B3000029003900490009000243E4D00BF71E0AD
:100B400005EB441080683C49884211D005EB441005
:100B500080683A4988420BD005EB441080683849D8
:100B6000884205D005EB441080683649884206D19A
:100B700005EB44114868012101F004F805E005EB9C
:100B800044114868012101F01DF805EB4411886803
:100B900001F0EEFC05EB4410007B8DF8000005EB46
:100BA0004410407B8DF8010005EB4410807B8DF8EC
:100BB000020001208DF80300684600F053FF05EBAA
:100BC00044100069019005EB4410808AADF80800DC
:100BD00005EB4410C08AADF80A0005EB4410008B09
:100BE000ADF80C0005EB4410408BADF8100005EBA0
:100BF0004410808BADF80E0005EB4411886801A904
:100C000001F054FD05EB44110122886840F22551A2
:100C100001F026FD05EB44118868012101F09BFCE1
:100C2000601CC4B2022C8BDB01200749087005B0A0
:100C300030BD00009C5300080044004000480040C4
:100C4000004C0040005000407200002010B50446E7
:100C5000034901EB4411886801F094FDC0B210BD56
:100C60009C53000810B50446044901EB44110022CE
:100C7000886840F2255101F0F3FC10BD9C53000838
:100C800010B50446044901EB44110122886840F282
:100C9000255101F0E5FC10BD9C53000810B5044639
:100CA000044901EB44110022886840F2277101F0E9
:100CB000D7FC10BD9C53000810B50446044901EB55
:100CC00044110122886840F2277101F0C9FC10BD6F
:100CD0009C53000870B504460D46044901EB4411CD
:100CE0008868294601F053FD70BD00009C53000840
:100CF00010B500F0D5FC10BD10B545F2555000F010
:100D0000E3FC042000F0D4FCBB2000F0D7FC00F092
:100D1000C7FC00F0BDFC01200149087010BD0000B7
:100D20008800002010B50E2000F08CFB10BD10B51F
:100D3000302000F087FB10BD10B50F2000F082FBC3
:100D400010BD10B5102000F07DFB10BD10B51120B6
:100D500000F078FB10BD10B5122000F073FB10BD41
:100D600010B51F2000F06EFB10BD10B50C2000F078
:100D700069FB10BD2DE9F041024600250026002048
:100D800000230024002791F803C00CF00F0591F810
:100D900003C00CF0100CBCF1000F03D091F802C09E
:100DA0004CEA050591F800C0BCF1000F31D0146881
:100DB00000202BE04FF0010C0CFA00F3B1F800C05A
:100DC0000CEA03069E4220D183004FF00F0C0CFA70
:100DD00003F7BC4305FA03FC4CEA040491F803C092
:100DE000BCF1280F06D14FF0010C0CFA00FCC2F840
:100DF00014C00AE091F803C0BCF1480F05D14FF0D0
:100E0000010C0CFA00FCC2F810C0401C0828D1D319
:100E10001460B1F800C0BCF1FF0F34DD546800204D
:100E20002EE000F1080C4FF0010808FA0CF3B1F8BD
:100E300000C00CEA03069E4221D183004FF00F0C44
:100E40000CFA03F7BC4305FA03FC4CEA040491F8DE
:100E500003C0BCF1280F05D100F1080C08FA0CF80A
:100E6000C2F8148091F803C0BCF1480F07D100F11B
:100E7000080C4FF0010808FA0CF8C2F81080401C6A
:100E80000828CED35460BDE8F08102460020936864
:100E90000B400BB1012000E000207047416170471A
:100EA0000161704710B5FFF71FFB10BD01460248F6
:100EB00010F8110070470000560000200021024A7F
:100EC00002F8101070470000560000200348006828
:100ED000401C0249086072B67047000038000020CC
:100EE0000648006820B105480068401E03490860B4
:100EF0000248006800B962B6704700003800002060
:100F00000448006810B103480068804772B600BF0B
:100F1000FEE700003C0000200146024800EB4100D3
:100F2000407870475600002010B5FFF7C3FBFFF76D
:100F300069FC10BD70B5002400260D4D00BF13E004
:100F4000E01DC6B23046FFF71BFC30B9285DFF2814
:100F500005DA285D401C285501E000202855204670
:100F600000F008F8601CC4B2012CE9DB70BD000081
:100F7000E804002070B50446484D494E06EB440095
:100F80004078072874D2DFE800F004112C474F5650
:100F90006000285D032808DB012006EB440148704F
:100FA00000F0CCFD291D41F8240062E0285D40B925
:100FB000022006EB4401487000F0C0FD291D41F8F5
:100FC0002400291D51F8240000F08EFD3549884287
:100FD00006D3042006EB44014870012006F81400F3
:100FE00047E0291D51F8240000F07EFD2E4988427B
:100FF00006D3032006EB44014870012006F81400D4
:1010000005F10C00005D30B9285D032803DB0520E5
:1010100006EB440148702CE016F8140018B90020C3
:1010200006EB4401487024E0285D18B9002006EB67
:10103000440148701DE0285D30B9062006EB4401EC
:101040004870012006F8140013E016F8140068B97F
:10105000002006EB44014870012105F10C00015508
:1010600000F06CFD05F1080141F8240001E0FFE704
:1010700000BF00BF05F10C00005D01280CD105F197
:10108000080151F8240000F02FFD0849884203D3DD
:10109000002105F10C00015570BD0000E80400209E
:1010A0005600002040420F00F049020080841E00DC
:1010B000F0B503460C4615460022002600216420A8
:1010C00093FBF0F0C6B2642093FBF0F700FB1730FF
:1010D000C1B2132E02DD01F16400C1B20846CF1780
:1010E00001EB977701EBA707BAB2072092FBF0F765
:1010F00000FB172082B25719601EDFF830C01CF8C1
:101100000000384482B2CF1701EB9777BF10A1EBF4
:1011100087071FB9032C01DA501E82B2072092FB09
:10112000F0F700FB1720C0B2F0BD0000C851000866
:101130001CB50B4C0B4903C9CDE900010A490B2032
:1011400000F05AF9FFF736FC00F0A0F8208840F2D2
:10115000E371884203DADDE9000100F02FF81CBDDD
:101160004C000020D45100086D11000810B5FFF7A5
:1011700083FC012801D100F089F8FFF786FC10BD3F
:101180000146CA1701EB92729210A1EB820292B94A
:10119000642091FBF0F200FB121050B94FF4C870BC
:1011A00091FBF0F200FB121008B9012070470020FB
:1011B000FCE70120FAE70020F8E7000073B50025FE
:1011C0000024BDF8000040F2B271884205DBBDF892
:1011D000000040F63301884200DD7CBD40F2B2756C
:1011E0000BE02846FFF7CCFF012802D12348044436
:1011F00001E023480444681C85B2BDF80000A84201
:10120000EFDC9DF80200401EC0B28DF80200002500
:1012100012E01C48405D40F2A321484304EBC01497
:10122000BDF80000FFF7ACFF012803D1012D01D16B
:1012300015480444681C85B29DF80200A842E8DC09
:101240009DF80300401E40F2A321484304EBC01464
:101250009DF80400C0EB4011C1EB002004EB00142A
:101260009DF80500C0EB001004EB80049DF806001B
:1012700004442046FFF728FC00BFAEE70085E201EA
:101280008033E101BC510008805101002DE9F0419B
:10129000364DFFF785FB0746002400263448B7FB90
:1012A000F0F434480088A04238D032490C8040F233
:1012B000B2760FE0B0B2FFF763FF012807D1B4F5B3
:1012C000B77F02D3A4F5B77403E0761C05E0A4F25F
:1012D0006D14761CB4F5B67FECD800BF2E800026C6
:1012E00015E0B0B2FFF74CFF012806D1012E04D162
:1012F0001D2C01D31D3C09E00BE01F48805DA0427E
:1013000003D81D48805D241A00E002E0761C1C2CE6
:10131000E7D200BF701CA870601CE8701448B7FBCF
:10132000F0F100FB11744FF46160B4FBF0F0287130
:101330004FF46160B4FBF0F100FB11403C21B0FBC5
:10134000F1F068714FF46160B4FBF0F100FB114003
:101350003C21B0FBF1F201FB1200A871EA78A978F8
:101360002888FFF7A5FEE871BDE8F0814C00002059
:101370008051010054000020BC51000810B500202D
:10138000FFF72CF910BD000038B5184C184D00209F
:101390000090FFF725FA012812D16946204600F097
:1013A0007DFE022803D10020FFF778FC08E06946A3
:1013B000204600F08BFE9DF800100020FFF78AFC0D
:1013C0000020FFF7FBF901280ED10020FFF73EFCBB
:1013D00000909DF80010284600F03AFE054800688D
:1013E00010B104480068804738BD0000B8040020F0
:1013F000D00400204400002000B502460B46442AD9
:1014000006DAFFF763FD034840F82230FFF768FD76
:1014100000BD0000A800002010B5FFF76DFC00F033
:1014200023F8FFF781FDFFF73DFD00F049F8FFF7D6
:101430007FFEFFF715F910BD10B54FF4A06000F066
:1014400049FB10BD70B50446002505480470442CC6
:1014500004DA044850F8245005B1A84770BD0000D4
:1014600040000020A800002010B50024FFF7E4FF92
:1014700000BF05E004492046FFF7BEFF601CC4B270
:10148000442CF7DB10BD0000010F000870B50446C6
:101490000025094E09493068B0FBF1F5C81090FBF2
:1014A000F4F04543FFF720FB2846FFF738FBFFF732
:1014B0002DFBFFF722FB70BD7400002000127A00A4
:1014C00010B5002400BF18E0124A02EB042104EB1F
:1014D0004402114B03EB82004FF4807200F0D1FD07
:1014E0000E4A02EBC41104EB44020D4B03EB8200E5
:1014F000802200F0C6FD601CC4B2022CE4DB094966
:101500002D20FFF779FF08492E20FFF775FFFFF721
:101510000BFB10BDB8010020B8040020B803002068
:10152000D004002089130008ED15000870B50446AA
:101530000D4600262046FFF795FB04EB4401064AC2
:1015400002EB8100294600F0A9FD06462046FFF780
:1015500097FB304670BD0000D00400202DE9F84F05
:101560000746884614460025002607EB47001E491B
:1015700001EB8009AA460020009014B1B4F5807FE9
:1015800003D903252846BDE8F88F3846FFF786FBC8
:10159000FFF79CFC484600F07BFD012800D1824605
:1015A000002609E018F80610484600F051FD0546EF
:1015B00005B103E0701CC6B2A642F3DB00BFBAF16E
:1015C000010F0AD16946484600F080FD054625B95D
:1015D0009DF800103846FFF77DFBFFF781FC384689
:1015E000FFF76AFB2846CEE7B804002038B5184C50
:1015F000184D002000900120FFF7F2F8012812D1C9
:101600006946204600F04AFD022803D10120FFF779
:1016100045FB08E06946204600F058FD9DF80010A3
:101620000120FFF757FB0120FFF7C8F801280DD173
:10163000FFF70CFB00909DF80010284600F008FD15
:101640000548006810B104480068804738BD0000B4
:10165000C4040020DC0400204800002010B5012054
:10166000FFF7F0FE10BD10B52820FFF7EBFE10BD10
:1016700010B52720FFF7E6FE10BD10B52A20FFF7B2
:10168000E1FE10BD10B52920FFF7DCFE10BD000003
:101690004CF6CC4001490860704700000030004023
:1016A0004AF6AA2001490860704700000030004057
:1016B00001494860704700000030004001498860DF
:1016C000704700000030004001490860704700008A
:1016D0000030004004480021C180818041800180A9
:1016E000024A1170704700002A00002032000020DA
:1016F00010B503480078042801D000F075F810BD3B
:101700003200002010B506490720FFF775FE4FF4A0
:10171000FA70FFF7BBFE4FF4FA700249088010BD63
:10172000F11600083400002010B5FFF7CFFB0D487C
:1017300000780D49087004200A4908700021012032
:10174000FFF7ECF800210220FFF7E8F80021032062
:10175000FFF7E4F800210420FFF7E0F8FFF7C0FBF3
:1017600010BD0000320000203300002010B50F4CE7
:10177000FFF7ACFB0E4800780E49087000210120ED
:10178000FFF7CCF800210220FFF7C8F80021032062
:10179000FFF7C4F800210420FFF7C0F800202080E4
:1017A0006080A080E080FFF79BFB10BD220000203E
:1017B00033000020320000200148C088704700003C
:1017C0002A00002001488088704700002A0000207D
:1017D00001484088704700002A0000200148008826
:1017E000704700002A00002070B52F4D2F4C208834
:1017F0002988884207DD2088401E2080218801201A
:10180000FFF78CF80AE020882988884206DA2088C9
:10181000401C208021880120FFF780F860886988BB
:10182000884207DD6088401E608061880220FFF7E3
:1018300075F80AE060886988884206DA6088401C8A
:10184000608061880220FFF769F8A088A988884233
:1018500007DDA088401EA080A1880320FFF75EF866
:101860000AE0A088A988884206DAA088401CA080E7
:10187000A1880320FFF752F8E088E988884207DD55
:10188000E088401EE080E1880420FFF747F80AE086
:10189000E088E988884206DAE088401CE080E18838
:1018A0000420FFF73BF870BD2A0000202200002032
:1018B0002DE9F0410F4F104E4FF6FF740025388888
:1018C00050B13088318800FB01F54FF47A70B5FBD8
:1018D000F0F5C835ACB201E04FF4FA74074800885F
:1018E000844204D0054804802046FFF7CFFDBDE8C0
:1018F000F08100002A000020220000203400002097
:1019000003480021C18081804180AA210180704765
:101910002A00002004480021C1808180418040F2DB
:10192000FF110180704700002A0000200A480B497F
:101930000B4A1278032A0DD10A8803889A4209D1EA
:10194000028840F2FF339A4201D1002201E040F2C6
:10195000FF320280704700002A0000202200002091
:101960003200002010B50F480078401C0D49087067
:1019700008460078042801DB002008700948007838
:1019800020B1012805D0022809D105E0FFF7A2FE09
:1019900006E0FFF7B5FF03E0FFF7BCFF00E000BF84
:1019A00000BF10BD3200002010B5FFF7BFFFFFF7EA
:1019B0007FFF10BD10B50A480078012807D140F21A
:1019C000FF11FEF7ABFF00200549087006E000217B
:1019D0000120FEF7A3FF01200149087010BD00009F
:1019E0003600002030B50346074822B919B913B9AB
:1019F0000323032103220024044D2C70C280818024
:101A00004380048030BD00002A0000203200002006
:101A100001460648032900DA03210022044B1A700C
:101A2000C280828042800180704700002A0000202E
:101A30003200002000200149088070472A00002061
:101A400040F2FF1001490880704700002A00002082
:101A500010B50220FFF7F6FC10BD10B50020FFF70F
:101A6000F1FC10BD70B5002100230F22C47804B32F
:101A7000154C246804F4E064C4F5E064210AC1F163
:101A80000403CA40447804FA03F1847814402143E3
:101A900009010E4C0678A155047804F01F050124B5
:101AA000AC4005786D11AD0005F1E025C5F80041A9
:101AB00009E0047804F01F050124AC40044D0678C9
:101AC000761145F8264070BD0CED00E000E400E022
:101AD00080E100E002490143024A116070470000C2
:101AE0000000FA050CED00E02DE9704F834600F090
:101AF00025F8824600BF00BFDA4502D9AAEB0B0ADF
:101B000004E0CBF1FF30504400F1010AFEF7C0FDC4
:101B100000250446084A002320462946FEF702FB1A
:101B2000804642460B4650460021FEF7FBFA064629
:101B30003046BDE8708F000040420F0010B5FEF740
:101B4000B3FD10BD10B50920FFF77CFC10BD0000EF
:101B5000014908627047000000000E42F02002496F
:101B60000870FFF7CDF9000040000020014600207A
:101B7000034A506820F4404008435060704700001A
:101B80000010024029B1064AD2690243044BDA61CF
:101B900004E0034AD2698243014BDA6170470000D6
:101BA0000010024029B1064A12690243044B1A612F
:101BB00004E0034A12698243014B1A617047000036
:101BC0000010024029B1064A92690243044B9A610F
:101BD00004E0034A92698243014B9A617047000016
:101BE0000010024029B1064AD2680243044BDA6071
:101BF00004E0034AD2688243014BDA607047000078
:101C00000010024001490860704700004004424251
:101C100030B500210022002400232D4D6D6805F011
:101C20000C0121B1042905D0082923D105E0294D53
:101C3000056022E0274D05601FE0254D6D6805F425
:101C40007012234D6D6805F48034022505EB924235
:101C50001CB9214D554305600BE01D4D6D6805F421
:101C600000351DB11C4D5543056002E0194D55432B
:101C7000056002E0174D056000BF00BF144D6D68A0
:101C800005F0F0010909154D6B5C0568DD40456004
:101C90000F4D6D6805F4E061090A104D6B5C4568F5
:101CA000DD4085600A4D6D6805F46051C90A0B4D31
:101CB0006B5C4568DD40C560054D6D6805F44041CD
:101CC000890B074D6B5CC568B5FBF3F5056130BD4D
:101CD0000010024000127A0000093D008D00002033
:101CE0009D00002010B501460022002300204A116B
:101CF000012A02D1094C236806E0022A02D1074CCE
:101D0000236A01E0054C636A01F01F02012494403C
:101D10001C400CB1012000E0002010BD001002406A
:101D200010B50D20FFF78EFB10BD000000210B4AFF
:101D300011700A4A203A82F82010012802D00428A3
:101D400008D103E00121054A117004E00521034A8E
:101D5000117000E000BF00BF70470000201002407B
:101D600001490860704700003C0442420249096A88
:101D70000143014A116270470010024010B5312042
:101D8000FFF760FB10BD0000024909888143014A4A
:101D900011807047042800400348008840F010007C
:101DA000014908807047000004280040034800886B
:101DB0004FF6EF7108400149088070470428004041
:101DC00001460020064A12880A40D0B2044A121F77
:101DD00012880A4012B108B1012000E000207047CB
:101DE0000428004010B50B20FFF72CFB10BD0000AD
:101DF00029B1064A12880243044B1A8004E0034AC0
:101E000012888243014B1A8070470000002800406E
:101E100000B50246FFF7C0FF100C03490880091DFA
:101E20000A80FFF7C3FF00BD1828004000B5024636
:101E3000FFF7B2FFC2F3034003490880091D0A807F
:101E4000FFF7B4FF00BD00000828004000BF0348B2
:101E5000008800F020000028F9D0704704280040D6
:101E6000074800884FF6F77108400549088000BF11
:101E70000348008800F008000028F9D070470000EF
:101E80000428004010B52B20FFF7DCFA10BD10B578
:101E90002C20FFF7D7FA10BD10B50520FFF7D2FAB6
:101EA00010BD10B500F002F810BD00000CB5002008
:101EB000019000903348006840F480303149086058
:101EC00000BF3048006800F4003000900198401CCA
:101ED0000190009818B90198B0F5A06FF1D1294888
:101EE000006800F4003010B10120009001E00020F3
:101EF00000900098012843D12348006840F010006A
:101F0000214908600846006820F003000860084680
:101F1000006840F0020008601A48406819494860AB
:101F20000846406848600846406840F48060486061
:101F30000846406820F47C1048600846406840F439
:101F4000E81048600846006840F08070086000BFF4
:101F50000C48006800F000700028F9D0094840687B
:101F600020F00300074948600846406840F002003E
:101F7000486000BF0348406800F00C000828F9D111
:101F80000CBD00000010024000200240002001496A
:101F90000870704718000020002001490870704741
:101FA0001900002001200149087070471900002025
:101FB00001480078704700001800002010B5034861
:101FC0000078012801D100F003F810BD19000020AD
:101FD00070B51A4C0025FFF7D1F90546802D1BDCA2
:101FE000FFF7ACFD1649086016480078FF2804DAB0
:101FF00014480078401C13490870124800780128E2
:102000000DD111480078012800D100E00020207097
:1020100000200D49087002E000200A4908700A48B3
:10202000007848B906480068FFF75EFD0749884216
:1020300002D901200449087070BD0000180000207A
:102040001C0000201A00002020000020A0860100B3
:1020500010B50246002013895489A3420FDA536851
:102060005488195513895B1C138153885B1C53805A
:1020700053885489A34203DB0023538000E00120EE
:1020800010BD00230380438041600381428170477B
:10209000014600200A8902B90120704710B50246A6
:1020A0000020138983B1536814881B5D0B7013885B
:1020B0005B1C138013895B1E138113885489A34210
:1020C00003DB0023138000E0022010BD10B50246A0
:1020D0000020138923B1536814881B5D0B7000E046
:1020E000022010BD704770B504460D46EAB2214685
:1020F0000120FFF733FA70BD10B50720FFF7A2F9F2
:1021000010BD000010B51348006840F001001149EF
:10211000086008464068104908400E494860084673
:1021200000680E4908400B4908600846006820F422
:10213000802008600846406820F4FE0048604FF4A4
:102140001F008860FFF7ADFE4FF000600449086093
:1021500010BD0000001002400000FFF8FFFFF6FE77
:1021600008ED00E010B50A20FFF76CF910BD10B5BE
:102170002020FFF767F910BD10B52320FFF762F9A3
:1021800010BD10B52220FFF75DF910BD10B521205C
:10219000FFF758F910BD10B52420FFF753F910BD13
:1021A00010B52520FFF74EF910BD10B52620FFF71A
:1021B00049F910BD21B1028842F00102028004E019
:1021C00002884FF6FE731A400280704770B50024F3
:1021D00000220023058C4FF6FE7635400584028CE4
:1021E0008388048B4FF68F752C40B51E2C400D88CC
:1021F0002C43751E2A400D892A434D882A43144DCD
:10220000A8420BD0134DA84208D0134DA84205D0C8
:10221000124DA84202D0124DA84213D14FF6F775C5
:102220002A404D892A434FF6FB752A408D882A4360
:102230004FF6FF652B404FF6FF552B408D892B4302
:10224000CD892B4383800483CD888586028470BD2D
:10225000002C014000340140004001400044014096
:10226000004801400A460021018B4FF6F7731940E0
:10227000114301837047000070B500240022002341
:10228000058C4FF6EF7635400584028C8388048BED
:1022900048F6FF752C404FF6FF452C400D884FF651
:1022A000FF7606EA05252C434FF6DF752A400D8997
:1022B00006EA05152A434D8806EA05152A43154DF9
:1022C000A84202D0144DA8421DD14FF67F752A4076
:1022D0004D894FF6FF7606EA05152A434FF6BF757E
:1022E0002A408D8806EA05152A434FF6FF352B4014
:1022F0004FF2FF752B408D8906EA85052B43CD896A
:1023000006EA85052B4383800483CD8805870284F4
:1023100070BD0000002C0140003401400A4600213D
:10232000018B4FF2FF7319404FF6FF7303EA02234C
:10233000194301837047000070B500240022002378
:10234000058C4FF6FF6635400584028C8388848BAC
:102350004FF68F752C404FF6FC752C400D882C43A2
:102360004FF6FF552A400D894FF6FF7606EA052500
:102370002A434D8806EA05252A43154DA84202D076
:10238000144DA8421DD14FF2FF752A404D894FF6DA
:10239000FF7606EA05252A434FF6FF352A408D8849
:1023A00006EA05252A434EF6FF752B404DF6FF75CC
:1023B0002B408D8906EA05152B43CD8906EA0515C4
:1023C0002B4383808483CD888587028470BD000081
:1023D000002C0140003401400A460021818B4FF659
:1023E000F7731940114381837047000070B50022D4
:1023F00000230024058C4EF6FF7635400584038CBF
:102400008488828B48F6FF752A404FF6FF452A40A4
:102410000D884FF6FF7606EA05252A434DF6FF752F
:102420002B400D8906EA05352B434D8806EA053514
:102430002B430B4DA84202D00A4DA84208D14BF6BF
:10244000FF752C408D894FF6FF7606EA85152C43E3
:1024500084808283CD88A0F84050038470BD000042
:10246000002C0140003401400A460021818B4FF2CC
:10247000FF7319404FF6FF7303EA02231943818368
:102480007047818670470187704781877047A0F841
:1024900040107047002202881D4B98420ED01D4B01
:1024A00098420BD0B0F1804F08D01B4B984205D01A
:1024B0001A4B984202D01A4B984204D14FF68F73B0
:1024C0001A404B881A43174B984207D0164B984234
:1024D00004D04FF6FF431A40CB881A4302808B8802
:1024E00083850B8803850A4B98420BD0094B984291
:1024F00008D00E4B984205D00D4B984202D00D4BA0
:10250000984201D10B7A0386012383827047000031
:10251000002C01400034014000040040000800404D
:10252000000C00400010004000140040004001403A
:10253000004401400048014010B52D20FEF782FF05
:1025400010BD10B52E20FEF77DFF10BD10B52F2059
:10255000FEF778FF10BD21B1828942F400528281DA
:1025600004E082894DF6FF731A40828170470000B3
:1025700010B504462048844209D101218803FFF7A1
:1025800031FB00214FF48040FFF72CFB32E01B4869
:10259000844209D101214804FFF704FB00214FF4D4
:1025A0000030FFF7FFFA25E01548844209D10121E8
:1025B0008804FFF7F7FA00214FF48020FFF7F2FAC2
:1025C00018E01048844209D10121C804FFF7EAFA53
:1025D00000214FF40020FFF7E5FA0BE00A4884429F
:1025E00008D101210805FFF7DDFA00214FF4801022
:1025F000FFF7D8FA10BD0000003801400044004049
:1026000000480040004C00400050004070B50246B9
:10261000002400230025002040F66A16B14200D1B4
:1026200000BFC1F3421501F01F03012606FA03F3B0
:10263000012D02D19689334006E0022D02D1168A7F
:10264000334001E0968A33400C12012606FA04F466
:102650001688344013B10CB1012000E0002070BD99
:10266000F0B50346002400260025002040F66A1736
:10267000B94200D100BF1846C1F3421401F01F0651
:10268000012707FA06F5012C01D10C3004E0022CD9
:1026900001D1103000E014301AB107682F430760F1
:1026A00002E00768AF430760F0BD00002DE9F04786
:1026B00086B005460E460024A24600BFA14600276C
:1026C000B08900B100BF2F462C8A4CF6FF70044041
:1026D000F08804432C82AC894EF6F3100440B08895
:1026E00031890843718908430443AC81AC8A4FF6B1
:1026F000FF400440B0890443AC8201A8FFF788FA88
:102700001F48874202D1DDF810A001E0DDF80CA0DF
:10271000A88900F4004040B10AEBCA0000EB0A109F
:1027200031684900B0FBF1F807E00AEBCA0000EBA2
:102730000A1031688900B0FBF1F86420B8FBF0F0B2
:1027400004012009642101FB1089A88900F40040DC
:1027500040B1322000EBC900B0FBF1F000F00700FF
:10276000044308E0322000EB09106421B0FBF1F0D3
:1027700000F00F0004432C8106B0BDE8F087000094
:102780000038014001468888C0F308007047C1F353
:1027900008028280704710B53220FEF753FE10BD4C
:1027A00010B51B20FEF74EFE10BD10B51C20FEF725
:1027B00049FE10BD10B50420FEF744FE10BD10B553
:1027C0000820FEF73FFE10BD10B507480068FFF770
:1027D0008BF90649884206D3FFF7B0F90249086031
:1027E000034802F047F810BD10000020400D030020
:1027F000F804002001480078704700005C000020C9
:1028000010B51F4C0020FEF751FB012837D10020E6
:10281000FEF782FB032804D0042815D0062829D10E
:102820001DE02079012806D100202071FEF752FF1B
:10283000FFF7B2FB07E0207928B901202071FFF7EC
:1028400091F8FFF7AFFB16E0022002F0FBF902203F
:102850002071FFF773F92060FEF766FF0BE00020A0
:1028600002F0F0F904202071FFF768F92060FEF70C
:102870005BFF00E000BF00BF0020FEF71FFB10BDA4
:102880000000002070B504460D4600260F48008861
:10289000401C0E490880052094FBF0F0098888420E
:1028A00011DC00200949088009480088401C0849BB
:1028B0000880FFF77FF806480088A84203DB002065
:1028C000034908800126304670BD00001400002036
:1028D0001600002010B5FFF76BFB012803D1FFF7AE
:1028E00055FBFFF73FF810BD08B500200090694682
:1028F0000120FEF71BFE18B90121684601F0A0FC7B
:1029000007480068FFF7F0F841F28831884205D3A4
:10291000FFF714F90249086000F00CF808BD000048
:102920000800002010B5FFF7DDFB02F059F902F0B6
:102930003DFC10BD10B5002400BF03E001F0C8FD50
:10294000601CC4B2052CF9DBFEF7F4FAFFF758FF60
:1029500000F01CF8FFF7BEFF10BD000010B5FFF738
:1029600049FF01280CD107480068FFF7BDF8064968
:10297000884205D3FFF7E2F80249086001F038FF0A
:1029800010BD00000C0000208096980010B5154C7A
:102990002079052820D2DFE800F00403090A150099
:1029A00000BF02F0D1FBFFF7D9FF16E000BF062100
:1029B0004FF4FA70FFF766FF012802D12071FEF78D
:1029C000D5FE0AE00A21C820FFF75CFF012802D1EA
:1029D0002071FEF7CBFE00E000BF00BFFFF7F4FE62
:1029E00010BD0000000000200FB4054B10B503A976
:1029F000044A029800F018F810BC5DF814FB0000BF
:102A0000BF2E0008A400002002E008C8121F08C161
:102A1000002AFAD170477047002001E001C1121F5F
:102A2000002AFBD1704700002DE9FF4F8DB00F4603
:102A30000546002606E025280BD0DDE90F12904759
:102A40006D1C761C28780028F5D111B03046BDE801
:102A5000F08F0024A246A1460122EC4900E0044385
:102A600015F8013F203B02FA03F00842F7D128781D
:102A70002A2810D06FF02F022878A0F13001092900
:102A800014D80AEB8A0102EB410144F0020400EB86
:102A9000010A6D1CF0E701CF5FEA000A03D544F498
:102AA0000054CAF1000A44F002046D1C28782E2854
:102AB00017D115F8010F44F004042A280ED06FF046
:102AC0002F022878A0F1300109290AD809EB8901E1
:102AD00002EB410100EB01096D1CF2E757F8049B82
:102AE0006D1C28786C280FD006DC4C2817D068287D
:102AF0000DD06A2814D104E0742810D07A280FD1A0
:102B00000DE044F400140AE044F4801401E044F4BD
:102B100040146978814202D104F580146D1C6D1C4B
:102B20002A786E2A1FD00CDC632A31D004DC002AFC
:102B30008BD0582A11D1A3E0642A68D0692A0CD11D
:102B400065E0732A2ED004DC6F2A73D0702A04D17A
:102B50009BE0752A6FD0782A6ED01046DDE90F12FF
:102B60009047761C50E1C4F30250022806D0032897
:102B700009D0042801CF09D0066045E101CFF11743
:102B8000C0E9006140E101CF06803DE106703BE114
:102B900017F8040B8DF8000000208DF80100EB46BB
:102BA000012003E057F804BB4FF0FF3061074FF0FE
:102BB000000102D40DE008F10101884649450FDA11
:102BC0008045F8DB1BF808100029F4D108E008F173
:102BD000010188468142FADB1BF808100029F6D172
:102BE000DDE90F23AAEB08008146214600F036F903
:102BF000304400EB080604E0DDE90F121BF8010B7E
:102C00009047B8F10108F7D221464846F7E00A217B
:102C1000C4F302534FF0000B0891022B04D001CFF4
:102C2000C117032B09D00AE0FF1D27F00707F7E8BB
:102C3000020108E032E01FE020E000B2C117042BDF
:102C400001D140B2C117031E71F1000307DA4FF042
:102C5000000CD0EB0C006CEB01012D2302E02305EE
:102C600004D52B238DF82430012303E0E30701D0A2
:102C70002023F7E7984658E00A2110E010210EE0E3
:102C800010204FF0000B08900CE010214FF0000BCB
:102C900044F004044FF00809089103E008214FF0C4
:102CA000000B0891C4F30253022B04D001CF002182
:102CB000032B06D006E0FF1D27F00707F7E8020107
:102CC00003E080B2042B00D1C0B24FF0000823070C
:102CD0002BD5702A07D0DDF820C08CF0100C5CEAF0
:102CE0000B0C05D00EE040238DF82430012308E0C2
:102CF00050EA010306D030238DF824308DF82520CA
:102D000002239846DDF820C08CF0080C5CEA0B0C1E
:102D10000BD150EA010301D1630706D530238DF8AA
:102D200024304FF00108A9F10109582A04D038A233
:102D30000B9208AA0A920BE03AA2F9E75B46089ABE
:102D4000FDF7F0F90B9B9B5C0A9A521E0A921370D6
:102D500050EA0102F2D10A98ADEB000000F1200B1D
:102D6000600702D524F4803401E04FF00109D94511
:102D700002DDA9EB0B0000E0002000EB0B01414459
:102D80000890AAEB010AE00306D4DDE90F232146EF
:102D9000504600F063F806444FF0000908E009A926
:102DA00011F80900DDE90F12904709F10109761CBD
:102DB000C145F4DBE0030CD5DDE90F232146504685
:102DC00000F04CF8064404E0DDE90F123020904793
:102DD000761C0899481E08900029F5DC08E00A983E
:102DE0000A990078491C0A91DDE90F129047761C78
:102DF000BBF10001ABF1010BF1DC21465046DDE9EE
:102E00000F2300F019F806446D1C1BE60928010089
:102E10003031323334353637383961626364656650
:102E20000000000030313233343536373839414212
:102E300043444546000000002DE9F04104460025CA
:102E40001E461746880404D405E039462020B047C2
:102E50006D1C641EF9D52846BDE8F0812DE9F041CE
:102E6000044600251E469046C80301D5302700E0E1
:102E70002027880404D505E041463846B0476D1C3C
:102E8000641EF9D52846BDE8F08101B581B0002067
:102E90000090694601AA5078087010784870BDF813
:102EA00000000CBD0146080601F47F4240EA022002
:102EB00001F47F0240EA122040EA1160704713B526
:102EC0000C46012269460020FEF748FB00981CBD15
:102ED000024612B102F0070028B9082901D80020E3
:102EE00070470120FCE702F00700C0F108008842AB
:102EF00001D30020F4E70120F2E730B502460B468B
:102F00000021002400250AB9481E30BD002108E038
:102F1000545C581A401E155C5554581A401E1454DF
:102F2000491CB1EB530FF3D30020EEE72DE9F0413C
:102F300004460D460026002704B135B924A0FFF74A
:102F400053FD4FF0FF30BDE8F08100F001FA074675
:102F500028782178884203D027A0FFF745FD012675
:102F600068786178884203D02AA0FFF73DFD0126EA
:102F7000D5F80200D4F80210884203D02BA0FFF746
:102F800033FD0126D5F80600D4F80610884203D098
:102F90002CA0FFF729FD0126D5F80A00D4F80A1065
:102FA000884203D02DA0FFF71FFD0126D5F80E00A3
:102FB000D4F80E10884203D02EA0FFF715FD01268D
:102FC000012E03D100F0C4F9324908603046BAE757
:102FD00067697A436865636B5265706F72742045E8
:102FE00072726F72202C20496C6C6567616C205086
:102FF0006172616D0A00000076616C75654C6564F4
:103000005F5761726D537461204368616E676564D8
:103010000A00000076616C75654C65644F6E4F6602
:1030200066204368616E6765640A000076616C75AE
:10303000654C65645F5256616C204368616E6765DC
:10304000640A000076616C75654C65645F47566183
:103050006C204368616E6765640A000076616C7578
:10306000654C65645F4256616C204368616E6765BC
:10307000640A000076616C75654C65645F42726934
:103080006768746E657373204368616E6765640A70
:103090000000000060000020F8B505460C4616460A
:1030A0000DB104B12EB942A0FFF79EFC4FF0FF30E6
:1030B000F8BD287800F0010098B111212278601C39
:1030C00081542078401C207001206B1C0246002196
:1030D0000090084601F09AF908B1012000E00020B4
:1030E00030702878C0F3400098B112212278601C1B
:1030F00081542078401C207001206B1C0246014640
:103100000090002001F082F908B1012000E00020C9
:1031100070702878C0F3800068B113212278601C99
:1031200081542078401C2070AA780021012001F0F1
:10313000D7F9C6F802002878C0F3C00068B114219E
:103140002278601C81542078401C2070EA7800218D
:10315000012001F0C5F9C6F806002878C0F3001078
:1031600068B115212278601C81542078401C2070A1
:103170002A790021012001F0B3F9C6F80A00287865
:10318000C0F3401090B116212278601C8154207841
:10319000401C2070B5F80500FFF777FE07463A4659
:1031A0000021012001F09CF9C6F80E0000207FE705
:1031B00067697A44617461506F696E7432457665EF
:1031C0006E74204572726F72202C20496C6C65679A
:1031D000616C20506172616D0A000000F8B505460F
:1031E0000C4605B12CB91FA0FFF7FEFB4FF0FF30D6
:1031F000F8BD00202070287823460122002100908D
:10320000084601F0C3F86878234601221146009071
:10321000002001F0BBF801212046FFF76EFED5F833
:1032200002200021012001F061F96070D5F806202C
:103230000021012001F05AF9A070D5F80A200021E0
:10324000012001F053F9E070D5F80E200021012093
:1032500001F04CF986B23046FFF717FEA08000203F
:10326000C6E7000067697A44617461506F696E74E3
:1032700073325265706F727444617461204572726A
:103280006F72202C20496C6C6567616C20506172F4
:10329000616D0A0070B5054600F05AF804461D49F4
:1032A0002846FFF743FE012813D11BA0FFF79CFB24
:1032B000184918392846FFF791FF28B90622154901
:1032C0001839042000F0F6FF122229461148FCF7B5
:1032D0005AFF1748B4FBF0F100FB1140C8B915487C
:1032E0000068A04215D014A0FFF77EFB09491839E9
:1032F0002846FFF773FF28B906220649183904202B
:1033000000F0D8FF122229460248FCF73CFF09488A
:10331000046070BDE80500206368616E6765642C19
:10332000207265706F727420646174610A0000001D
:10333000C027090064000020496E666F3A203630CD
:103340003053207265706F727420646174610A007A
:1033500001480068704700005800002010B5174869
:1033600090F84400012827D1144890F8430002281F
:103370001DDAFFF7EDFF1149D1F86210401AC82895
:103380001AD9FFF7E5FF04460C4890F84330D0F80F
:10339000622021460AA0FFF727FB00F0A9FE07489C
:1033A00090F84300401C054981F8430004E02321C4
:1033B00002484330FCF700FF10BD00000A05002062
:1033C0005761726E696E673A67697A50726F746F8F
:1033D000636F6C526573656E64446174612025642B
:1033E0002025642025640A003EB50446002524B942
:1033F00013A0FFF7F9FA681E3EBD206800906068D0
:1034000001909DF80400401CC0B28DF80400052016
:10341000FFF73BFDADF802000921684600F0A6FE6B
:103420008DF808000921684601F040FE0546002D90
:1034300003DA29460DA0FFF7D7FA2846DCE700009B
:103440004552523A2067697A50726F746F636F6C9D
:10345000436F6D6D6F6E41636B20646174612069B1
:103460007320656D707479200A0000004552523A4D
:103470002075617274207772697465206572726F4D
:1034800072202564200A0000FEB504460E46002581
:1034900024B914A0FFF7A8FA681EFEBD684600F024
:1034A000D7F912208DF8040060798DF80500062008
:1034B000FFF7EBFCADF802008DF808600A216846C2
:1034C00000F054FE8DF809000A21684601F0EEFD77
:1034D0000546002D03DA29460DA0FFF785FA284698
:1034E000DBE7000067697A50726F746F636F6C4539
:1034F00072726F72436D64204572726F72202C205D
:10350000496C6C6567616C20506172616D0A0000E6
:103510004552523A20756172742077726974652041
:103520006572726F72202564200A000030B59DB06C
:10353000044600252CB92BA0FFF756FA681E1DB0D3
:1035400030BD684600F084F902208DF804006079EF
:103550008DF805002FA103C9CDE9020130A103C9EF
:10356000CDE9040131A103C9CDE9080132A103C9A4
:10357000CDE90601202233A10AA8FCF704FE20228F
:1035800039A10DF15200FCF7FEFD0020CDF84A00F4
:10359000CDF84E009DF851008DF851009DF8510076
:1035A00040F002018DF851100020FFF76EFCADF8DD
:1035B00048006F20FFF769FCADF8020073216846F0
:1035C00000F0D4FD8DF872007321684601F06EFDA5
:1035D0000546002D03DA29462CA0FFF705FA2846F8
:1035E000ADE7000067697A50726F746F636F6C4764
:1035F0006574446576696365496E666F20457272CD
:103600006F72202C20496C6C6567616C2050617270
:10361000616D0A003030303030303034000000004E
:103620003030303030303032000000003033303352
:103630003030303000000000303330313031303045
:1036400000000000613866636437633762333165B8
:1036500034663934626532643465346166323539D2
:103660006132663300000000653438376338333424
:103670006461303434646139613138356663626461
:103680006266623362323831000000004552523ABD
:103690002075617274207772697465206572726F2B
:1036A00072202564200A00002DE9FE4F80460E4658
:1036B00017464FF0000B00200290814682460025FD
:1036C00034460090B8F1000F01D006B137B950A0D0
:1036D000FFF78AF94FF0FF30BDE8FE8F404601F05A
:1036E00009FC00F0FF0ABAF1000F02D14FF0FF30E1
:1036F000F2E74FF000095DE0012201A9404601F028
:1037000036FC8346BBF1000F52D04D480078FF28AD
:103710001FD19DF80400FF281BD14A48007848B902
:10372000FF20207060700220474908800120454931
:10373000087034E044480088042830DD424800889E
:10374000A8422CD0FF202070607002203E490880E3
:1037500025E03B480078FF2803D19DF80400552858
:103760001DD038480078012819D19DF80400364949
:103770000988605434480088401C33490880084652
:10378000008804280BDD0094009C6088FFF77DFB17
:10379000001D85B22C480088A84200D10CE09DF89D
:1037A00004002749087029480078401C2749087000
:1037B00009F10109D1459FDB00BF23480088042897
:1037C00023DD21480088A8421FD11F4801882046D8
:1037D00000F0CCFC02901C480088401E215C02983E
:1037E00081420FD12A4621463046FCF7CCFC3D8071
:1037F00000201449087014490880144908701049C1
:10380000087069E76FF0010066E7012064E70000D7
:1038100067697A50726F746F636F6C4765744F6E2F
:10382000655061636B6574204572726F72202C2045
:10383000496C6C6567616C20506172616D0A0000B3
:103840006C000020680000206A0000206D0000204D
:1038500010B504462CB907A0FFF7C6F84FF0FF30AB
:1038600010BD002020606060FF202070607000208C
:10387000F6E700004552523A2067697A50726F7439
:103880006F636F6C48656164496E69742068656137
:103890006420697320656D707479200A000000004F
:1038A0002DE9F04F8FB006468B461746994600200B
:1038B0000E908246804600256C46BBF1000F06D173
:1038C00030A0FFF791F8681E0FB0BDE8F08FB9F196
:1038D000010F06D196F8088008F10600384485B239
:1038E00001E0781D85B22B46424639462BA0FFF7F2
:1038F0007BF8FF2004F8010B04F8010B281204F8F0
:10390000010B04F8015B3079401C04F8010B70795D
:1039100004F8010B002004F8010B04F8019B4FF0A0
:10392000080AB9F1010F0CD104F8018B0AF1010A60
:103930000DEB0A00424606F10901FCF724FCC244E3
:1039400044442FB10DEB0A003A465946FCF71BFCE4
:10395000291D684600F00AFC0146E81C0DF800101D
:10396000291D684601F0A2FB0E900E98002806DA89
:1039700014A00E99FFF738F86FF00100A4E70020BB
:10398000A2E700005B4552525D2020646174612013
:103990004973204E756C6C200A0000006C656E2027
:1039A0003D202564202C20734469644C656E203DC5
:1039B000202564202C646174615F6C656E203D205D
:1039C00025640A00756172742077726974652065D8
:1039D00072726F72202564200A0000002DE9F04702
:1039E00080460C4617461D46089E94F800900CB180
:1039F00005B136B930A0FEF7F7FF4FF0FF30BDE854
:103A0000F087B8F1000F55D118213748FCF7D4FBE7
:103A1000B9F1010F06D0B9F1020F11D0B9F1050FBC
:103A200046D125E0304A66322F49601CFFF734FB4F
:103A300001202D496639087000250020306038E0EB
:103A40002949603101F11800FFF7C8FB60B9264829
:103A500060300168C5F801108088A5F805000320D2
:103A600028700720306002E04FF0FF30C7E720E009
:103A70007A1E611C1C484A38FCF785FB781E1A49DF
:103A80006639C1F8370010211748663890F866206B
:103A900067308154673890F86600401C12496639D7
:103AA00081F866000320087000250020306000E0E7
:103AB00000BF00BF0020A2E767697A50726F746F81
:103AC000636F6C49737375656450726F636573736C
:103AD000204572726F72202C20496C6C6567616C96
:103AE00020506172616D0A007005002070B50446B7
:103AF00025462CB90FA0FEF777FF4FF0FF3070BDC1
:103B0000412205F108010F48FCF73DFB0F210D484C
:103B1000FD3890F8AE20AF308154AF3890F8AE0049
:103B2000401C0849FD3981F8AE00052008700020CE
:103B3000E5E700004E545020697320656D7074797C
:103B4000200A00000706002010B504462CB9CAA0C0
:103B5000FEF74AFF4FF0FF3010BD2089FFF795F9BF
:103B60002081D1480078C0F38000217AC1F3800120
:103B7000884256D0207AC0F38000002829D0207ACD
:103B800000F0010078B10021C84890F87E207F3015
:103B900081547F3890F87E00401CC44981F87E0033
:103BA000C3A0FEF721FF207AC0F34000002838D0E0
:103BB0000121BE4890F87E207F3081547F3890F8F4
:103BC0007E00401CB94981F87E00C1A0FEF70CFFC1
:103BD00027E0207A00F0010078B10021B34890F886
:103BE0007E207F3081547F3890F87E00401CAF49A2
:103BF00081F87E00AEA0FEF7F7FE207AC0F3400009
:103C000078B10221A94890F87E207F3081547F3816
:103C100090F87E00401CA54981F87E00B3A0FEF715
:103C2000E3FEA1480078C0F3C000217AC1F3C001CF
:103C300088422CD0207AC1089B48007861F3C300E9
:103C400099490870207AC0F3C00080B103219748D9
:103C500090F87E207F3081547F3890F87E00401CA1
:103C6000924981F87E00A8A0FEF7BEFE0FE0042175
:103C70008E4890F87E207F3081547F3890F87E0007
:103C8000401C8A4981F87E00A7A0FEF7ADFE864859
:103C90000078C0F30010217AC1F3001188422CD0C3
:103CA000207A01098048007861F304107E49087089
:103CB000207AC0F3001080B105217C4890F87E2066
:103CC0007F3081547F3890F87E00401C774981F81E
:103CD0007E009DA0FEF788FE0FE00621734890F855
:103CE0007E207F3081547F3890F87E00401C6F49E1
:103CF00081F87E009CA0FEF777FE6B480078C0F349
:103D00004010217AC1F3401188422CD0207A410919
:103D10006548007861F3451063490870207AC0F364
:103D2000401080B10721614890F87E207F30815497
:103D30007F3890F87E00401C5C4981F87E0093A09B
:103D4000FEF752FE0FE00821584890F87E207F30A1
:103D500081547F3890F87E00401C544981F87E00E1
:103D600091A0FEF741FE50484078C0F3C001607A50
:103D7000C0F3C00081422CD0607AC1084A48407824
:103D800061F3C30048494870607AC0F3C00080B155
:103D90000B21464890F87E207F3081547F3890F880
:103DA0007E00401C414981F87E0087A0FEF71CFE82
:103DB0000FE00C213D4890F87E207F3081547F3801
:103DC00090F87E00401C394981F87E0085A0FEF7FE
:103DD0000BFE35484078C0F30011607AC0F3001044
:103DE00081422CD0607A01092F48407861F3041099
:103DF0002D494870607AC0F3001080B109212B482A
:103E000090F87E207F3081547F3890F87E00401CEF
:103E1000264981F87E007BA0FEF7E6FD0FE00A212F
:103E2000224890F87E207F3081547F3890F87E00C1
:103E3000401C1E4981F87E0079A0FEF7D5FD0D21BA
:103E40001A4890F87E207F3081547F3890F87E00A9
:103E5000401C164981F87E00607A00F0070081F866
:103E6000F000084690F8F01074A0FEF7BDFD0220A7
:103E70000E49087000206FE667697A50726F746FA0
:103E8000636F6C4D6F64756C6553746174757320EA
:103E90004572726F72202C20496C6C6567616C20D2
:103EA000506172616D0A00006E0000200A0500205A
:103EB0004F6E426F617264696E673A20536F667429
:103EC0004150206F7220576562206D6F64650A0053
:103ED0004F6E426F617264696E673A204169724C3D
:103EE000696E6B206D6F64650A0000004F6E426F53
:103EF000617264696E673A2053746174696F6E20F1
:103F00006D6F64650A00000057694669207374612B
:103F10007475733A20696E2062696E64696E6720F9
:103F20006D6F64650A00000057694669207374610B
:103F30007475733A206F75742062696E64696E6778
:103F4000206D6F64650A00005769466920737461CB
:103F50007475733A20636F6E6E6563746564207266
:103F60006F757465720A0000576946692073746141
:103F70007475733A20646973636F6E6E65637465FC
:103F80006420726F757465720A0000005769466993
:103F9000207374617475733A20636F6E6E65637419
:103FA0006564206D326D0A0057694669207374613B
:103FB0007475733A20646973636F6E6E65637465BC
:103FC00064206D326D0A0000576946692073746180
:103FD0007475733A2061707020636F6E6E656374E0
:103FE0000A00000057694669207374617475733A5A
:103FF000206E6F2061707020636F6E6E6563740A4F
:104000000000000057694669207374617475733A43
:1040100020696E2074657374206D6F64650A0000FA
:1040200057694669207374617475733A206F7574AB
:104030002074657374206D6F64650A005253534990
:10404000206973202564200A0000000070B5044632
:1040500025462CB919A0FEF7C7FC4FF0FF3070BD04
:104060001B48A9680160E9684160298A0181A97C2F
:104070008172A0F1F101B1F8F100FEF706FF1449D9
:10408000F139A1F8F100D1F8F900FEF70BFF104962
:10409000F139C1F8F9000E210D48F13890F8962059
:1040A00097308154973890F89600401C0849F139B0
:1040B00081F89600042008700020D0E74552523A5B
:1040C000204E545020697320656D707479200A0069
:1040D000FB05002010B5FFF73BF9044600BFFFF7D2
:1040E00037F9001BB0F5167FF9D900F0FDFE10BDC1
:1040F00010B500240E4890F8440000B910BD0DA082
:10410000FEF772FC0A48B0F86010453000F0CEFFB0
:1041100004460748B0F86000A04202D00DA0FEF7A8
:1041200063FCFFF715F90249C1F8620000BFE5E73B
:104130000A0500205761726E696E673A2074696DD6
:10414000656F75742C20726573656E64206461748C
:1041500061200A004552523A20726573656E6420F0
:1041600064617461206572726F720A0010B5024654
:104170000024002302B109B9002010BD022303E08E
:10418000D05C2044C4B25B1C481E9842F8D820463C
:10419000F3E7000070B504460D462CB90FA0FEF7FA
:1041A00023FC4FF0FF3070BD23211248FCF704F8C8
:1041B0002A4621460F48801CFBF7E5FF0D4843388F
:1041C000A0F86050012180F84410FFF7C1F80949B8
:1041D0004339C1F862000020E5E700004552523A39
:1041E000206461746120697320656D707479200AA0
:1041F000000000004D05002070B50446094D2CB9A3
:1042000009A0FEF7F1FB4FF0FF3070BD2879401C8C
:104210002179884204D123210248801EFBF7CCFF7C
:104220000020F2E74F0500204552523A20646174A5
:104230006120697320656D707479200A00000000A8
:1042400070B504460D46002624B90AA0FEF7CCFB43
:10425000701E70BD2A4621460E4800F0D9FE064663
:10426000AE4205D00CA0FEF7BFFB4FF0FF30F0E7E9
:104270003046EEE74552523A2067697A50757444E9
:104280006174612062756620697320656D70747950
:10429000200A0000480600204552523A2046616933
:1042A0006C656420746F2072625772697465200AAD
:1042B000000000002DE9FF4105460E461746002488
:1042C00036B920A0FEF790FB601E04B0BDE8F08177
:1042D0006846FFF7BDFA05208DF80400234890F8E2
:1042E0003B10D0F83B00401C204AC2F83B00C8B24B
:1042F0008DF805008DF808500C20FEF7C6FDADF8CE
:1043000002003A4631460DF10900FBF73CFF10214F
:104310006846FFF72BFF8DF80F001021684600F06C
:10432000C5FE0446002C06DA214611A0FEF75CFB10
:104330006FF00100C9E710216846FFF72BFF204608
:10434000C3E7000067697A5265706F7274446174E4
:1043500061204572726F72202C20496C6C65676118
:104360006C20506172616D0A000000000A05002097
:104370004552523A207561727420777269746520D3
:104380006572726F72202564200A00002DE9F047E3
:1043900004460D461746089E4FF00009CA46C84617
:1043A0001BB94FF0FF30BDE8F08739462846FEF7CD
:1043B0008FFD8046B8F1000F07D1185D05F00701A9
:1043C00006FA01F1084318551EE0B8F1010F1BD1A0
:1043D000F0B205F00701C1F1080140FA01F905F05A
:1043E0000700C0F10801FF20084100EA060A601C2E
:1043F000185C40EA0900611C5854185D05F007017B
:104400000AFA01F1084318550020CCE72DE9F04FD6
:104410008FB005460C4616469946189F4FF0000A85
:10442000D34600200E908046B9F1000F00D027B986
:104430004FF0FF300FB0BDE8F08F3A46494601A873
:10444000FBF7A1FE012F09D9394601A8FEF755FD5A
:10445000B0F1FF3F02D14FF0FF30EBE7314620468D
:10446000FEF736FD8246BAF1000F0CD101A8405D7F
:1044700004F007010841C6F10802FF21114108407C
:1044800040EA080821E0BAF1010F1ED101A9681C19
:10449000085C04F00701C1F10801711AC1F10802BA
:1044A000FF21114100EA010B01A8405D04F0070162
:1044B00008410E9004F00700C0F108010BFA01F06A
:1044C00040EA08080E9848EA00084046B2E70000B3
:1044D00002480068401C01490860704758000020ED
:1044E00010B50346002002FB031010BD10B50346B3
:1044F0000020541AB4FBF3F010BD00002DE9F04F7A
:1045000087B007460E4693464FF000083546B14641
:104510003446002005900690B24607B126B94FF008
:10452000FF3007B0BDE8F08F4FF00008C3E0781C03
:1045300010F8080017286FD2DFE800F06F7071B72D
:10454000B772737478B7B7B7B77C86AB820C1E307E
:104550003C485C0028785B490870084601785AA0FE
:10456000FEF742FA57480078012802D1FDF768FAB1
:1045700001E0FDF75FFA99E0687852494870084613
:10458000417858A0FEF730FA4E484078012802D111
:10459000FDF7E8F901E0FDF79DF887E0D5F80200A6
:1045A0004849C1F802000846D0F8021054A0FEF7AE
:1045B0001BFA00BFD5F806004249C1F806000846BC
:1045C000D0F8061054A0FEF70FFA00BFD5F80A0085
:1045D0003C49C1F80A000846D0F80A1054A0FEF77A
:1045E00003FA6B899AB2EB8899B26B8898B2FDF79F
:1045F000F9F95BE0D5F80E003249C1F80E00084623
:10460000D0F80E1050A0FEF7EFF9D5F80E10C1F358
:104610008F00FDF7FDF949E047E047E046E045E05F
:1046200044E043E00120504908703FE000204E493B
:1046300008703BE099F800104CA0FEF7D5F935E082
:104640004DA0FEF7D1F931E0A17962792379A06814
:10465000CDE90032CDE90210E378A27821884BA0A1
:10466000FEF7C2F92088ADF81400A0788DF8160086
:10467000E0788DF8170020798DF8180060798DF8B2
:104680001900A0798DF81A00DDE90501FCF796FD07
:104690000CE049A0FEF7A8F94CA0FEF7A5F99AF89E
:1046A00000104EA0FEF7A0F900E000BF00BF08F127
:1046B000010000F0FF08387840453FF738AF002090
:1046C0002FE70000F80400204576743A204556454F
:1046D0004E545F4C65645F5761726D537461202561
:1046E00064200A004576743A204556454E545F4C86
:1046F00065644F6E4F6666202564200A0000000046
:104700004576743A4556454E545F4C65645F525643
:10471000616C2025640A00004576743A4556454E82
:10472000545F4C65645F4756616C2025640A000045
:104730004576743A4556454E545F4C65645F425623
:10474000616C2025640A00004576743A4556454E52
:10475000545F4C65645F4272696768746E65737319
:104760002025640A000000005C00002052535349D9
:104770002025640A000000005452414E535041521B
:10478000454E545F44415441200A00005749464970
:104790005F4E5450203A205B25642D25642D2564FE
:1047A00020253032643A253032643A253032645D57
:1047B0005B25645D200A00004D4F44554C4520495F
:1047C0004E464F202E2E2E0A00000000574946204C
:1047D0004D4F44554C45202E2E2E0A006D6F6475AA
:1047E0006C6554797065203A205B25645D200A0071
:1047F0003EB500246846FFF72BF817208DF804001B
:10480000134890F83B10D0F83B00401C104AC2F807
:104810003B00C8B28DF805000520FEF736FBADF869
:10482000020009216846FFF7A1FC8DF80800092164
:10483000684600F03BFC0446002C03DA214605A044
:10484000FEF7D2F809216846FFF7A4FC3EBD000040
:104850000A0500204552525B4E54505D3A20756166
:104860007274207772697465206572726F72202588
:1048700064200A002DE9F04792B006460027002583
:1048800000200390029000248146804636B98EA015
:10489000FEF7AAF8601E12B0BDE8F087FEF75EFDD5
:1048A00003AA93499348FEF7FFFE0746002F70D1F5
:1048B00091A0FEF799F8FEF74BFD8246BDF80C205B
:1048C000514692A0FEF790F8002506E08848415D29
:1048D00093A0FEF789F8681C85B2BDF80C008542EC
:1048E000F4DB91A0FEF780F8814C20790F2851D09D
:1048F0000ADC0E2874D2DFE800F07316731A7373A3
:10490000443973734573463D182854D006DC11288A
:1049100049D0142848D0162862D135E0222854D036
:104920002A285DD131E02046FEF700FE60E0E27902
:10493000A1797EA0FEF758F802A8009008F10900BE
:10494000BDF80C301A1A6A48083000EB080104ABB5
:104950004846FFF743F840B9E37904A92046029A94
:10496000FEF79EFF75A0FEF73FF841E02046FEF7F8
:104970003BFD3DE02046FEF737FD2046FFF7E4F81B
:1049800036E000BF00BF00BF00BF2046FFF734FC89
:104990002EE02EE02046FEF727FD6BA0FEF724F860
:1049A000FFF798FB24E023E02046FFF725FC6BA0EF
:1049B000FEF71AF81CE02046FFF71EFC2046FFF722
:1049C00045FB6EA0FEF710F812E02046FFF714FC3E
:1049D0002046FFF78BF86FA0FEF706F808E0FFE728
:1049E00002212046FEF750FD71A0FDF7FDFF00BF3C
:1049F0000DE017F1020F0AD13D4C01212046FEF7D0
:104A000043FD71A0FDF7F0FF6FF0010043E7384868
:104A1000401E0078062850D2DFE800F04F03132331
:104A20002F3F00203249491E08701222CC31A1F1DB
:104A30006600FFF763FD18212D486530FBF7BCFBCE
:104A40003CE000202A49491E08700122F031A1F102
:104A50007200FFF753FD182125487D30FBF7ACFBB2
:104A60002CE000202249491E08700846D0F8372063
:104A70001C316630FFF742FD20E000201C49491E32
:104A800008700C22F131A1F15B00FFF737FD18210E
:104A900017489530FBF790FB10E000201449491EA1
:104AA00008704122FD31A1F14F00FFF727FD4121A0
:104AB0000F48AD30FBF780FB00E000BF00BF304681
:104AC000FEF7E8FB0020E6E647697A7769747348E9
:104AD000616E646C65204572726F72202C20496C87
:104AE0006C6567616C20506172616D0A00000000A6
:104AF0000B05002048060020476574204F6E652096
:104B00005061636B6574210A0000000057694669B3
:104B1000324D43555B2534643A2534645D3A2000B8
:104B200025303278200000000A000000666C6167C2
:104B3000202578202578200A0000000041636B447E
:104B4000617461203A200A007265706F72743A4D88
:104B50004355207265626F6F74210A0041636B20B8
:104B600050524F44554354494F4E5F4D4F4445209A
:104B700073756363657373200A00000041636B20E3
:104B80004745545F555454207375636365737320B0
:104B90000A00000041636B204745545F4D6F647508
:104BA0006C652073756363657373200A00000000F1
:104BB0004552523A20636D6420636F6465206572CC
:104BC000726F72210A0000004552523A20636865F4
:104BD000636B2073756D206572726F72210A00001D
:104BE00010B536200A4908600A48C860084600F037
:104BF000B3F918B908A0FDF7F7FE02E00BA0FDF726
:104C0000F3FE4FF49F710E48FBF7D6FA10BD00007B
:104C10004806002058060020726243726561746580
:104C20002053756363657373200A000072624372D8
:104C300065617465204661696C64200A00000000AB
:104C40000A05002030B587B005460024062D7CD229
:104C5000DFE805F003305F90BDEA01A8FEF7F8FD3C
:104C60000B208DF808008B4890F83B10D0F83B00E3
:104C7000401C884AC2F83B00C8B28DF809000520E4
:104C8000FEF703F9ADF80600092101A8FFF76EFA57
:104C90008DF80C00092101A800F008FA0446002C48
:104CA00003DA21467CA0FDF79FFE092101A8FFF74A
:104CB00071FAEAE004A8FEF7CBFD09208DF8140094
:104CC000744890F83B10D0F83B00401C714AC2F881
:104CD0003B00C8B28DF815008DF818500620FEF77D
:104CE000D4F8ADF812000A2104A8FFF73FFA8DF8B6
:104CF00019000A2104A800F0D9F90446002C03DAAF
:104D0000214665A0FDF770FE0A2104A8FFF742FACC
:104D1000BBE004A8FEF79CFD09208DF814005D4857
:104D200090F83B10D0F83B00401C5A4AC2F83B00B8
:104D3000C8B28DF815008DF818500620FEF7A5F8BA
:104D4000ADF812000A2104A800E09AE0FFF70EFA7D
:104D50008DF819000A2104A800F0A8F90446002CD7
:104D600003DA21464CA0FDF73FFE0A2104A8FFF715
:104D700011FA8AE001A8FEF76BFD13208DF80800F8
:104D8000444890F83B10D0F83B00401C414AC2F820
:104D90003B00C8B28DF809000520FEF776F8ADF8A3
:104DA0000600092101A8FFF7E1F98DF80C0009219F
:104DB00001A800F07BF90446002C03DA214636A056
:104DC000FDF712FE092101A8FFF7E4F95DE001A853
:104DD000FEF73EFD15208DF808002E4890F83B1098
:104DE000D0F83B00401C2B4AC2F83B00C8B28DF8FB
:104DF00009000520FEF749F8ADF80600092101A8D1
:104E0000FFF7B4F98DF80C00092101A800F04EF964
:104E10000446002C03DA21461FA0FDF7E5FD092119
:104E200001A8FFF7B7F930E001A8FEF711FD29202E
:104E30008DF80800174890F83B10D0F83B00401C54
:104E4000144AC2F83B00C8B28DF809000520FEF7ED
:104E50001CF8ADF80600092101A8FFF787F98DF8C5
:104E60000C00092101A800F021F90446002C03DA06
:104E7000214609A0FDF7B8FD092101A8FFF78AF92D
:104E800003E00CA0FDF7B0FD00BF00BF204607B057
:104E900030BD00000A0500204552523A207561726B
:104EA00074207772697465206572726F7220256450
:104EB000200A00004552523A204366674D6F6465F0
:104EC000206572726F72210A00000000FCF7A4FADC
:104ED000FBF7A7FA07E0FBF70BFFFDF705FDFDF772
:104EE0006DF8FCF761FDF6E7012080F3138800BF41
:104EF00000BFFEE700B5024612B94FF0FF3000BD1B
:104F000050689168884201D10020F8E750689168A4
:104F1000884203D290685168401AF0E7104600F0CA
:104F200014F851689368C91A401AE8E730B5044686
:104F300014B94FF0FF3030BD204600F006F80546AA
:104F40002046FFF7D7FF281AF5E7014611B94FF0C1
:104F5000FF3070470868FCE7014611B94FF0FF3099
:104F60007047C8684860C86888600020F8E72DE985
:104F7000F04104460F461646002514B9681EBDE8E8
:104F8000F08117B94FF0FF30F9E76068A1688842F7
:104F900014D22046FFF7AEFFB04201D9304602E0FE
:104FA0002046FFF7A7FF054661682A463846FBF70B
:104FB000EAF86068284460602846E0E72046FFF78A
:104FC000C4FF6168E268891A401AB0420AD93546BE
:104FD00061682A463846FBF7D6F860682844606066
:104FE0002846CCE72046FFF7B0FF6168E268891ADF
:104FF000451A61682A463846FBF7C5F8E0686060E4
:10500000721B79192046FFF7B2FF05442846B6E720
:105010002DE9F04104460F461546002604B11FB99C
:105020004FF0FF30BDE8F0812046FFF77FFFA84238
:1050300002D86FF00100F5E76068A16888422AD8BD
:105040002046FFF782FFA168E268891A461AB54236
:1050500013D8A0682A463946FBF795F8A06828447B
:10506000A0602046FFF771FFE1680844A16888420C
:1050700001D1E068A0602846D4E7A06832463946EE
:10508000FBF781F8E068A060AA1BB9192046FFF77A
:10509000BFFF3044C6E7A0682A463946FBF773F8DD
:1050A000A0682844A0602846BCE70000F8B5054683
:1050B0000E461CA00068009000240DB9601EF8BDCB
:1050C00000240DE028190121FDF70DF8022C06D36C
:1050D000285DFF2803D101216846FDF704F8641C10
:1050E000B442EFD3FEF734F90746324639460EA0F4
:1050F000FDF77AFC00240DE0295D10A0FDF774FC9B
:10510000022C06D3285DFF2803D155210BA0FDF703
:105110006BFC641CB442EFD30AA0FDF765FC30467B
:10512000CDE70000550000004D43553257694669F0
:105130005B2534643A2534645D3A200025303278AA
:10514000200000000A0000002DE9F041FCF746FBBA
:105150000446FCF73DFB0546FCF734FB0646FCF72E
:105160002BFB07460CB9002000E0601C84B20CB198
:10517000012000E000200C4908700846C0F80A70C1
:10518000C0F80660C0F80250A000C1F80E002CB9AB
:1051900025B91EB917B90020487002E00120024964
:1051A0004870BDE8F0810000F804002010B512211D
:1051B0000148FBF701F810BDF80400201F1C1F1E5A
:1051C0001F1E1F1F1E1F1E1F0003030601040602D1
:1051D00005000305E3070606101E1E04000000007C
:1051E000000C014010000000000000000008010356
:1051F0000800000002000000000801401800000044
:10520000010000000100030304000000030000008F
:105210000008014018000000010000000200030324
:105220000400000004000000000801401800000015
:10523000010000004000030304000000050000001E
:105240000008014018000000010000008000030376
:105250000400000001000000000C014018000000E4
:105260000100000001000303080000000600000028
:10527000000C0140000000000002000002000300DA
:105280000800000007000000000C0140480000007A
:1052900000000000000402030800000008000000F5
:1052A0000008014018000000000000000002010397
:1052B0000400000009000000000801400400000094
:1052C0000000000000040203040000000A000000C7
:1052D0000008014018000000000000000400010365
:1052E000040000000B000000000801400400000062
:1052F000000000000800020304000000000000009D
:10530000000400400200000002000000FF03000053
:10531000000000007000010000000000010000001B
:10532000000000400000000001000000FF0300003A
:1053300000000000700001000200000002000000F8
:10534000000000400100000001000000FF03000019
:1053500000000000700001000200000003000000D7
:10536000000400400000000002000000FF030000F5
:1053700000000000700001000200000004000000B6
:10538000000400400100000002000000FF030000D4
:10539000000000007000010002000000000000009A
:1053A00000400000003801402501030000C2010058
:1053B00000000000000000000C00000001000000E0
:1053C0000000020000440040260203008025000087
:1053D00000000000000000000C00000000000000C1
:1053E00000240140090000000080000000000000CF
:1053F0000000000000000E00000000000107000097
:105400002054000800000020A8000000082A00081E
:10541000C8540008A8000020E80D0000182A000861
:10542000000000000000000000000000000000007C
:10543000000000000000000000000000000000006C
:10544000010000000000000000000000000000005B
:10545000000000000000010000000000000000004B
:1054600044000000000000000000000000000000F8
:1054700000000000FF00000000000000000000002D
:10548000000000000000000000000000000000001C
:105490000000000000A24A0400000000000000001C
:1054A00001020304060708090000000000000000D4
:1054B00000010203040102030406070809020406AE
:0854C0000800000000000000DC
:04000005080000ED02
:00000001FF
